{
	"data": {
		"bytecode": {
			"linkReferences": {},
			"object": "608060405234801561000f575f80fd5b50604051614a8a380380614a8a83398181016040528101906100319190610252565b8181816003908161004291906104d5565b50806004908161005291906104d5565b50505060016005819055503260085f6101000a81548173ffffffffffffffffffffffffffffffffffffffff021916908373ffffffffffffffffffffffffffffffffffffffff160217905550600e5f9054906101000a900473ffffffffffffffffffffffffffffffffffffffff1660065f6101000a81548173ffffffffffffffffffffffffffffffffffffffff021916908373ffffffffffffffffffffffffffffffffffffffff16021790555050506105a4565b5f604051905090565b5f80fd5b5f80fd5b5f80fd5b5f80fd5b5f601f19601f8301169050919050565b7f4e487b71000000000000000000000000000000000000000000000000000000005f52604160045260245ffd5b6101648261011e565b810181811067ffffffffffffffff821117156101835761018261012e565b5b80604052505050565b5f610195610105565b90506101a1828261015b565b919050565b5f67ffffffffffffffff8211156101c0576101bf61012e565b5b6101c98261011e565b9050602081019050919050565b8281835e5f83830152505050565b5f6101f66101f1846101a6565b61018c565b9050828152602081018484840111156102125761021161011a565b5b61021d8482856101d6565b509392505050565b5f82601f83011261023957610238610116565b5b81516102498482602086016101e4565b91505092915050565b5f80604083850312156102685761026761010e565b5b5f83015167ffffffffffffffff81111561028557610284610112565b5b61029185828601610225565b925050602083015167ffffffffffffffff8111156102b2576102b1610112565b5b6102be85828601610225565b9150509250929050565b5f81519050919050565b7f4e487b71000000000000000000000000000000000000000000000000000000005f52602260045260245ffd5b5f600282049050600182168061031657607f821691505b602082108103610329576103286102d2565b5b50919050565b5f819050815f5260205f209050919050565b5f6020601f8301049050919050565b5f82821b905092915050565b5f6008830261038b7fffffffffffffffffffffffffffffffffffffffffffffffffffffffffffffffff82610350565b6103958683610350565b95508019841693508086168417925050509392505050565b5f819050919050565b5f819050919050565b5f6103d96103d46103cf846103ad565b6103b6565b6103ad565b9050919050565b5f819050919050565b6103f2836103bf565b6104066103fe826103e0565b84845461035c565b825550505050565b5f90565b61041a61040e565b6104258184846103e9565b505050565b5b818110156104485761043d5f82610412565b60018101905061042b565b5050565b601f82111561048d5761045e8161032f565b61046784610341565b81016020851015610476578190505b61048a61048285610341565b83018261042a565b50505b505050565b5f82821c905092915050565b5f6104ad5f1984600802610492565b1980831691505092915050565b5f6104c5838361049e565b9150826002028217905092915050565b6104de826102c8565b67ffffffffffffffff8111156104f7576104f661012e565b5b61050182546102ff565b61050c82828561044c565b5f60209050601f83116001811461053d575f841561052b578287015190505b61053585826104ba565b86555061059c565b601f19841661054b8661032f565b5f5b828110156105725784890151825560018201915060208501945060208101905061054d565b8683101561058f578489015161058b601f89168261049e565b8355505b6001600288020188555050505b505050505050565b6144d9806105b15f395ff3fe608060405234801561000f575f80fd5b50600436106101e3575f3560e01c80636a846ce61161010d578063b09cc751116100a0578063cf222c731161006f578063cf222c7314610560578063dd62ed3e1461057c578063e6db189f146105ac578063fa3d888e146105e0576101e3565b8063b09cc751146104d6578063c3b49d04146104e0578063caba8eb014610510578063ce79ef0314610544576101e3565b806379cc6790116100dc57806379cc6790146104505780637f06ecc91461046c57806395d89b4114610488578063a9059cbb146104a6576101e3565b80636a846ce6146103b057806370a08231146103e457806373e29b0d14610414578063786e49b914610432576101e3565b80632ab09d141161018557806342966c681161015457806342966c68146103505780634d853ee51461036c578063649ab8311461038a578063696a6c1614610394576101e3565b80632ab09d14146102ee578063313ce5671461030c578063362e496b1461032a57806338fea72614610334576101e3565b806311eac855116101c157806311eac8551461026657806318160ddd146102845780631efad766146102a257806323b872dd146102be576101e3565b806306fdde03146101e7578063095ea7b31461020557806310ce5c3f14610235575b5f80fd5b6101ef610610565b6040516101fc91906130f4565b60405180910390f35b61021f600480360381019061021a91906131a5565b6106a0565b60405161022c91906131fd565b60405180910390f35b61024f600480360381019061024a9190613216565b6106c2565b60405161025d929190613250565b60405180910390f35b61026e61070d565b60405161027b91906132d2565b60405180910390f35b61028c610732565b60405161029991906132fa565b60405180910390f35b6102bc60048036038101906102b79190613313565b61073b565b005b6102d860048036038101906102d3919061333e565b610912565b6040516102e591906131fd565b60405180910390f35b6102f6610940565b60405161030391906132fa565b60405180910390f35b610314610946565b60405161032191906133a9565b60405180910390f35b61033261094e565b005b61034e600480360381019061034991906133c2565b610b4e565b005b61036a60048036038101906103659190613216565b610d90565b005b610374610da4565b6040516103819190613400565b60405180910390f35b610392610dc9565b005b6103ae60048036038101906103a99190613419565b610edc565b005b6103ca60048036038101906103c59190613313565b61117e565b6040516103db95949392919061347d565b60405180910390f35b6103fe60048036038101906103f99190613313565b6111fb565b60405161040b91906132fa565b60405180910390f35b61041c611240565b6040516104299190613585565b60405180910390f35b61043a6112cb565b60405161044791906136d1565b60405180910390f35b61046a600480360381019061046591906131a5565b61161c565b005b61048660048036038101906104819190613216565b61163c565b005b6104906119c2565b60405161049d91906130f4565b60405180910390f35b6104c060048036038101906104bb91906131a5565b611a52565b6040516104cd91906131fd565b60405180910390f35b6104de611a74565b005b6104fa60048036038101906104f59190613216565b611b33565b6040516105079190613400565b60405180910390f35b61052a60048036038101906105259190613313565b611b6e565b60405161053b9594939291906136f1565b60405180910390f35b61055e60048036038101906105599190613313565b611ba0565b005b61057a60048036038101906105759190613216565b611e8e565b005b61059660048036038101906105919190613742565b612245565b6040516105a391906132fa565b60405180910390f35b6105c660048036038101906105c19190613216565b6122c7565b6040516105d7959493929190613780565b60405180910390f35b6105fa60048036038101906105f59190613313565b612324565b60405161060791906132fa565b60405180910390f35b60606003805461061f906137fe565b80601f016020809104026020016040519081016040528092919081815260200182805461064b906137fe565b80156106965780601f1061066d57610100808354040283529160200191610696565b820191905f5260205f20905b81548152906001019060200180831161067957829003601f168201915b5050505050905090565b5f806106aa61240d565b90506106b7818585612414565b600191505092915050565b600b602052805f5260405f205f91509050805f015f9054906101000a900473ffffffffffffffffffffffffffffffffffffffff1690805f0160149054906101000a900460ff16905082565b60065f9054906101000a900473ffffffffffffffffffffffffffffffffffffffff1681565b5f600254905090565b60085f9054906101000a900473ffffffffffffffffffffffffffffffffffffffff1673ffffffffffffffffffffffffffffffffffffffff163373ffffffffffffffffffffffffffffffffffffffff16148061079d57505f61079b336111fb565b115b6107dc576040517f08c379a00000000000000000000000000000000000000000000000000000000081526004016107d39061389e565b60405180910390fd5b5f73ffffffffffffffffffffffffffffffffffffffff168173ffffffffffffffffffffffffffffffffffffffff160361084a576040517f08c379a000000000000000000000000000000000000000000000000000000000815260040161084190613906565b60405180910390fd5b5f600b5f600d5481526020019081526020015f20905081815f015f6101000a81548173ffffffffffffffffffffffffffffffffffffffff021916908373ffffffffffffffffffffffffffffffffffffffff1602179055505f815f0160146101000a81548160ff0219169083151502179055507f0b5898382bb4beb014484b0e973d5ab62e7a1693284959bdd671b6f81181f197600d54836040516108ef929190613924565b60405180910390a1600d5f81548092919061090990613978565b91905055505050565b5f8061091c61240d565b9050610929858285612426565b6109348585856124b8565b60019150509392505050565b600d5481565b5f6002905090565b6109566125a8565b5f610960336111fb565b90505f81116109a4576040517f08c379a000000000000000000000000000000000000000000000000000000000815260040161099b90613a09565b60405180910390fd5b5f6109ad610732565b90505f60065f9054906101000a900473ffffffffffffffffffffffffffffffffffffffff1673ffffffffffffffffffffffffffffffffffffffff166370a08231306040518263ffffffff1660e01b8152600401610a0a9190613400565b602060405180830381865afa158015610a25573d5f803e3d5ffd5b505050506040513d601f19601f82011682018060405250810190610a499190613a3b565b90505f828483610a599190613a66565b610a639190613ad4565b905060065f9054906101000a900473ffffffffffffffffffffffffffffffffffffffff1673ffffffffffffffffffffffffffffffffffffffff1663a9059cbb33836040518363ffffffff1660e01b8152600401610ac1929190613b04565b6020604051808303815f875af1158015610add573d5f803e3d5ffd5b505050506040513d601f19601f82011682018060405250810190610b019190613b55565b610b40576040517f08c379a0000000000000000000000000000000000000000000000000000000008152600401610b3790613bca565b60405180910390fd5b50505050610b4c6125f7565b565b610b566125a8565b5f8211610b98576040517f08c379a0000000000000000000000000000000000000000000000000000000008152600401610b8f90613c32565b60405180910390fd5b5f8111610bda576040517f08c379a0000000000000000000000000000000000000000000000000000000008152600401610bd190613c9a565b60405180910390fd5b81610be4336111fb565b1015610c25576040517f08c379a0000000000000000000000000000000000000000000000000000000008152600401610c1c90613d02565b60405180910390fd5b610c303330846124b8565b6040518060a001604052803373ffffffffffffffffffffffffffffffffffffffff1681526020018381526020018281526020015f73ffffffffffffffffffffffffffffffffffffffff16815260200160011515815250600a5f3373ffffffffffffffffffffffffffffffffffffffff1673ffffffffffffffffffffffffffffffffffffffff1681526020019081526020015f205f820151815f015f6101000a81548173ffffffffffffffffffffffffffffffffffffffff021916908373ffffffffffffffffffffffffffffffffffffffff16021790555060208201518160010155604082015181600201556060820151816003015f6101000a81548173ffffffffffffffffffffffffffffffffffffffff021916908373ffffffffffffffffffffffffffffffffffffffff16021790555060808201518160030160146101000a81548160ff021916908315150217905550905050610d8c6125f7565b5050565b610da1610d9b61240d565b82612601565b50565b60085f9054906101000a900473ffffffffffffffffffffffffffffffffffffffff1681565b5f60095f3373ffffffffffffffffffffffffffffffffffffffff1673ffffffffffffffffffffffffffffffffffffffff1681526020019081526020015f2090505f816001015411610e4f576040517f08c379a0000000000000000000000000000000000000000000000000000000008152600401610e4690613d6a565b60405180910390fd5b8060010154816002015410610e99576040517f08c379a0000000000000000000000000000000000000000000000000000000008152600401610e9090613df8565b60405180910390fd5b5f8160020154610ea833612324565b610eb29190613e16565b905080826002015f828254610ec79190613e49565b92505081905550610ed83382612680565b5050565b60085f9054906101000a900473ffffffffffffffffffffffffffffffffffffffff1673ffffffffffffffffffffffffffffffffffffffff163373ffffffffffffffffffffffffffffffffffffffff161480610f3e57505f610f3c336111fb565b115b610f7d576040517f08c379a0000000000000000000000000000000000000000000000000000000008152600401610f749061389e565b60405180910390fd5b5f73ffffffffffffffffffffffffffffffffffffffff168473ffffffffffffffffffffffffffffffffffffffff1603610feb576040517f08c379a0000000000000000000000000000000000000000000000000000000008152600401610fe290613906565b60405180910390fd5b5f600780549050036110975760085f9054906101000a900473ffffffffffffffffffffffffffffffffffffffff1673ffffffffffffffffffffffffffffffffffffffff163373ffffffffffffffffffffffffffffffffffffffff1614611086576040517f08c379a000000000000000000000000000000000000000000000000000000000815260040161107d90613eec565b60405180910390fd5b611092848484846126ff565b611178565b5f600c5f600d5481526020019081526020015f20905084815f015f6101000a81548173ffffffffffffffffffffffffffffffffffffffff021916908373ffffffffffffffffffffffffffffffffffffffff1602179055508381600101819055508281600201819055508181600301819055505f816004015f6101000a81548160ff0219169083151502179055507f04b9e2c669005e09a0b3262274a1db33dc23fc478202c8cca8cdd163262c8244600d5486604051611157929190613924565b60405180910390a1600d5f81548092919061117190613978565b9190505550505b50505050565b600a602052805f5260405f205f91509050805f015f9054906101000a900473ffffffffffffffffffffffffffffffffffffffff1690806001015490806002015490806003015f9054906101000a900473ffffffffffffffffffffffffffffffffffffffff16908060030160149054906101000a900460ff16905085565b5f805f8373ffffffffffffffffffffffffffffffffffffffff1673ffffffffffffffffffffffffffffffffffffffff1681526020019081526020015f20549050919050565b606060078054806020026020016040519081016040528092919081815260200182805480156112c157602002820191905f5260205f20905b815f9054906101000a900473ffffffffffffffffffffffffffffffffffffffff1673ffffffffffffffffffffffffffffffffffffffff1681526020019060010190808311611278575b5050505050905090565b60605f805b60078054905081101561138757600a5f600783815481106112f4576112f3613f0a565b5b905f5260205f20015f9054906101000a900473ffffffffffffffffffffffffffffffffffffffff1673ffffffffffffffffffffffffffffffffffffffff1673ffffffffffffffffffffffffffffffffffffffff1681526020019081526020015f2060030160149054906101000a900460ff161561137a57818061137690613978565b9250505b80806001019150506112d0565b505f8167ffffffffffffffff8111156113a3576113a2613f37565b5b6040519080825280602002602001820160405280156113dc57816020015b6113c961302c565b8152602001906001900390816113c15790505b5090505f805b60078054905081101561161257600a5f6007838154811061140657611405613f0a565b5b905f5260205f20015f9054906101000a900473ffffffffffffffffffffffffffffffffffffffff1673ffffffffffffffffffffffffffffffffffffffff1673ffffffffffffffffffffffffffffffffffffffff1681526020019081526020015f2060030160149054906101000a900460ff161561160557600a5f6007838154811061149457611493613f0a565b5b905f5260205f20015f9054906101000a900473ffffffffffffffffffffffffffffffffffffffff1673ffffffffffffffffffffffffffffffffffffffff1673ffffffffffffffffffffffffffffffffffffffff1681526020019081526020015f206040518060a00160405290815f82015f9054906101000a900473ffffffffffffffffffffffffffffffffffffffff1673ffffffffffffffffffffffffffffffffffffffff1673ffffffffffffffffffffffffffffffffffffffff1681526020016001820154815260200160028201548152602001600382015f9054906101000a900473ffffffffffffffffffffffffffffffffffffffff1673ffffffffffffffffffffffffffffffffffffffff1673ffffffffffffffffffffffffffffffffffffffff1681526020016003820160149054906101000a900460ff1615151515815250508383815181106115eb576115ea613f0a565b5b6020026020010181905250818061160190613978565b9250505b80806001019150506113e2565b5081935050505090565b61162e8261162861240d565b83612426565b6116388282612601565b5050565b60085f9054906101000a900473ffffffffffffffffffffffffffffffffffffffff1673ffffffffffffffffffffffffffffffffffffffff163373ffffffffffffffffffffffffffffffffffffffff16148061169e57505f61169c336111fb565b115b6116dd576040517f08c379a00000000000000000000000000000000000000000000000000000000081526004016116d490613fd4565b60405180910390fd5b600d548110611721576040517f08c379a00000000000000000000000000000000000000000000000000000000081526004016117189061403c565b60405180910390fd5b5f600b5f8381526020019081526020015f209050805f0160149054906101000a900460ff1615611786576040517f08c379a000000000000000000000000000000000000000000000000000000000815260040161177d906140a4565b60405180910390fd5b806002015f3373ffffffffffffffffffffffffffffffffffffffff1673ffffffffffffffffffffffffffffffffffffffff1681526020019081526020015f205f9054906101000a900460ff1615611812576040517f08c379a000000000000000000000000000000000000000000000000000000000815260040161180990614132565b60405180910390fd5b6001816002015f3373ffffffffffffffffffffffffffffffffffffffff1673ffffffffffffffffffffffffffffffffffffffff1681526020019081526020015f205f6101000a81548160ff0219169083151502179055508060010133908060018154018082558091505060019003905f5260205f20015f9091909190916101000a81548173ffffffffffffffffffffffffffffffffffffffff021916908373ffffffffffffffffffffffffffffffffffffffff1602179055505f805b8260010180549050811015611942575f8360010182815481106118f4576118f3613f0a565b5b905f5260205f20015f9054906101000a900473ffffffffffffffffffffffffffffffffffffffff169050611927816111fb565b836119329190613e49565b92505080806001019150506118ce565b50600261194d610732565b6119579190613ad4565b811115611984576001825f0160146101000a81548160ff0219169083151502179055506119838361290d565b5b7ff1003b73c437642c0460aee9cd9628b0b8c447b66e6c7c905531b9c644214a1183336040516119b5929190613924565b60405180910390a1505050565b6060600480546119d1906137fe565b80601f01602080910402602001604051908101604052809291908181526020018280546119fd906137fe565b8015611a485780601f10611a1f57610100808354040283529160200191611a48565b820191905f5260205f20905b815481529060010190602001808311611a2b57829003601f168201915b5050505050905090565b5f80611a5c61240d565b9050611a698185856124b8565b600191505092915050565b5f600a5f3373ffffffffffffffffffffffffffffffffffffffff1673ffffffffffffffffffffffffffffffffffffffff1681526020019081526020015f2090508060030160149054906101000a900460ff16611b05576040517f08c379a0000000000000000000000000000000000000000000000000000000008152600401611afc9061419a565b60405180910390fd5b611b14303383600101546124b8565b5f8160030160146101000a81548160ff02191690831515021790555050565b60078181548110611b42575f80fd5b905f5260205f20015f915054906101000a900473ffffffffffffffffffffffffffffffffffffffff1681565b6009602052805f5260405f205f91509050805f0154908060010154908060020154908060030154908060040154905085565b611ba86125a8565b5f600a5f8373ffffffffffffffffffffffffffffffffffffffff1673ffffffffffffffffffffffffffffffffffffffff1681526020019081526020015f209050600115158160030160149054906101000a900460ff16151514611c40576040517f08c379a0000000000000000000000000000000000000000000000000000000008152600401611c3790613c32565b60405180910390fd5b5f606482600201548360010154611c579190613a66565b611c619190613a66565b905060065f9054906101000a900473ffffffffffffffffffffffffffffffffffffffff1673ffffffffffffffffffffffffffffffffffffffff166323b872dd33845f015f9054906101000a900473ffffffffffffffffffffffffffffffffffffffff16846040518463ffffffff1660e01b8152600401611ce3939291906141b8565b6020604051808303815f875af1158015611cff573d5f803e3d5ffd5b505050506040513d601f19601f82011682018060405250810190611d239190613b55565b611d62576040517f08c379a0000000000000000000000000000000000000000000000000000000008152600401611d5990614237565b60405180910390fd5b611d70338360010154611a52565b5033826003015f6101000a81548173ffffffffffffffffffffffffffffffffffffffff021916908373ffffffffffffffffffffffffffffffffffffffff1602179055505f8260030160146101000a81548160ff021916908315150217905550600733908060018154018082558091505060019003905f5260205f20015f9091909190916101000a81548173ffffffffffffffffffffffffffffffffffffffff021916908373ffffffffffffffffffffffffffffffffffffffff1602179055503373ffffffffffffffffffffffffffffffffffffffff167ff6f789e22d2fd81565e9a5f1f694c6832eb01e2931e1617fa3ca2501a4bc7ac58360010154604051611e7991906132fa565b60405180910390a25050611e8b6125f7565b50565b60085f9054906101000a900473ffffffffffffffffffffffffffffffffffffffff1673ffffffffffffffffffffffffffffffffffffffff163373ffffffffffffffffffffffffffffffffffffffff161480611ef057505f611eee336111fb565b115b611f2f576040517f08c379a0000000000000000000000000000000000000000000000000000000008152600401611f2690613fd4565b60405180910390fd5b600d548110611f73576040517f08c379a0000000000000000000000000000000000000000000000000000000008152600401611f6a9061403c565b60405180910390fd5b5f600c5f8381526020019081526020015f209050806004015f9054906101000a900460ff1615611fd8576040517f08c379a0000000000000000000000000000000000000000000000000000000008152600401611fcf906140a4565b60405180910390fd5b806006015f3373ffffffffffffffffffffffffffffffffffffffff1673ffffffffffffffffffffffffffffffffffffffff1681526020019081526020015f205f9054906101000a900460ff1615612064576040517f08c379a000000000000000000000000000000000000000000000000000000000815260040161205b90614132565b60405180910390fd5b6001816006015f3373ffffffffffffffffffffffffffffffffffffffff1673ffffffffffffffffffffffffffffffffffffffff1681526020019081526020015f205f6101000a81548160ff0219169083151502179055508060050133908060018154018082558091505060019003905f5260205f20015f9091909190916101000a81548173ffffffffffffffffffffffffffffffffffffffff021916908373ffffffffffffffffffffffffffffffffffffffff1602179055505f805b8260050180549050811015612194575f83600501828154811061214657612145613f0a565b5b905f5260205f20015f9054906101000a900473ffffffffffffffffffffffffffffffffffffffff169050612179816111fb565b836121849190613e49565b9250508080600101915050612120565b50600261219f610732565b6121a99190613ad4565b811115612207576001826004015f6101000a81548160ff021916908315150217905550612206825f015f9054906101000a900473ffffffffffffffffffffffffffffffffffffffff168360010154846002015485600301546126ff565b5b7ff1003b73c437642c0460aee9cd9628b0b8c447b66e6c7c905531b9c644214a118333604051612238929190613924565b60405180910390a1505050565b5f60015f8473ffffffffffffffffffffffffffffffffffffffff1673ffffffffffffffffffffffffffffffffffffffff1681526020019081526020015f205f8373ffffffffffffffffffffffffffffffffffffffff1673ffffffffffffffffffffffffffffffffffffffff1681526020019081526020015f2054905092915050565b600c602052805f5260405f205f91509050805f015f9054906101000a900473ffffffffffffffffffffffffffffffffffffffff1690806001015490806002015490806003015490806004015f9054906101000a900460ff16905085565b5f8060095f8473ffffffffffffffffffffffffffffffffffffffff1673ffffffffffffffffffffffffffffffffffffffff1681526020019081526020015f209050806001015481600201540361237d575f915050612408565b5f80826004015490505f836003015490505f846001015490505f855f0154905082816123a99190613e49565b42106123fe575f846127108584426123c19190613e16565b6123cb9190613e16565b6123d59190613a66565b6123df9190613ad4565b905061271081846123f09190613a66565b6123fa9190613ad4565b9550505b8496505050505050505b919050565b5f33905090565b6124218383836001612c44565b505050565b5f6124318484612245565b90507fffffffffffffffffffffffffffffffffffffffffffffffffffffffffffffffff81146124b257818110156124a3578281836040517ffb8f41b200000000000000000000000000000000000000000000000000000000815260040161249a93929190614255565b60405180910390fd5b6124b184848484035f612c44565b5b50505050565b5f73ffffffffffffffffffffffffffffffffffffffff168373ffffffffffffffffffffffffffffffffffffffff1603612528575f6040517f96c6fd1e00000000000000000000000000000000000000000000000000000000815260040161251f9190613400565b60405180910390fd5b5f73ffffffffffffffffffffffffffffffffffffffff168273ffffffffffffffffffffffffffffffffffffffff1603612598575f6040517fec442f0500000000000000000000000000000000000000000000000000000000815260040161258f9190613400565b60405180910390fd5b6125a3838383612e13565b505050565b6002600554036125ed576040517f08c379a00000000000000000000000000000000000000000000000000000000081526004016125e4906142d4565b60405180910390fd5b6002600581905550565b6001600581905550565b5f73ffffffffffffffffffffffffffffffffffffffff168273ffffffffffffffffffffffffffffffffffffffff1603612671575f6040517f96c6fd1e0000000000000000000000000000000000000000000000000000000081526004016126689190613400565b60405180910390fd5b61267c825f83612e13565b5050565b5f73ffffffffffffffffffffffffffffffffffffffff168273ffffffffffffffffffffffffffffffffffffffff16036126f0575f6040517fec442f050000000000000000000000000000000000000000000000000000000081526004016126e79190613400565b60405180910390fd5b6126fb5f8383612e13565b5050565b5f73ffffffffffffffffffffffffffffffffffffffff168473ffffffffffffffffffffffffffffffffffffffff160361276d576040517f08c379a000000000000000000000000000000000000000000000000000000000815260040161276490613906565b60405180910390fd5b5f83116127af576040517f08c379a00000000000000000000000000000000000000000000000000000000081526004016127a69061433c565b60405180910390fd5b808211156127f2576040517f08c379a00000000000000000000000000000000000000000000000000000000081526004016127e9906143ca565b60405180910390fd5b600784908060018154018082558091505060019003905f5260205f20015f9091909190916101000a81548173ffffffffffffffffffffffffffffffffffffffff021916908373ffffffffffffffffffffffffffffffffffffffff1602179055506040518060a001604052804281526020018481526020015f81526020018381526020018281525060095f8673ffffffffffffffffffffffffffffffffffffffff1673ffffffffffffffffffffffffffffffffffffffff1681526020019081526020015f205f820151815f0155602082015181600101556040820151816002015560608201518160030155608082015181600401559050505f821480156128f757505f81145b15612907576129068484612680565b5b50505050565b5f600b5f8381526020019081526020015f2090505f60095f835f015f9054906101000a900473ffffffffffffffffffffffffffffffffffffffff1673ffffffffffffffffffffffffffffffffffffffff1673ffffffffffffffffffffffffffffffffffffffff1681526020019081526020015f2090505f8160020154146129c9576040517f08c379a00000000000000000000000000000000000000000000000000000000081526004016129c090614458565b60405180910390fd5b612a1f825f015f9054906101000a900473ffffffffffffffffffffffffffffffffffffffff16612a1a845f015f9054906101000a900473ffffffffffffffffffffffffffffffffffffffff166111fb565b612601565b60095f835f015f9054906101000a900473ffffffffffffffffffffffffffffffffffffffff1673ffffffffffffffffffffffffffffffffffffffff1673ffffffffffffffffffffffffffffffffffffffff1681526020019081526020015f205f8082015f9055600182015f9055600282015f9055600382015f9055600482015f905550505f5b600780549050811015612c3e57825f015f9054906101000a900473ffffffffffffffffffffffffffffffffffffffff1673ffffffffffffffffffffffffffffffffffffffff1660078281548110612aff57612afe613f0a565b5b905f5260205f20015f9054906101000a900473ffffffffffffffffffffffffffffffffffffffff1673ffffffffffffffffffffffffffffffffffffffff1603612c315760076001600780549050612b569190613e16565b81548110612b6757612b66613f0a565b5b905f5260205f20015f9054906101000a900473ffffffffffffffffffffffffffffffffffffffff1660078281548110612ba357612ba2613f0a565b5b905f5260205f20015f6101000a81548173ffffffffffffffffffffffffffffffffffffffff021916908373ffffffffffffffffffffffffffffffffffffffff1602179055506007805480612bfa57612bf9614476565b5b600190038181905f5260205f20015f6101000a81549073ffffffffffffffffffffffffffffffffffffffff02191690559055612c3e565b8080600101915050612aa5565b50505050565b5f73ffffffffffffffffffffffffffffffffffffffff168473ffffffffffffffffffffffffffffffffffffffff1603612cb4575f6040517fe602df05000000000000000000000000000000000000000000000000000000008152600401612cab9190613400565b60405180910390fd5b5f73ffffffffffffffffffffffffffffffffffffffff168373ffffffffffffffffffffffffffffffffffffffff1603612d24575f6040517f94280d62000000000000000000000000000000000000000000000000000000008152600401612d1b9190613400565b60405180910390fd5b8160015f8673ffffffffffffffffffffffffffffffffffffffff1673ffffffffffffffffffffffffffffffffffffffff1681526020019081526020015f205f8573ffffffffffffffffffffffffffffffffffffffff1673ffffffffffffffffffffffffffffffffffffffff1681526020019081526020015f20819055508015612e0d578273ffffffffffffffffffffffffffffffffffffffff168473ffffffffffffffffffffffffffffffffffffffff167f8c5be1e5ebec7d5bd14f71427d1e84f3dd0314c0f7b2291e5b200ac8c7c3b92584604051612e0491906132fa565b60405180910390a35b50505050565b5f73ffffffffffffffffffffffffffffffffffffffff168373ffffffffffffffffffffffffffffffffffffffff1603612e63578060025f828254612e579190613e49565b92505081905550612f31565b5f805f8573ffffffffffffffffffffffffffffffffffffffff1673ffffffffffffffffffffffffffffffffffffffff1681526020019081526020015f2054905081811015612eec578381836040517fe450d38c000000000000000000000000000000000000000000000000000000008152600401612ee393929190614255565b60405180910390fd5b8181035f808673ffffffffffffffffffffffffffffffffffffffff1673ffffffffffffffffffffffffffffffffffffffff1681526020019081526020015f2081905550505b5f73ffffffffffffffffffffffffffffffffffffffff168273ffffffffffffffffffffffffffffffffffffffff1603612f78578060025f8282540392505081905550612fc2565b805f808473ffffffffffffffffffffffffffffffffffffffff1673ffffffffffffffffffffffffffffffffffffffff1681526020019081526020015f205f82825401925050819055505b8173ffffffffffffffffffffffffffffffffffffffff168373ffffffffffffffffffffffffffffffffffffffff167fddf252ad1be2c89b69c2b068fc378daa952ba7f163c4a11628f55a4df523b3ef8360405161301f91906132fa565b60405180910390a3505050565b6040518060a001604052805f73ffffffffffffffffffffffffffffffffffffffff1681526020015f81526020015f81526020015f73ffffffffffffffffffffffffffffffffffffffff1681526020015f151581525090565b5f81519050919050565b5f82825260208201905092915050565b8281835e5f83830152505050565b5f601f19601f8301169050919050565b5f6130c682613084565b6130d0818561308e565b93506130e081856020860161309e565b6130e9816130ac565b840191505092915050565b5f6020820190508181035f83015261310c81846130bc565b905092915050565b5f80fd5b5f73ffffffffffffffffffffffffffffffffffffffff82169050919050565b5f61314182613118565b9050919050565b61315181613137565b811461315b575f80fd5b50565b5f8135905061316c81613148565b92915050565b5f819050919050565b61318481613172565b811461318e575f80fd5b50565b5f8135905061319f8161317b565b92915050565b5f80604083850312156131bb576131ba613114565b5b5f6131c88582860161315e565b92505060206131d985828601613191565b9150509250929050565b5f8115159050919050565b6131f7816131e3565b82525050565b5f6020820190506132105f8301846131ee565b92915050565b5f6020828403121561322b5761322a613114565b5b5f61323884828501613191565b91505092915050565b61324a81613137565b82525050565b5f6040820190506132635f830185613241565b61327060208301846131ee565b9392505050565b5f819050919050565b5f61329a61329561329084613118565b613277565b613118565b9050919050565b5f6132ab82613280565b9050919050565b5f6132bc826132a1565b9050919050565b6132cc816132b2565b82525050565b5f6020820190506132e55f8301846132c3565b92915050565b6132f481613172565b82525050565b5f60208201905061330d5f8301846132eb565b92915050565b5f6020828403121561332857613327613114565b5b5f6133358482850161315e565b91505092915050565b5f805f6060848603121561335557613354613114565b5b5f6133628682870161315e565b93505060206133738682870161315e565b925050604061338486828701613191565b9150509250925092565b5f60ff82169050919050565b6133a38161338e565b82525050565b5f6020820190506133bc5f83018461339a565b92915050565b5f80604083850312156133d8576133d7613114565b5b5f6133e585828601613191565b92505060206133f685828601613191565b9150509250929050565b5f6020820190506134135f830184613241565b92915050565b5f805f806080858703121561343157613430613114565b5b5f61343e8782880161315e565b945050602061344f87828801613191565b935050604061346087828801613191565b925050606061347187828801613191565b91505092959194509250565b5f60a0820190506134905f830188613241565b61349d60208301876132eb565b6134aa60408301866132eb565b6134b76060830185613241565b6134c460808301846131ee565b9695505050505050565b5f81519050919050565b5f82825260208201905092915050565b5f819050602082019050919050565b61350081613137565b82525050565b5f61351183836134f7565b60208301905092915050565b5f602082019050919050565b5f613533826134ce565b61353d81856134d8565b9350613548836134e8565b805f5b8381101561357857815161355f8882613506565b975061356a8361351d565b92505060018101905061354b565b5085935050505092915050565b5f6020820190508181035f83015261359d8184613529565b905092915050565b5f81519050919050565b5f82825260208201905092915050565b5f819050602082019050919050565b6135d781613172565b82525050565b6135e6816131e3565b82525050565b60a082015f8201516136005f8501826134f7565b50602082015161361360208501826135ce565b50604082015161362660408501826135ce565b50606082015161363960608501826134f7565b50608082015161364c60808501826135dd565b50505050565b5f61365d83836135ec565b60a08301905092915050565b5f602082019050919050565b5f61367f826135a5565b61368981856135af565b9350613694836135bf565b805f5b838110156136c45781516136ab8882613652565b97506136b683613669565b925050600181019050613697565b5085935050505092915050565b5f6020820190508181035f8301526136e98184613675565b905092915050565b5f60a0820190506137045f8301886132eb565b61371160208301876132eb565b61371e60408301866132eb565b61372b60608301856132eb565b61373860808301846132eb565b9695505050505050565b5f806040838503121561375857613757613114565b5b5f6137658582860161315e565b92505060206137768582860161315e565b9150509250929050565b5f60a0820190506137935f830188613241565b6137a060208301876132eb565b6137ad60408301866132eb565b6137ba60608301856132eb565b6137c760808301846131ee565b9695505050505050565b7f4e487b71000000000000000000000000000000000000000000000000000000005f52602260045260245ffd5b5f600282049050600182168061381557607f821691505b602082108103613828576138276137d1565b5b50919050565b7f4f6e6c7920706172746e657273206f722074686520666f756e6465722063616e5f8201527f206372656174652070726f706f73616c73000000000000000000000000000000602082015250565b5f61388860318361308e565b91506138938261382e565b604082019050919050565b5f6020820190508181035f8301526138b58161387c565b9050919050565b7f496e76616c696420706172746e657220616464726573730000000000000000005f82015250565b5f6138f060178361308e565b91506138fb826138bc565b602082019050919050565b5f6020820190508181035f83015261391d816138e4565b9050919050565b5f6040820190506139375f8301856132eb565b6139446020830184613241565b9392505050565b7f4e487b71000000000000000000000000000000000000000000000000000000005f52601160045260245ffd5b5f61398282613172565b91507fffffffffffffffffffffffffffffffffffffffffffffffffffffffffffffffff82036139b4576139b361394b565b5b600182019050919050565b7f596f752068617665206e6f20746f6b656e7300000000000000000000000000005f82015250565b5f6139f360128361308e565b91506139fe826139bf565b602082019050919050565b5f6020820190508181035f830152613a20816139e7565b9050919050565b5f81519050613a358161317b565b92915050565b5f60208284031215613a5057613a4f613114565b5b5f613a5d84828501613a27565b91505092915050565b5f613a7082613172565b9150613a7b83613172565b9250828202613a8981613172565b91508282048414831517613aa057613a9f61394b565b5b5092915050565b7f4e487b71000000000000000000000000000000000000000000000000000000005f52601260045260245ffd5b5f613ade82613172565b9150613ae983613172565b925082613af957613af8613aa7565b5b828204905092915050565b5f604082019050613b175f830185613241565b613b2460208301846132eb565b9392505050565b613b34816131e3565b8114613b3e575f80fd5b50565b5f81519050613b4f81613b2b565b92915050565b5f60208284031215613b6a57613b69613114565b5b5f613b7784828501613b41565b91505092915050565b7f55534454207472616e73666572206661696c65640000000000000000000000005f82015250565b5f613bb460148361308e565b9150613bbf82613b80565b602082019050919050565b5f6020820190508181035f830152613be181613ba8565b9050919050565b7f496e76616c696420746f6b656e20616d6f756e740000000000000000000000005f82015250565b5f613c1c60148361308e565b9150613c2782613be8565b602082019050919050565b5f6020820190508181035f830152613c4981613c10565b9050919050565b7f496e76616c6964207072696365000000000000000000000000000000000000005f82015250565b5f613c84600d8361308e565b9150613c8f82613c50565b602082019050919050565b5f6020820190508181035f830152613cb181613c78565b9050919050565b7f496e73756666696369656e742062616c616e63650000000000000000000000005f82015250565b5f613cec60148361308e565b9150613cf782613cb8565b602082019050919050565b5f6020820190508181035f830152613d1981613ce0565b9050919050565b7f596f7520617265206e6f74206120706172746e657200000000000000000000005f82015250565b5f613d5460158361308e565b9150613d5f82613d20565b602082019050919050565b5f6020820190508181035f830152613d8181613d48565b9050919050565b7f596f75206861766520616c726561647920636c61696d656420616c6c20796f755f8201527f7220746f6b656e73000000000000000000000000000000000000000000000000602082015250565b5f613de260288361308e565b9150613ded82613d88565b604082019050919050565b5f6020820190508181035f830152613e0f81613dd6565b9050919050565b5f613e2082613172565b9150613e2b83613172565b9250828203905081811115613e4357613e4261394b565b5b92915050565b5f613e5382613172565b9150613e5e83613172565b9250828201905080821115613e7657613e7561394b565b5b92915050565b7f4f6e6c792074686520666f756e6465722063616e2061646420746865206669725f8201527f737420706172746e65722e000000000000000000000000000000000000000000602082015250565b5f613ed6602b8361308e565b9150613ee182613e7c565b604082019050919050565b5f6020820190508181035f830152613f0381613eca565b9050919050565b7f4e487b71000000000000000000000000000000000000000000000000000000005f52603260045260245ffd5b7f4e487b71000000000000000000000000000000000000000000000000000000005f52604160045260245ffd5b7f4f6e6c7920706172746e657273206f722074686520666f756e6465722063616e5f8201527f20766f7465000000000000000000000000000000000000000000000000000000602082015250565b5f613fbe60258361308e565b9150613fc982613f64565b604082019050919050565b5f6020820190508181035f830152613feb81613fb2565b9050919050565b7f50726f706f73616c20494420646f6573206e6f742065786973740000000000005f82015250565b5f614026601a8361308e565b915061403182613ff2565b602082019050919050565b5f6020820190508181035f8301526140538161401a565b9050919050565b7f50726f706f73616c20616c7265616479206578656375746564000000000000005f82015250565b5f61408e60198361308e565b91506140998261405a565b602082019050919050565b5f6020820190508181035f8301526140bb81614082565b9050919050565b7f596f75206861766520616c726561647920766f746564206f6e207468697320705f8201527f726f706f73616c00000000000000000000000000000000000000000000000000602082015250565b5f61411c60278361308e565b9150614127826140c2565b604082019050919050565b5f6020820190508181035f83015261414981614110565b9050919050565b7f4e6f206163746976652073656c6c206f666665720000000000000000000000005f82015250565b5f61418460148361308e565b915061418f82614150565b602082019050919050565b5f6020820190508181035f8301526141b181614178565b9050919050565b5f6060820190506141cb5f830186613241565b6141d86020830185613241565b6141e560408301846132eb565b949350505050565b7f55534443207472616e73666572206661696c65640000000000000000000000005f82015250565b5f61422160148361308e565b915061422c826141ed565b602082019050919050565b5f6020820190508181035f83015261424e81614215565b9050919050565b5f6060820190506142685f830186613241565b61427560208301856132eb565b61428260408301846132eb565b949350505050565b7f5265656e7472616e637947756172643a207265656e7472616e742063616c6c005f82015250565b5f6142be601f8361308e565b91506142c98261428a565b602082019050919050565b5f6020820190508181035f8301526142eb816142b2565b9050919050565b7f496e76616c696420746f6b656e7320616d6f756e7400000000000000000000005f82015250565b5f61432660158361308e565b9150614331826142f2565b602082019050919050565b5f6020820190508181035f8301526143538161431a565b9050919050565b7f436c69666620706572696f64206d757374206265206c657373207468616e206f5f8201527f7220657175616c20746f2076657374696e6720706572696f6400000000000000602082015250565b5f6143b460398361308e565b91506143bf8261435a565b604082019050919050565b5f6020820190508181035f8301526143e1816143a8565b9050919050565b7f506172746e65722068617320616c726561647920636c61696d656420746f6b655f8201527f6e73000000000000000000000000000000000000000000000000000000000000602082015250565b5f61444260228361308e565b915061444d826143e8565b604082019050919050565b5f6020820190508181035f83015261446f81614436565b9050919050565b7f4e487b71000000000000000000000000000000000000000000000000000000005f52603160045260245ffdfea264697066735822122086cdb6ec492c21cc5840de3194461efeeed754cdca83ab19b38e928859eda79c64736f6c63430008190033",
			"opcodes": "PUSH1 0x80 PUSH1 0x40 MSTORE CALLVALUE DUP1 ISZERO PUSH2 0xF JUMPI PUSH0 DUP1 REVERT JUMPDEST POP PUSH1 0x40 MLOAD PUSH2 0x4A8A CODESIZE SUB DUP1 PUSH2 0x4A8A DUP4 CODECOPY DUP2 DUP2 ADD PUSH1 0x40 MSTORE DUP2 ADD SWAP1 PUSH2 0x31 SWAP2 SWAP1 PUSH2 0x252 JUMP JUMPDEST DUP2 DUP2 DUP2 PUSH1 0x3 SWAP1 DUP2 PUSH2 0x42 SWAP2 SWAP1 PUSH2 0x4D5 JUMP JUMPDEST POP DUP1 PUSH1 0x4 SWAP1 DUP2 PUSH2 0x52 SWAP2 SWAP1 PUSH2 0x4D5 JUMP JUMPDEST POP POP POP PUSH1 0x1 PUSH1 0x5 DUP2 SWAP1 SSTORE POP ORIGIN PUSH1 0x8 PUSH0 PUSH2 0x100 EXP DUP2 SLOAD DUP2 PUSH20 0xFFFFFFFFFFFFFFFFFFFFFFFFFFFFFFFFFFFFFFFF MUL NOT AND SWAP1 DUP4 PUSH20 0xFFFFFFFFFFFFFFFFFFFFFFFFFFFFFFFFFFFFFFFF AND MUL OR SWAP1 SSTORE POP PUSH1 0xE PUSH0 SWAP1 SLOAD SWAP1 PUSH2 0x100 EXP SWAP1 DIV PUSH20 0xFFFFFFFFFFFFFFFFFFFFFFFFFFFFFFFFFFFFFFFF AND PUSH1 0x6 PUSH0 PUSH2 0x100 EXP DUP2 SLOAD DUP2 PUSH20 0xFFFFFFFFFFFFFFFFFFFFFFFFFFFFFFFFFFFFFFFF MUL NOT AND SWAP1 DUP4 PUSH20 0xFFFFFFFFFFFFFFFFFFFFFFFFFFFFFFFFFFFFFFFF AND MUL OR SWAP1 SSTORE POP POP POP PUSH2 0x5A4 JUMP JUMPDEST PUSH0 PUSH1 0x40 MLOAD SWAP1 POP SWAP1 JUMP JUMPDEST PUSH0 DUP1 REVERT JUMPDEST PUSH0 DUP1 REVERT JUMPDEST PUSH0 DUP1 REVERT JUMPDEST PUSH0 DUP1 REVERT JUMPDEST PUSH0 PUSH1 0x1F NOT PUSH1 0x1F DUP4 ADD AND SWAP1 POP SWAP2 SWAP1 POP JUMP JUMPDEST PUSH32 0x4E487B7100000000000000000000000000000000000000000000000000000000 PUSH0 MSTORE PUSH1 0x41 PUSH1 0x4 MSTORE PUSH1 0x24 PUSH0 REVERT JUMPDEST PUSH2 0x164 DUP3 PUSH2 0x11E JUMP JUMPDEST DUP2 ADD DUP2 DUP2 LT PUSH8 0xFFFFFFFFFFFFFFFF DUP3 GT OR ISZERO PUSH2 0x183 JUMPI PUSH2 0x182 PUSH2 0x12E JUMP JUMPDEST JUMPDEST DUP1 PUSH1 0x40 MSTORE POP POP POP JUMP JUMPDEST PUSH0 PUSH2 0x195 PUSH2 0x105 JUMP JUMPDEST SWAP1 POP PUSH2 0x1A1 DUP3 DUP3 PUSH2 0x15B JUMP JUMPDEST SWAP2 SWAP1 POP JUMP JUMPDEST PUSH0 PUSH8 0xFFFFFFFFFFFFFFFF DUP3 GT ISZERO PUSH2 0x1C0 JUMPI PUSH2 0x1BF PUSH2 0x12E JUMP JUMPDEST JUMPDEST PUSH2 0x1C9 DUP3 PUSH2 0x11E JUMP JUMPDEST SWAP1 POP PUSH1 0x20 DUP2 ADD SWAP1 POP SWAP2 SWAP1 POP JUMP JUMPDEST DUP3 DUP2 DUP4 MCOPY PUSH0 DUP4 DUP4 ADD MSTORE POP POP POP JUMP JUMPDEST PUSH0 PUSH2 0x1F6 PUSH2 0x1F1 DUP5 PUSH2 0x1A6 JUMP JUMPDEST PUSH2 0x18C JUMP JUMPDEST SWAP1 POP DUP3 DUP2 MSTORE PUSH1 0x20 DUP2 ADD DUP5 DUP5 DUP5 ADD GT ISZERO PUSH2 0x212 JUMPI PUSH2 0x211 PUSH2 0x11A JUMP JUMPDEST JUMPDEST PUSH2 0x21D DUP5 DUP3 DUP6 PUSH2 0x1D6 JUMP JUMPDEST POP SWAP4 SWAP3 POP POP POP JUMP JUMPDEST PUSH0 DUP3 PUSH1 0x1F DUP4 ADD SLT PUSH2 0x239 JUMPI PUSH2 0x238 PUSH2 0x116 JUMP JUMPDEST JUMPDEST DUP2 MLOAD PUSH2 0x249 DUP5 DUP3 PUSH1 0x20 DUP7 ADD PUSH2 0x1E4 JUMP JUMPDEST SWAP2 POP POP SWAP3 SWAP2 POP POP JUMP JUMPDEST PUSH0 DUP1 PUSH1 0x40 DUP4 DUP6 SUB SLT ISZERO PUSH2 0x268 JUMPI PUSH2 0x267 PUSH2 0x10E JUMP JUMPDEST JUMPDEST PUSH0 DUP4 ADD MLOAD PUSH8 0xFFFFFFFFFFFFFFFF DUP2 GT ISZERO PUSH2 0x285 JUMPI PUSH2 0x284 PUSH2 0x112 JUMP JUMPDEST JUMPDEST PUSH2 0x291 DUP6 DUP3 DUP7 ADD PUSH2 0x225 JUMP JUMPDEST SWAP3 POP POP PUSH1 0x20 DUP4 ADD MLOAD PUSH8 0xFFFFFFFFFFFFFFFF DUP2 GT ISZERO PUSH2 0x2B2 JUMPI PUSH2 0x2B1 PUSH2 0x112 JUMP JUMPDEST JUMPDEST PUSH2 0x2BE DUP6 DUP3 DUP7 ADD PUSH2 0x225 JUMP JUMPDEST SWAP2 POP POP SWAP3 POP SWAP3 SWAP1 POP JUMP JUMPDEST PUSH0 DUP2 MLOAD SWAP1 POP SWAP2 SWAP1 POP JUMP JUMPDEST PUSH32 0x4E487B7100000000000000000000000000000000000000000000000000000000 PUSH0 MSTORE PUSH1 0x22 PUSH1 0x4 MSTORE PUSH1 0x24 PUSH0 REVERT JUMPDEST PUSH0 PUSH1 0x2 DUP3 DIV SWAP1 POP PUSH1 0x1 DUP3 AND DUP1 PUSH2 0x316 JUMPI PUSH1 0x7F DUP3 AND SWAP2 POP JUMPDEST PUSH1 0x20 DUP3 LT DUP2 SUB PUSH2 0x329 JUMPI PUSH2 0x328 PUSH2 0x2D2 JUMP JUMPDEST JUMPDEST POP SWAP2 SWAP1 POP JUMP JUMPDEST PUSH0 DUP2 SWAP1 POP DUP2 PUSH0 MSTORE PUSH1 0x20 PUSH0 KECCAK256 SWAP1 POP SWAP2 SWAP1 POP JUMP JUMPDEST PUSH0 PUSH1 0x20 PUSH1 0x1F DUP4 ADD DIV SWAP1 POP SWAP2 SWAP1 POP JUMP JUMPDEST PUSH0 DUP3 DUP3 SHL SWAP1 POP SWAP3 SWAP2 POP POP JUMP JUMPDEST PUSH0 PUSH1 0x8 DUP4 MUL PUSH2 0x38B PUSH32 0xFFFFFFFFFFFFFFFFFFFFFFFFFFFFFFFFFFFFFFFFFFFFFFFFFFFFFFFFFFFFFFFF DUP3 PUSH2 0x350 JUMP JUMPDEST PUSH2 0x395 DUP7 DUP4 PUSH2 0x350 JUMP JUMPDEST SWAP6 POP DUP1 NOT DUP5 AND SWAP4 POP DUP1 DUP7 AND DUP5 OR SWAP3 POP POP POP SWAP4 SWAP3 POP POP POP JUMP JUMPDEST PUSH0 DUP2 SWAP1 POP SWAP2 SWAP1 POP JUMP JUMPDEST PUSH0 DUP2 SWAP1 POP SWAP2 SWAP1 POP JUMP JUMPDEST PUSH0 PUSH2 0x3D9 PUSH2 0x3D4 PUSH2 0x3CF DUP5 PUSH2 0x3AD JUMP JUMPDEST PUSH2 0x3B6 JUMP JUMPDEST PUSH2 0x3AD JUMP JUMPDEST SWAP1 POP SWAP2 SWAP1 POP JUMP JUMPDEST PUSH0 DUP2 SWAP1 POP SWAP2 SWAP1 POP JUMP JUMPDEST PUSH2 0x3F2 DUP4 PUSH2 0x3BF JUMP JUMPDEST PUSH2 0x406 PUSH2 0x3FE DUP3 PUSH2 0x3E0 JUMP JUMPDEST DUP5 DUP5 SLOAD PUSH2 0x35C JUMP JUMPDEST DUP3 SSTORE POP POP POP POP JUMP JUMPDEST PUSH0 SWAP1 JUMP JUMPDEST PUSH2 0x41A PUSH2 0x40E JUMP JUMPDEST PUSH2 0x425 DUP2 DUP5 DUP5 PUSH2 0x3E9 JUMP JUMPDEST POP POP POP JUMP JUMPDEST JUMPDEST DUP2 DUP2 LT ISZERO PUSH2 0x448 JUMPI PUSH2 0x43D PUSH0 DUP3 PUSH2 0x412 JUMP JUMPDEST PUSH1 0x1 DUP2 ADD SWAP1 POP PUSH2 0x42B JUMP JUMPDEST POP POP JUMP JUMPDEST PUSH1 0x1F DUP3 GT ISZERO PUSH2 0x48D JUMPI PUSH2 0x45E DUP2 PUSH2 0x32F JUMP JUMPDEST PUSH2 0x467 DUP5 PUSH2 0x341 JUMP JUMPDEST DUP2 ADD PUSH1 0x20 DUP6 LT ISZERO PUSH2 0x476 JUMPI DUP2 SWAP1 POP JUMPDEST PUSH2 0x48A PUSH2 0x482 DUP6 PUSH2 0x341 JUMP JUMPDEST DUP4 ADD DUP3 PUSH2 0x42A JUMP JUMPDEST POP POP JUMPDEST POP POP POP JUMP JUMPDEST PUSH0 DUP3 DUP3 SHR SWAP1 POP SWAP3 SWAP2 POP POP JUMP JUMPDEST PUSH0 PUSH2 0x4AD PUSH0 NOT DUP5 PUSH1 0x8 MUL PUSH2 0x492 JUMP JUMPDEST NOT DUP1 DUP4 AND SWAP2 POP POP SWAP3 SWAP2 POP POP JUMP JUMPDEST PUSH0 PUSH2 0x4C5 DUP4 DUP4 PUSH2 0x49E JUMP JUMPDEST SWAP2 POP DUP3 PUSH1 0x2 MUL DUP3 OR SWAP1 POP SWAP3 SWAP2 POP POP JUMP JUMPDEST PUSH2 0x4DE DUP3 PUSH2 0x2C8 JUMP JUMPDEST PUSH8 0xFFFFFFFFFFFFFFFF DUP2 GT ISZERO PUSH2 0x4F7 JUMPI PUSH2 0x4F6 PUSH2 0x12E JUMP JUMPDEST JUMPDEST PUSH2 0x501 DUP3 SLOAD PUSH2 0x2FF JUMP JUMPDEST PUSH2 0x50C DUP3 DUP3 DUP6 PUSH2 0x44C JUMP JUMPDEST PUSH0 PUSH1 0x20 SWAP1 POP PUSH1 0x1F DUP4 GT PUSH1 0x1 DUP2 EQ PUSH2 0x53D JUMPI PUSH0 DUP5 ISZERO PUSH2 0x52B JUMPI DUP3 DUP8 ADD MLOAD SWAP1 POP JUMPDEST PUSH2 0x535 DUP6 DUP3 PUSH2 0x4BA JUMP JUMPDEST DUP7 SSTORE POP PUSH2 0x59C JUMP JUMPDEST PUSH1 0x1F NOT DUP5 AND PUSH2 0x54B DUP7 PUSH2 0x32F JUMP JUMPDEST PUSH0 JUMPDEST DUP3 DUP2 LT ISZERO PUSH2 0x572 JUMPI DUP5 DUP10 ADD MLOAD DUP3 SSTORE PUSH1 0x1 DUP3 ADD SWAP2 POP PUSH1 0x20 DUP6 ADD SWAP5 POP PUSH1 0x20 DUP2 ADD SWAP1 POP PUSH2 0x54D JUMP JUMPDEST DUP7 DUP4 LT ISZERO PUSH2 0x58F JUMPI DUP5 DUP10 ADD MLOAD PUSH2 0x58B PUSH1 0x1F DUP10 AND DUP3 PUSH2 0x49E JUMP JUMPDEST DUP4 SSTORE POP JUMPDEST PUSH1 0x1 PUSH1 0x2 DUP9 MUL ADD DUP9 SSTORE POP POP POP JUMPDEST POP POP POP POP POP POP JUMP JUMPDEST PUSH2 0x44D9 DUP1 PUSH2 0x5B1 PUSH0 CODECOPY PUSH0 RETURN INVALID PUSH1 0x80 PUSH1 0x40 MSTORE CALLVALUE DUP1 ISZERO PUSH2 0xF JUMPI PUSH0 DUP1 REVERT JUMPDEST POP PUSH1 0x4 CALLDATASIZE LT PUSH2 0x1E3 JUMPI PUSH0 CALLDATALOAD PUSH1 0xE0 SHR DUP1 PUSH4 0x6A846CE6 GT PUSH2 0x10D JUMPI DUP1 PUSH4 0xB09CC751 GT PUSH2 0xA0 JUMPI DUP1 PUSH4 0xCF222C73 GT PUSH2 0x6F JUMPI DUP1 PUSH4 0xCF222C73 EQ PUSH2 0x560 JUMPI DUP1 PUSH4 0xDD62ED3E EQ PUSH2 0x57C JUMPI DUP1 PUSH4 0xE6DB189F EQ PUSH2 0x5AC JUMPI DUP1 PUSH4 0xFA3D888E EQ PUSH2 0x5E0 JUMPI PUSH2 0x1E3 JUMP JUMPDEST DUP1 PUSH4 0xB09CC751 EQ PUSH2 0x4D6 JUMPI DUP1 PUSH4 0xC3B49D04 EQ PUSH2 0x4E0 JUMPI DUP1 PUSH4 0xCABA8EB0 EQ PUSH2 0x510 JUMPI DUP1 PUSH4 0xCE79EF03 EQ PUSH2 0x544 JUMPI PUSH2 0x1E3 JUMP JUMPDEST DUP1 PUSH4 0x79CC6790 GT PUSH2 0xDC JUMPI DUP1 PUSH4 0x79CC6790 EQ PUSH2 0x450 JUMPI DUP1 PUSH4 0x7F06ECC9 EQ PUSH2 0x46C JUMPI DUP1 PUSH4 0x95D89B41 EQ PUSH2 0x488 JUMPI DUP1 PUSH4 0xA9059CBB EQ PUSH2 0x4A6 JUMPI PUSH2 0x1E3 JUMP JUMPDEST DUP1 PUSH4 0x6A846CE6 EQ PUSH2 0x3B0 JUMPI DUP1 PUSH4 0x70A08231 EQ PUSH2 0x3E4 JUMPI DUP1 PUSH4 0x73E29B0D EQ PUSH2 0x414 JUMPI DUP1 PUSH4 0x786E49B9 EQ PUSH2 0x432 JUMPI PUSH2 0x1E3 JUMP JUMPDEST DUP1 PUSH4 0x2AB09D14 GT PUSH2 0x185 JUMPI DUP1 PUSH4 0x42966C68 GT PUSH2 0x154 JUMPI DUP1 PUSH4 0x42966C68 EQ PUSH2 0x350 JUMPI DUP1 PUSH4 0x4D853EE5 EQ PUSH2 0x36C JUMPI DUP1 PUSH4 0x649AB831 EQ PUSH2 0x38A JUMPI DUP1 PUSH4 0x696A6C16 EQ PUSH2 0x394 JUMPI PUSH2 0x1E3 JUMP JUMPDEST DUP1 PUSH4 0x2AB09D14 EQ PUSH2 0x2EE JUMPI DUP1 PUSH4 0x313CE567 EQ PUSH2 0x30C JUMPI DUP1 PUSH4 0x362E496B EQ PUSH2 0x32A JUMPI DUP1 PUSH4 0x38FEA726 EQ PUSH2 0x334 JUMPI PUSH2 0x1E3 JUMP JUMPDEST DUP1 PUSH4 0x11EAC855 GT PUSH2 0x1C1 JUMPI DUP1 PUSH4 0x11EAC855 EQ PUSH2 0x266 JUMPI DUP1 PUSH4 0x18160DDD EQ PUSH2 0x284 JUMPI DUP1 PUSH4 0x1EFAD766 EQ PUSH2 0x2A2 JUMPI DUP1 PUSH4 0x23B872DD EQ PUSH2 0x2BE JUMPI PUSH2 0x1E3 JUMP JUMPDEST DUP1 PUSH4 0x6FDDE03 EQ PUSH2 0x1E7 JUMPI DUP1 PUSH4 0x95EA7B3 EQ PUSH2 0x205 JUMPI DUP1 PUSH4 0x10CE5C3F EQ PUSH2 0x235 JUMPI JUMPDEST PUSH0 DUP1 REVERT JUMPDEST PUSH2 0x1EF PUSH2 0x610 JUMP JUMPDEST PUSH1 0x40 MLOAD PUSH2 0x1FC SWAP2 SWAP1 PUSH2 0x30F4 JUMP JUMPDEST PUSH1 0x40 MLOAD DUP1 SWAP2 SUB SWAP1 RETURN JUMPDEST PUSH2 0x21F PUSH1 0x4 DUP1 CALLDATASIZE SUB DUP2 ADD SWAP1 PUSH2 0x21A SWAP2 SWAP1 PUSH2 0x31A5 JUMP JUMPDEST PUSH2 0x6A0 JUMP JUMPDEST PUSH1 0x40 MLOAD PUSH2 0x22C SWAP2 SWAP1 PUSH2 0x31FD JUMP JUMPDEST PUSH1 0x40 MLOAD DUP1 SWAP2 SUB SWAP1 RETURN JUMPDEST PUSH2 0x24F PUSH1 0x4 DUP1 CALLDATASIZE SUB DUP2 ADD SWAP1 PUSH2 0x24A SWAP2 SWAP1 PUSH2 0x3216 JUMP JUMPDEST PUSH2 0x6C2 JUMP JUMPDEST PUSH1 0x40 MLOAD PUSH2 0x25D SWAP3 SWAP2 SWAP1 PUSH2 0x3250 JUMP JUMPDEST PUSH1 0x40 MLOAD DUP1 SWAP2 SUB SWAP1 RETURN JUMPDEST PUSH2 0x26E PUSH2 0x70D JUMP JUMPDEST PUSH1 0x40 MLOAD PUSH2 0x27B SWAP2 SWAP1 PUSH2 0x32D2 JUMP JUMPDEST PUSH1 0x40 MLOAD DUP1 SWAP2 SUB SWAP1 RETURN JUMPDEST PUSH2 0x28C PUSH2 0x732 JUMP JUMPDEST PUSH1 0x40 MLOAD PUSH2 0x299 SWAP2 SWAP1 PUSH2 0x32FA JUMP JUMPDEST PUSH1 0x40 MLOAD DUP1 SWAP2 SUB SWAP1 RETURN JUMPDEST PUSH2 0x2BC PUSH1 0x4 DUP1 CALLDATASIZE SUB DUP2 ADD SWAP1 PUSH2 0x2B7 SWAP2 SWAP1 PUSH2 0x3313 JUMP JUMPDEST PUSH2 0x73B JUMP JUMPDEST STOP JUMPDEST PUSH2 0x2D8 PUSH1 0x4 DUP1 CALLDATASIZE SUB DUP2 ADD SWAP1 PUSH2 0x2D3 SWAP2 SWAP1 PUSH2 0x333E JUMP JUMPDEST PUSH2 0x912 JUMP JUMPDEST PUSH1 0x40 MLOAD PUSH2 0x2E5 SWAP2 SWAP1 PUSH2 0x31FD JUMP JUMPDEST PUSH1 0x40 MLOAD DUP1 SWAP2 SUB SWAP1 RETURN JUMPDEST PUSH2 0x2F6 PUSH2 0x940 JUMP JUMPDEST PUSH1 0x40 MLOAD PUSH2 0x303 SWAP2 SWAP1 PUSH2 0x32FA JUMP JUMPDEST PUSH1 0x40 MLOAD DUP1 SWAP2 SUB SWAP1 RETURN JUMPDEST PUSH2 0x314 PUSH2 0x946 JUMP JUMPDEST PUSH1 0x40 MLOAD PUSH2 0x321 SWAP2 SWAP1 PUSH2 0x33A9 JUMP JUMPDEST PUSH1 0x40 MLOAD DUP1 SWAP2 SUB SWAP1 RETURN JUMPDEST PUSH2 0x332 PUSH2 0x94E JUMP JUMPDEST STOP JUMPDEST PUSH2 0x34E PUSH1 0x4 DUP1 CALLDATASIZE SUB DUP2 ADD SWAP1 PUSH2 0x349 SWAP2 SWAP1 PUSH2 0x33C2 JUMP JUMPDEST PUSH2 0xB4E JUMP JUMPDEST STOP JUMPDEST PUSH2 0x36A PUSH1 0x4 DUP1 CALLDATASIZE SUB DUP2 ADD SWAP1 PUSH2 0x365 SWAP2 SWAP1 PUSH2 0x3216 JUMP JUMPDEST PUSH2 0xD90 JUMP JUMPDEST STOP JUMPDEST PUSH2 0x374 PUSH2 0xDA4 JUMP JUMPDEST PUSH1 0x40 MLOAD PUSH2 0x381 SWAP2 SWAP1 PUSH2 0x3400 JUMP JUMPDEST PUSH1 0x40 MLOAD DUP1 SWAP2 SUB SWAP1 RETURN JUMPDEST PUSH2 0x392 PUSH2 0xDC9 JUMP JUMPDEST STOP JUMPDEST PUSH2 0x3AE PUSH1 0x4 DUP1 CALLDATASIZE SUB DUP2 ADD SWAP1 PUSH2 0x3A9 SWAP2 SWAP1 PUSH2 0x3419 JUMP JUMPDEST PUSH2 0xEDC JUMP JUMPDEST STOP JUMPDEST PUSH2 0x3CA PUSH1 0x4 DUP1 CALLDATASIZE SUB DUP2 ADD SWAP1 PUSH2 0x3C5 SWAP2 SWAP1 PUSH2 0x3313 JUMP JUMPDEST PUSH2 0x117E JUMP JUMPDEST PUSH1 0x40 MLOAD PUSH2 0x3DB SWAP6 SWAP5 SWAP4 SWAP3 SWAP2 SWAP1 PUSH2 0x347D JUMP JUMPDEST PUSH1 0x40 MLOAD DUP1 SWAP2 SUB SWAP1 RETURN JUMPDEST PUSH2 0x3FE PUSH1 0x4 DUP1 CALLDATASIZE SUB DUP2 ADD SWAP1 PUSH2 0x3F9 SWAP2 SWAP1 PUSH2 0x3313 JUMP JUMPDEST PUSH2 0x11FB JUMP JUMPDEST PUSH1 0x40 MLOAD PUSH2 0x40B SWAP2 SWAP1 PUSH2 0x32FA JUMP JUMPDEST PUSH1 0x40 MLOAD DUP1 SWAP2 SUB SWAP1 RETURN JUMPDEST PUSH2 0x41C PUSH2 0x1240 JUMP JUMPDEST PUSH1 0x40 MLOAD PUSH2 0x429 SWAP2 SWAP1 PUSH2 0x3585 JUMP JUMPDEST PUSH1 0x40 MLOAD DUP1 SWAP2 SUB SWAP1 RETURN JUMPDEST PUSH2 0x43A PUSH2 0x12CB JUMP JUMPDEST PUSH1 0x40 MLOAD PUSH2 0x447 SWAP2 SWAP1 PUSH2 0x36D1 JUMP JUMPDEST PUSH1 0x40 MLOAD DUP1 SWAP2 SUB SWAP1 RETURN JUMPDEST PUSH2 0x46A PUSH1 0x4 DUP1 CALLDATASIZE SUB DUP2 ADD SWAP1 PUSH2 0x465 SWAP2 SWAP1 PUSH2 0x31A5 JUMP JUMPDEST PUSH2 0x161C JUMP JUMPDEST STOP JUMPDEST PUSH2 0x486 PUSH1 0x4 DUP1 CALLDATASIZE SUB DUP2 ADD SWAP1 PUSH2 0x481 SWAP2 SWAP1 PUSH2 0x3216 JUMP JUMPDEST PUSH2 0x163C JUMP JUMPDEST STOP JUMPDEST PUSH2 0x490 PUSH2 0x19C2 JUMP JUMPDEST PUSH1 0x40 MLOAD PUSH2 0x49D SWAP2 SWAP1 PUSH2 0x30F4 JUMP JUMPDEST PUSH1 0x40 MLOAD DUP1 SWAP2 SUB SWAP1 RETURN JUMPDEST PUSH2 0x4C0 PUSH1 0x4 DUP1 CALLDATASIZE SUB DUP2 ADD SWAP1 PUSH2 0x4BB SWAP2 SWAP1 PUSH2 0x31A5 JUMP JUMPDEST PUSH2 0x1A52 JUMP JUMPDEST PUSH1 0x40 MLOAD PUSH2 0x4CD SWAP2 SWAP1 PUSH2 0x31FD JUMP JUMPDEST PUSH1 0x40 MLOAD DUP1 SWAP2 SUB SWAP1 RETURN JUMPDEST PUSH2 0x4DE PUSH2 0x1A74 JUMP JUMPDEST STOP JUMPDEST PUSH2 0x4FA PUSH1 0x4 DUP1 CALLDATASIZE SUB DUP2 ADD SWAP1 PUSH2 0x4F5 SWAP2 SWAP1 PUSH2 0x3216 JUMP JUMPDEST PUSH2 0x1B33 JUMP JUMPDEST PUSH1 0x40 MLOAD PUSH2 0x507 SWAP2 SWAP1 PUSH2 0x3400 JUMP JUMPDEST PUSH1 0x40 MLOAD DUP1 SWAP2 SUB SWAP1 RETURN JUMPDEST PUSH2 0x52A PUSH1 0x4 DUP1 CALLDATASIZE SUB DUP2 ADD SWAP1 PUSH2 0x525 SWAP2 SWAP1 PUSH2 0x3313 JUMP JUMPDEST PUSH2 0x1B6E JUMP JUMPDEST PUSH1 0x40 MLOAD PUSH2 0x53B SWAP6 SWAP5 SWAP4 SWAP3 SWAP2 SWAP1 PUSH2 0x36F1 JUMP JUMPDEST PUSH1 0x40 MLOAD DUP1 SWAP2 SUB SWAP1 RETURN JUMPDEST PUSH2 0x55E PUSH1 0x4 DUP1 CALLDATASIZE SUB DUP2 ADD SWAP1 PUSH2 0x559 SWAP2 SWAP1 PUSH2 0x3313 JUMP JUMPDEST PUSH2 0x1BA0 JUMP JUMPDEST STOP JUMPDEST PUSH2 0x57A PUSH1 0x4 DUP1 CALLDATASIZE SUB DUP2 ADD SWAP1 PUSH2 0x575 SWAP2 SWAP1 PUSH2 0x3216 JUMP JUMPDEST PUSH2 0x1E8E JUMP JUMPDEST STOP JUMPDEST PUSH2 0x596 PUSH1 0x4 DUP1 CALLDATASIZE SUB DUP2 ADD SWAP1 PUSH2 0x591 SWAP2 SWAP1 PUSH2 0x3742 JUMP JUMPDEST PUSH2 0x2245 JUMP JUMPDEST PUSH1 0x40 MLOAD PUSH2 0x5A3 SWAP2 SWAP1 PUSH2 0x32FA JUMP JUMPDEST PUSH1 0x40 MLOAD DUP1 SWAP2 SUB SWAP1 RETURN JUMPDEST PUSH2 0x5C6 PUSH1 0x4 DUP1 CALLDATASIZE SUB DUP2 ADD SWAP1 PUSH2 0x5C1 SWAP2 SWAP1 PUSH2 0x3216 JUMP JUMPDEST PUSH2 0x22C7 JUMP JUMPDEST PUSH1 0x40 MLOAD PUSH2 0x5D7 SWAP6 SWAP5 SWAP4 SWAP3 SWAP2 SWAP1 PUSH2 0x3780 JUMP JUMPDEST PUSH1 0x40 MLOAD DUP1 SWAP2 SUB SWAP1 RETURN JUMPDEST PUSH2 0x5FA PUSH1 0x4 DUP1 CALLDATASIZE SUB DUP2 ADD SWAP1 PUSH2 0x5F5 SWAP2 SWAP1 PUSH2 0x3313 JUMP JUMPDEST PUSH2 0x2324 JUMP JUMPDEST PUSH1 0x40 MLOAD PUSH2 0x607 SWAP2 SWAP1 PUSH2 0x32FA JUMP JUMPDEST PUSH1 0x40 MLOAD DUP1 SWAP2 SUB SWAP1 RETURN JUMPDEST PUSH1 0x60 PUSH1 0x3 DUP1 SLOAD PUSH2 0x61F SWAP1 PUSH2 0x37FE JUMP JUMPDEST DUP1 PUSH1 0x1F ADD PUSH1 0x20 DUP1 SWAP2 DIV MUL PUSH1 0x20 ADD PUSH1 0x40 MLOAD SWAP1 DUP2 ADD PUSH1 0x40 MSTORE DUP1 SWAP3 SWAP2 SWAP1 DUP2 DUP2 MSTORE PUSH1 0x20 ADD DUP3 DUP1 SLOAD PUSH2 0x64B SWAP1 PUSH2 0x37FE JUMP JUMPDEST DUP1 ISZERO PUSH2 0x696 JUMPI DUP1 PUSH1 0x1F LT PUSH2 0x66D JUMPI PUSH2 0x100 DUP1 DUP4 SLOAD DIV MUL DUP4 MSTORE SWAP2 PUSH1 0x20 ADD SWAP2 PUSH2 0x696 JUMP JUMPDEST DUP3 ADD SWAP2 SWAP1 PUSH0 MSTORE PUSH1 0x20 PUSH0 KECCAK256 SWAP1 JUMPDEST DUP2 SLOAD DUP2 MSTORE SWAP1 PUSH1 0x1 ADD SWAP1 PUSH1 0x20 ADD DUP1 DUP4 GT PUSH2 0x679 JUMPI DUP3 SWAP1 SUB PUSH1 0x1F AND DUP3 ADD SWAP2 JUMPDEST POP POP POP POP POP SWAP1 POP SWAP1 JUMP JUMPDEST PUSH0 DUP1 PUSH2 0x6AA PUSH2 0x240D JUMP JUMPDEST SWAP1 POP PUSH2 0x6B7 DUP2 DUP6 DUP6 PUSH2 0x2414 JUMP JUMPDEST PUSH1 0x1 SWAP2 POP POP SWAP3 SWAP2 POP POP JUMP JUMPDEST PUSH1 0xB PUSH1 0x20 MSTORE DUP1 PUSH0 MSTORE PUSH1 0x40 PUSH0 KECCAK256 PUSH0 SWAP2 POP SWAP1 POP DUP1 PUSH0 ADD PUSH0 SWAP1 SLOAD SWAP1 PUSH2 0x100 EXP SWAP1 DIV PUSH20 0xFFFFFFFFFFFFFFFFFFFFFFFFFFFFFFFFFFFFFFFF AND SWAP1 DUP1 PUSH0 ADD PUSH1 0x14 SWAP1 SLOAD SWAP1 PUSH2 0x100 EXP SWAP1 DIV PUSH1 0xFF AND SWAP1 POP DUP3 JUMP JUMPDEST PUSH1 0x6 PUSH0 SWAP1 SLOAD SWAP1 PUSH2 0x100 EXP SWAP1 DIV PUSH20 0xFFFFFFFFFFFFFFFFFFFFFFFFFFFFFFFFFFFFFFFF AND DUP2 JUMP JUMPDEST PUSH0 PUSH1 0x2 SLOAD SWAP1 POP SWAP1 JUMP JUMPDEST PUSH1 0x8 PUSH0 SWAP1 SLOAD SWAP1 PUSH2 0x100 EXP SWAP1 DIV PUSH20 0xFFFFFFFFFFFFFFFFFFFFFFFFFFFFFFFFFFFFFFFF AND PUSH20 0xFFFFFFFFFFFFFFFFFFFFFFFFFFFFFFFFFFFFFFFF AND CALLER PUSH20 0xFFFFFFFFFFFFFFFFFFFFFFFFFFFFFFFFFFFFFFFF AND EQ DUP1 PUSH2 0x79D JUMPI POP PUSH0 PUSH2 0x79B CALLER PUSH2 0x11FB JUMP JUMPDEST GT JUMPDEST PUSH2 0x7DC JUMPI PUSH1 0x40 MLOAD PUSH32 0x8C379A000000000000000000000000000000000000000000000000000000000 DUP2 MSTORE PUSH1 0x4 ADD PUSH2 0x7D3 SWAP1 PUSH2 0x389E JUMP JUMPDEST PUSH1 0x40 MLOAD DUP1 SWAP2 SUB SWAP1 REVERT JUMPDEST PUSH0 PUSH20 0xFFFFFFFFFFFFFFFFFFFFFFFFFFFFFFFFFFFFFFFF AND DUP2 PUSH20 0xFFFFFFFFFFFFFFFFFFFFFFFFFFFFFFFFFFFFFFFF AND SUB PUSH2 0x84A JUMPI PUSH1 0x40 MLOAD PUSH32 0x8C379A000000000000000000000000000000000000000000000000000000000 DUP2 MSTORE PUSH1 0x4 ADD PUSH2 0x841 SWAP1 PUSH2 0x3906 JUMP JUMPDEST PUSH1 0x40 MLOAD DUP1 SWAP2 SUB SWAP1 REVERT JUMPDEST PUSH0 PUSH1 0xB PUSH0 PUSH1 0xD SLOAD DUP2 MSTORE PUSH1 0x20 ADD SWAP1 DUP2 MSTORE PUSH1 0x20 ADD PUSH0 KECCAK256 SWAP1 POP DUP2 DUP2 PUSH0 ADD PUSH0 PUSH2 0x100 EXP DUP2 SLOAD DUP2 PUSH20 0xFFFFFFFFFFFFFFFFFFFFFFFFFFFFFFFFFFFFFFFF MUL NOT AND SWAP1 DUP4 PUSH20 0xFFFFFFFFFFFFFFFFFFFFFFFFFFFFFFFFFFFFFFFF AND MUL OR SWAP1 SSTORE POP PUSH0 DUP2 PUSH0 ADD PUSH1 0x14 PUSH2 0x100 EXP DUP2 SLOAD DUP2 PUSH1 0xFF MUL NOT AND SWAP1 DUP4 ISZERO ISZERO MUL OR SWAP1 SSTORE POP PUSH32 0xB5898382BB4BEB014484B0E973D5AB62E7A1693284959BDD671B6F81181F197 PUSH1 0xD SLOAD DUP4 PUSH1 0x40 MLOAD PUSH2 0x8EF SWAP3 SWAP2 SWAP1 PUSH2 0x3924 JUMP JUMPDEST PUSH1 0x40 MLOAD DUP1 SWAP2 SUB SWAP1 LOG1 PUSH1 0xD PUSH0 DUP2 SLOAD DUP1 SWAP3 SWAP2 SWAP1 PUSH2 0x909 SWAP1 PUSH2 0x3978 JUMP JUMPDEST SWAP2 SWAP1 POP SSTORE POP POP POP JUMP JUMPDEST PUSH0 DUP1 PUSH2 0x91C PUSH2 0x240D JUMP JUMPDEST SWAP1 POP PUSH2 0x929 DUP6 DUP3 DUP6 PUSH2 0x2426 JUMP JUMPDEST PUSH2 0x934 DUP6 DUP6 DUP6 PUSH2 0x24B8 JUMP JUMPDEST PUSH1 0x1 SWAP2 POP POP SWAP4 SWAP3 POP POP POP JUMP JUMPDEST PUSH1 0xD SLOAD DUP2 JUMP JUMPDEST PUSH0 PUSH1 0x2 SWAP1 POP SWAP1 JUMP JUMPDEST PUSH2 0x956 PUSH2 0x25A8 JUMP JUMPDEST PUSH0 PUSH2 0x960 CALLER PUSH2 0x11FB JUMP JUMPDEST SWAP1 POP PUSH0 DUP2 GT PUSH2 0x9A4 JUMPI PUSH1 0x40 MLOAD PUSH32 0x8C379A000000000000000000000000000000000000000000000000000000000 DUP2 MSTORE PUSH1 0x4 ADD PUSH2 0x99B SWAP1 PUSH2 0x3A09 JUMP JUMPDEST PUSH1 0x40 MLOAD DUP1 SWAP2 SUB SWAP1 REVERT JUMPDEST PUSH0 PUSH2 0x9AD PUSH2 0x732 JUMP JUMPDEST SWAP1 POP PUSH0 PUSH1 0x6 PUSH0 SWAP1 SLOAD SWAP1 PUSH2 0x100 EXP SWAP1 DIV PUSH20 0xFFFFFFFFFFFFFFFFFFFFFFFFFFFFFFFFFFFFFFFF AND PUSH20 0xFFFFFFFFFFFFFFFFFFFFFFFFFFFFFFFFFFFFFFFF AND PUSH4 0x70A08231 ADDRESS PUSH1 0x40 MLOAD DUP3 PUSH4 0xFFFFFFFF AND PUSH1 0xE0 SHL DUP2 MSTORE PUSH1 0x4 ADD PUSH2 0xA0A SWAP2 SWAP1 PUSH2 0x3400 JUMP JUMPDEST PUSH1 0x20 PUSH1 0x40 MLOAD DUP1 DUP4 SUB DUP2 DUP7 GAS STATICCALL ISZERO DUP1 ISZERO PUSH2 0xA25 JUMPI RETURNDATASIZE PUSH0 DUP1 RETURNDATACOPY RETURNDATASIZE PUSH0 REVERT JUMPDEST POP POP POP POP PUSH1 0x40 MLOAD RETURNDATASIZE PUSH1 0x1F NOT PUSH1 0x1F DUP3 ADD AND DUP3 ADD DUP1 PUSH1 0x40 MSTORE POP DUP2 ADD SWAP1 PUSH2 0xA49 SWAP2 SWAP1 PUSH2 0x3A3B JUMP JUMPDEST SWAP1 POP PUSH0 DUP3 DUP5 DUP4 PUSH2 0xA59 SWAP2 SWAP1 PUSH2 0x3A66 JUMP JUMPDEST PUSH2 0xA63 SWAP2 SWAP1 PUSH2 0x3AD4 JUMP JUMPDEST SWAP1 POP PUSH1 0x6 PUSH0 SWAP1 SLOAD SWAP1 PUSH2 0x100 EXP SWAP1 DIV PUSH20 0xFFFFFFFFFFFFFFFFFFFFFFFFFFFFFFFFFFFFFFFF AND PUSH20 0xFFFFFFFFFFFFFFFFFFFFFFFFFFFFFFFFFFFFFFFF AND PUSH4 0xA9059CBB CALLER DUP4 PUSH1 0x40 MLOAD DUP4 PUSH4 0xFFFFFFFF AND PUSH1 0xE0 SHL DUP2 MSTORE PUSH1 0x4 ADD PUSH2 0xAC1 SWAP3 SWAP2 SWAP1 PUSH2 0x3B04 JUMP JUMPDEST PUSH1 0x20 PUSH1 0x40 MLOAD DUP1 DUP4 SUB DUP2 PUSH0 DUP8 GAS CALL ISZERO DUP1 ISZERO PUSH2 0xADD JUMPI RETURNDATASIZE PUSH0 DUP1 RETURNDATACOPY RETURNDATASIZE PUSH0 REVERT JUMPDEST POP POP POP POP PUSH1 0x40 MLOAD RETURNDATASIZE PUSH1 0x1F NOT PUSH1 0x1F DUP3 ADD AND DUP3 ADD DUP1 PUSH1 0x40 MSTORE POP DUP2 ADD SWAP1 PUSH2 0xB01 SWAP2 SWAP1 PUSH2 0x3B55 JUMP JUMPDEST PUSH2 0xB40 JUMPI PUSH1 0x40 MLOAD PUSH32 0x8C379A000000000000000000000000000000000000000000000000000000000 DUP2 MSTORE PUSH1 0x4 ADD PUSH2 0xB37 SWAP1 PUSH2 0x3BCA JUMP JUMPDEST PUSH1 0x40 MLOAD DUP1 SWAP2 SUB SWAP1 REVERT JUMPDEST POP POP POP POP PUSH2 0xB4C PUSH2 0x25F7 JUMP JUMPDEST JUMP JUMPDEST PUSH2 0xB56 PUSH2 0x25A8 JUMP JUMPDEST PUSH0 DUP3 GT PUSH2 0xB98 JUMPI PUSH1 0x40 MLOAD PUSH32 0x8C379A000000000000000000000000000000000000000000000000000000000 DUP2 MSTORE PUSH1 0x4 ADD PUSH2 0xB8F SWAP1 PUSH2 0x3C32 JUMP JUMPDEST PUSH1 0x40 MLOAD DUP1 SWAP2 SUB SWAP1 REVERT JUMPDEST PUSH0 DUP2 GT PUSH2 0xBDA JUMPI PUSH1 0x40 MLOAD PUSH32 0x8C379A000000000000000000000000000000000000000000000000000000000 DUP2 MSTORE PUSH1 0x4 ADD PUSH2 0xBD1 SWAP1 PUSH2 0x3C9A JUMP JUMPDEST PUSH1 0x40 MLOAD DUP1 SWAP2 SUB SWAP1 REVERT JUMPDEST DUP2 PUSH2 0xBE4 CALLER PUSH2 0x11FB JUMP JUMPDEST LT ISZERO PUSH2 0xC25 JUMPI PUSH1 0x40 MLOAD PUSH32 0x8C379A000000000000000000000000000000000000000000000000000000000 DUP2 MSTORE PUSH1 0x4 ADD PUSH2 0xC1C SWAP1 PUSH2 0x3D02 JUMP JUMPDEST PUSH1 0x40 MLOAD DUP1 SWAP2 SUB SWAP1 REVERT JUMPDEST PUSH2 0xC30 CALLER ADDRESS DUP5 PUSH2 0x24B8 JUMP JUMPDEST PUSH1 0x40 MLOAD DUP1 PUSH1 0xA0 ADD PUSH1 0x40 MSTORE DUP1 CALLER PUSH20 0xFFFFFFFFFFFFFFFFFFFFFFFFFFFFFFFFFFFFFFFF AND DUP2 MSTORE PUSH1 0x20 ADD DUP4 DUP2 MSTORE PUSH1 0x20 ADD DUP3 DUP2 MSTORE PUSH1 0x20 ADD PUSH0 PUSH20 0xFFFFFFFFFFFFFFFFFFFFFFFFFFFFFFFFFFFFFFFF AND DUP2 MSTORE PUSH1 0x20 ADD PUSH1 0x1 ISZERO ISZERO DUP2 MSTORE POP PUSH1 0xA PUSH0 CALLER PUSH20 0xFFFFFFFFFFFFFFFFFFFFFFFFFFFFFFFFFFFFFFFF AND PUSH20 0xFFFFFFFFFFFFFFFFFFFFFFFFFFFFFFFFFFFFFFFF AND DUP2 MSTORE PUSH1 0x20 ADD SWAP1 DUP2 MSTORE PUSH1 0x20 ADD PUSH0 KECCAK256 PUSH0 DUP3 ADD MLOAD DUP2 PUSH0 ADD PUSH0 PUSH2 0x100 EXP DUP2 SLOAD DUP2 PUSH20 0xFFFFFFFFFFFFFFFFFFFFFFFFFFFFFFFFFFFFFFFF MUL NOT AND SWAP1 DUP4 PUSH20 0xFFFFFFFFFFFFFFFFFFFFFFFFFFFFFFFFFFFFFFFF AND MUL OR SWAP1 SSTORE POP PUSH1 0x20 DUP3 ADD MLOAD DUP2 PUSH1 0x1 ADD SSTORE PUSH1 0x40 DUP3 ADD MLOAD DUP2 PUSH1 0x2 ADD SSTORE PUSH1 0x60 DUP3 ADD MLOAD DUP2 PUSH1 0x3 ADD PUSH0 PUSH2 0x100 EXP DUP2 SLOAD DUP2 PUSH20 0xFFFFFFFFFFFFFFFFFFFFFFFFFFFFFFFFFFFFFFFF MUL NOT AND SWAP1 DUP4 PUSH20 0xFFFFFFFFFFFFFFFFFFFFFFFFFFFFFFFFFFFFFFFF AND MUL OR SWAP1 SSTORE POP PUSH1 0x80 DUP3 ADD MLOAD DUP2 PUSH1 0x3 ADD PUSH1 0x14 PUSH2 0x100 EXP DUP2 SLOAD DUP2 PUSH1 0xFF MUL NOT AND SWAP1 DUP4 ISZERO ISZERO MUL OR SWAP1 SSTORE POP SWAP1 POP POP PUSH2 0xD8C PUSH2 0x25F7 JUMP JUMPDEST POP POP JUMP JUMPDEST PUSH2 0xDA1 PUSH2 0xD9B PUSH2 0x240D JUMP JUMPDEST DUP3 PUSH2 0x2601 JUMP JUMPDEST POP JUMP JUMPDEST PUSH1 0x8 PUSH0 SWAP1 SLOAD SWAP1 PUSH2 0x100 EXP SWAP1 DIV PUSH20 0xFFFFFFFFFFFFFFFFFFFFFFFFFFFFFFFFFFFFFFFF AND DUP2 JUMP JUMPDEST PUSH0 PUSH1 0x9 PUSH0 CALLER PUSH20 0xFFFFFFFFFFFFFFFFFFFFFFFFFFFFFFFFFFFFFFFF AND PUSH20 0xFFFFFFFFFFFFFFFFFFFFFFFFFFFFFFFFFFFFFFFF AND DUP2 MSTORE PUSH1 0x20 ADD SWAP1 DUP2 MSTORE PUSH1 0x20 ADD PUSH0 KECCAK256 SWAP1 POP PUSH0 DUP2 PUSH1 0x1 ADD SLOAD GT PUSH2 0xE4F JUMPI PUSH1 0x40 MLOAD PUSH32 0x8C379A000000000000000000000000000000000000000000000000000000000 DUP2 MSTORE PUSH1 0x4 ADD PUSH2 0xE46 SWAP1 PUSH2 0x3D6A JUMP JUMPDEST PUSH1 0x40 MLOAD DUP1 SWAP2 SUB SWAP1 REVERT JUMPDEST DUP1 PUSH1 0x1 ADD SLOAD DUP2 PUSH1 0x2 ADD SLOAD LT PUSH2 0xE99 JUMPI PUSH1 0x40 MLOAD PUSH32 0x8C379A000000000000000000000000000000000000000000000000000000000 DUP2 MSTORE PUSH1 0x4 ADD PUSH2 0xE90 SWAP1 PUSH2 0x3DF8 JUMP JUMPDEST PUSH1 0x40 MLOAD DUP1 SWAP2 SUB SWAP1 REVERT JUMPDEST PUSH0 DUP2 PUSH1 0x2 ADD SLOAD PUSH2 0xEA8 CALLER PUSH2 0x2324 JUMP JUMPDEST PUSH2 0xEB2 SWAP2 SWAP1 PUSH2 0x3E16 JUMP JUMPDEST SWAP1 POP DUP1 DUP3 PUSH1 0x2 ADD PUSH0 DUP3 DUP3 SLOAD PUSH2 0xEC7 SWAP2 SWAP1 PUSH2 0x3E49 JUMP JUMPDEST SWAP3 POP POP DUP2 SWAP1 SSTORE POP PUSH2 0xED8 CALLER DUP3 PUSH2 0x2680 JUMP JUMPDEST POP POP JUMP JUMPDEST PUSH1 0x8 PUSH0 SWAP1 SLOAD SWAP1 PUSH2 0x100 EXP SWAP1 DIV PUSH20 0xFFFFFFFFFFFFFFFFFFFFFFFFFFFFFFFFFFFFFFFF AND PUSH20 0xFFFFFFFFFFFFFFFFFFFFFFFFFFFFFFFFFFFFFFFF AND CALLER PUSH20 0xFFFFFFFFFFFFFFFFFFFFFFFFFFFFFFFFFFFFFFFF AND EQ DUP1 PUSH2 0xF3E JUMPI POP PUSH0 PUSH2 0xF3C CALLER PUSH2 0x11FB JUMP JUMPDEST GT JUMPDEST PUSH2 0xF7D JUMPI PUSH1 0x40 MLOAD PUSH32 0x8C379A000000000000000000000000000000000000000000000000000000000 DUP2 MSTORE PUSH1 0x4 ADD PUSH2 0xF74 SWAP1 PUSH2 0x389E JUMP JUMPDEST PUSH1 0x40 MLOAD DUP1 SWAP2 SUB SWAP1 REVERT JUMPDEST PUSH0 PUSH20 0xFFFFFFFFFFFFFFFFFFFFFFFFFFFFFFFFFFFFFFFF AND DUP5 PUSH20 0xFFFFFFFFFFFFFFFFFFFFFFFFFFFFFFFFFFFFFFFF AND SUB PUSH2 0xFEB JUMPI PUSH1 0x40 MLOAD PUSH32 0x8C379A000000000000000000000000000000000000000000000000000000000 DUP2 MSTORE PUSH1 0x4 ADD PUSH2 0xFE2 SWAP1 PUSH2 0x3906 JUMP JUMPDEST PUSH1 0x40 MLOAD DUP1 SWAP2 SUB SWAP1 REVERT JUMPDEST PUSH0 PUSH1 0x7 DUP1 SLOAD SWAP1 POP SUB PUSH2 0x1097 JUMPI PUSH1 0x8 PUSH0 SWAP1 SLOAD SWAP1 PUSH2 0x100 EXP SWAP1 DIV PUSH20 0xFFFFFFFFFFFFFFFFFFFFFFFFFFFFFFFFFFFFFFFF AND PUSH20 0xFFFFFFFFFFFFFFFFFFFFFFFFFFFFFFFFFFFFFFFF AND CALLER PUSH20 0xFFFFFFFFFFFFFFFFFFFFFFFFFFFFFFFFFFFFFFFF AND EQ PUSH2 0x1086 JUMPI PUSH1 0x40 MLOAD PUSH32 0x8C379A000000000000000000000000000000000000000000000000000000000 DUP2 MSTORE PUSH1 0x4 ADD PUSH2 0x107D SWAP1 PUSH2 0x3EEC JUMP JUMPDEST PUSH1 0x40 MLOAD DUP1 SWAP2 SUB SWAP1 REVERT JUMPDEST PUSH2 0x1092 DUP5 DUP5 DUP5 DUP5 PUSH2 0x26FF JUMP JUMPDEST PUSH2 0x1178 JUMP JUMPDEST PUSH0 PUSH1 0xC PUSH0 PUSH1 0xD SLOAD DUP2 MSTORE PUSH1 0x20 ADD SWAP1 DUP2 MSTORE PUSH1 0x20 ADD PUSH0 KECCAK256 SWAP1 POP DUP5 DUP2 PUSH0 ADD PUSH0 PUSH2 0x100 EXP DUP2 SLOAD DUP2 PUSH20 0xFFFFFFFFFFFFFFFFFFFFFFFFFFFFFFFFFFFFFFFF MUL NOT AND SWAP1 DUP4 PUSH20 0xFFFFFFFFFFFFFFFFFFFFFFFFFFFFFFFFFFFFFFFF AND MUL OR SWAP1 SSTORE POP DUP4 DUP2 PUSH1 0x1 ADD DUP2 SWAP1 SSTORE POP DUP3 DUP2 PUSH1 0x2 ADD DUP2 SWAP1 SSTORE POP DUP2 DUP2 PUSH1 0x3 ADD DUP2 SWAP1 SSTORE POP PUSH0 DUP2 PUSH1 0x4 ADD PUSH0 PUSH2 0x100 EXP DUP2 SLOAD DUP2 PUSH1 0xFF MUL NOT AND SWAP1 DUP4 ISZERO ISZERO MUL OR SWAP1 SSTORE POP PUSH32 0x4B9E2C669005E09A0B3262274A1DB33DC23FC478202C8CCA8CDD163262C8244 PUSH1 0xD SLOAD DUP7 PUSH1 0x40 MLOAD PUSH2 0x1157 SWAP3 SWAP2 SWAP1 PUSH2 0x3924 JUMP JUMPDEST PUSH1 0x40 MLOAD DUP1 SWAP2 SUB SWAP1 LOG1 PUSH1 0xD PUSH0 DUP2 SLOAD DUP1 SWAP3 SWAP2 SWAP1 PUSH2 0x1171 SWAP1 PUSH2 0x3978 JUMP JUMPDEST SWAP2 SWAP1 POP SSTORE POP POP JUMPDEST POP POP POP POP JUMP JUMPDEST PUSH1 0xA PUSH1 0x20 MSTORE DUP1 PUSH0 MSTORE PUSH1 0x40 PUSH0 KECCAK256 PUSH0 SWAP2 POP SWAP1 POP DUP1 PUSH0 ADD PUSH0 SWAP1 SLOAD SWAP1 PUSH2 0x100 EXP SWAP1 DIV PUSH20 0xFFFFFFFFFFFFFFFFFFFFFFFFFFFFFFFFFFFFFFFF AND SWAP1 DUP1 PUSH1 0x1 ADD SLOAD SWAP1 DUP1 PUSH1 0x2 ADD SLOAD SWAP1 DUP1 PUSH1 0x3 ADD PUSH0 SWAP1 SLOAD SWAP1 PUSH2 0x100 EXP SWAP1 DIV PUSH20 0xFFFFFFFFFFFFFFFFFFFFFFFFFFFFFFFFFFFFFFFF AND SWAP1 DUP1 PUSH1 0x3 ADD PUSH1 0x14 SWAP1 SLOAD SWAP1 PUSH2 0x100 EXP SWAP1 DIV PUSH1 0xFF AND SWAP1 POP DUP6 JUMP JUMPDEST PUSH0 DUP1 PUSH0 DUP4 PUSH20 0xFFFFFFFFFFFFFFFFFFFFFFFFFFFFFFFFFFFFFFFF AND PUSH20 0xFFFFFFFFFFFFFFFFFFFFFFFFFFFFFFFFFFFFFFFF AND DUP2 MSTORE PUSH1 0x20 ADD SWAP1 DUP2 MSTORE PUSH1 0x20 ADD PUSH0 KECCAK256 SLOAD SWAP1 POP SWAP2 SWAP1 POP JUMP JUMPDEST PUSH1 0x60 PUSH1 0x7 DUP1 SLOAD DUP1 PUSH1 0x20 MUL PUSH1 0x20 ADD PUSH1 0x40 MLOAD SWAP1 DUP2 ADD PUSH1 0x40 MSTORE DUP1 SWAP3 SWAP2 SWAP1 DUP2 DUP2 MSTORE PUSH1 0x20 ADD DUP3 DUP1 SLOAD DUP1 ISZERO PUSH2 0x12C1 JUMPI PUSH1 0x20 MUL DUP3 ADD SWAP2 SWAP1 PUSH0 MSTORE PUSH1 0x20 PUSH0 KECCAK256 SWAP1 JUMPDEST DUP2 PUSH0 SWAP1 SLOAD SWAP1 PUSH2 0x100 EXP SWAP1 DIV PUSH20 0xFFFFFFFFFFFFFFFFFFFFFFFFFFFFFFFFFFFFFFFF AND PUSH20 0xFFFFFFFFFFFFFFFFFFFFFFFFFFFFFFFFFFFFFFFF AND DUP2 MSTORE PUSH1 0x20 ADD SWAP1 PUSH1 0x1 ADD SWAP1 DUP1 DUP4 GT PUSH2 0x1278 JUMPI JUMPDEST POP POP POP POP POP SWAP1 POP SWAP1 JUMP JUMPDEST PUSH1 0x60 PUSH0 DUP1 JUMPDEST PUSH1 0x7 DUP1 SLOAD SWAP1 POP DUP2 LT ISZERO PUSH2 0x1387 JUMPI PUSH1 0xA PUSH0 PUSH1 0x7 DUP4 DUP2 SLOAD DUP2 LT PUSH2 0x12F4 JUMPI PUSH2 0x12F3 PUSH2 0x3F0A JUMP JUMPDEST JUMPDEST SWAP1 PUSH0 MSTORE PUSH1 0x20 PUSH0 KECCAK256 ADD PUSH0 SWAP1 SLOAD SWAP1 PUSH2 0x100 EXP SWAP1 DIV PUSH20 0xFFFFFFFFFFFFFFFFFFFFFFFFFFFFFFFFFFFFFFFF AND PUSH20 0xFFFFFFFFFFFFFFFFFFFFFFFFFFFFFFFFFFFFFFFF AND PUSH20 0xFFFFFFFFFFFFFFFFFFFFFFFFFFFFFFFFFFFFFFFF AND DUP2 MSTORE PUSH1 0x20 ADD SWAP1 DUP2 MSTORE PUSH1 0x20 ADD PUSH0 KECCAK256 PUSH1 0x3 ADD PUSH1 0x14 SWAP1 SLOAD SWAP1 PUSH2 0x100 EXP SWAP1 DIV PUSH1 0xFF AND ISZERO PUSH2 0x137A JUMPI DUP2 DUP1 PUSH2 0x1376 SWAP1 PUSH2 0x3978 JUMP JUMPDEST SWAP3 POP POP JUMPDEST DUP1 DUP1 PUSH1 0x1 ADD SWAP2 POP POP PUSH2 0x12D0 JUMP JUMPDEST POP PUSH0 DUP2 PUSH8 0xFFFFFFFFFFFFFFFF DUP2 GT ISZERO PUSH2 0x13A3 JUMPI PUSH2 0x13A2 PUSH2 0x3F37 JUMP JUMPDEST JUMPDEST PUSH1 0x40 MLOAD SWAP1 DUP1 DUP3 MSTORE DUP1 PUSH1 0x20 MUL PUSH1 0x20 ADD DUP3 ADD PUSH1 0x40 MSTORE DUP1 ISZERO PUSH2 0x13DC JUMPI DUP2 PUSH1 0x20 ADD JUMPDEST PUSH2 0x13C9 PUSH2 0x302C JUMP JUMPDEST DUP2 MSTORE PUSH1 0x20 ADD SWAP1 PUSH1 0x1 SWAP1 SUB SWAP1 DUP2 PUSH2 0x13C1 JUMPI SWAP1 POP JUMPDEST POP SWAP1 POP PUSH0 DUP1 JUMPDEST PUSH1 0x7 DUP1 SLOAD SWAP1 POP DUP2 LT ISZERO PUSH2 0x1612 JUMPI PUSH1 0xA PUSH0 PUSH1 0x7 DUP4 DUP2 SLOAD DUP2 LT PUSH2 0x1406 JUMPI PUSH2 0x1405 PUSH2 0x3F0A JUMP JUMPDEST JUMPDEST SWAP1 PUSH0 MSTORE PUSH1 0x20 PUSH0 KECCAK256 ADD PUSH0 SWAP1 SLOAD SWAP1 PUSH2 0x100 EXP SWAP1 DIV PUSH20 0xFFFFFFFFFFFFFFFFFFFFFFFFFFFFFFFFFFFFFFFF AND PUSH20 0xFFFFFFFFFFFFFFFFFFFFFFFFFFFFFFFFFFFFFFFF AND PUSH20 0xFFFFFFFFFFFFFFFFFFFFFFFFFFFFFFFFFFFFFFFF AND DUP2 MSTORE PUSH1 0x20 ADD SWAP1 DUP2 MSTORE PUSH1 0x20 ADD PUSH0 KECCAK256 PUSH1 0x3 ADD PUSH1 0x14 SWAP1 SLOAD SWAP1 PUSH2 0x100 EXP SWAP1 DIV PUSH1 0xFF AND ISZERO PUSH2 0x1605 JUMPI PUSH1 0xA PUSH0 PUSH1 0x7 DUP4 DUP2 SLOAD DUP2 LT PUSH2 0x1494 JUMPI PUSH2 0x1493 PUSH2 0x3F0A JUMP JUMPDEST JUMPDEST SWAP1 PUSH0 MSTORE PUSH1 0x20 PUSH0 KECCAK256 ADD PUSH0 SWAP1 SLOAD SWAP1 PUSH2 0x100 EXP SWAP1 DIV PUSH20 0xFFFFFFFFFFFFFFFFFFFFFFFFFFFFFFFFFFFFFFFF AND PUSH20 0xFFFFFFFFFFFFFFFFFFFFFFFFFFFFFFFFFFFFFFFF AND PUSH20 0xFFFFFFFFFFFFFFFFFFFFFFFFFFFFFFFFFFFFFFFF AND DUP2 MSTORE PUSH1 0x20 ADD SWAP1 DUP2 MSTORE PUSH1 0x20 ADD PUSH0 KECCAK256 PUSH1 0x40 MLOAD DUP1 PUSH1 0xA0 ADD PUSH1 0x40 MSTORE SWAP1 DUP2 PUSH0 DUP3 ADD PUSH0 SWAP1 SLOAD SWAP1 PUSH2 0x100 EXP SWAP1 DIV PUSH20 0xFFFFFFFFFFFFFFFFFFFFFFFFFFFFFFFFFFFFFFFF AND PUSH20 0xFFFFFFFFFFFFFFFFFFFFFFFFFFFFFFFFFFFFFFFF AND PUSH20 0xFFFFFFFFFFFFFFFFFFFFFFFFFFFFFFFFFFFFFFFF AND DUP2 MSTORE PUSH1 0x20 ADD PUSH1 0x1 DUP3 ADD SLOAD DUP2 MSTORE PUSH1 0x20 ADD PUSH1 0x2 DUP3 ADD SLOAD DUP2 MSTORE PUSH1 0x20 ADD PUSH1 0x3 DUP3 ADD PUSH0 SWAP1 SLOAD SWAP1 PUSH2 0x100 EXP SWAP1 DIV PUSH20 0xFFFFFFFFFFFFFFFFFFFFFFFFFFFFFFFFFFFFFFFF AND PUSH20 0xFFFFFFFFFFFFFFFFFFFFFFFFFFFFFFFFFFFFFFFF AND PUSH20 0xFFFFFFFFFFFFFFFFFFFFFFFFFFFFFFFFFFFFFFFF AND DUP2 MSTORE PUSH1 0x20 ADD PUSH1 0x3 DUP3 ADD PUSH1 0x14 SWAP1 SLOAD SWAP1 PUSH2 0x100 EXP SWAP1 DIV PUSH1 0xFF AND ISZERO ISZERO ISZERO ISZERO DUP2 MSTORE POP POP DUP4 DUP4 DUP2 MLOAD DUP2 LT PUSH2 0x15EB JUMPI PUSH2 0x15EA PUSH2 0x3F0A JUMP JUMPDEST JUMPDEST PUSH1 0x20 MUL PUSH1 0x20 ADD ADD DUP2 SWAP1 MSTORE POP DUP2 DUP1 PUSH2 0x1601 SWAP1 PUSH2 0x3978 JUMP JUMPDEST SWAP3 POP POP JUMPDEST DUP1 DUP1 PUSH1 0x1 ADD SWAP2 POP POP PUSH2 0x13E2 JUMP JUMPDEST POP DUP2 SWAP4 POP POP POP POP SWAP1 JUMP JUMPDEST PUSH2 0x162E DUP3 PUSH2 0x1628 PUSH2 0x240D JUMP JUMPDEST DUP4 PUSH2 0x2426 JUMP JUMPDEST PUSH2 0x1638 DUP3 DUP3 PUSH2 0x2601 JUMP JUMPDEST POP POP JUMP JUMPDEST PUSH1 0x8 PUSH0 SWAP1 SLOAD SWAP1 PUSH2 0x100 EXP SWAP1 DIV PUSH20 0xFFFFFFFFFFFFFFFFFFFFFFFFFFFFFFFFFFFFFFFF AND PUSH20 0xFFFFFFFFFFFFFFFFFFFFFFFFFFFFFFFFFFFFFFFF AND CALLER PUSH20 0xFFFFFFFFFFFFFFFFFFFFFFFFFFFFFFFFFFFFFFFF AND EQ DUP1 PUSH2 0x169E JUMPI POP PUSH0 PUSH2 0x169C CALLER PUSH2 0x11FB JUMP JUMPDEST GT JUMPDEST PUSH2 0x16DD JUMPI PUSH1 0x40 MLOAD PUSH32 0x8C379A000000000000000000000000000000000000000000000000000000000 DUP2 MSTORE PUSH1 0x4 ADD PUSH2 0x16D4 SWAP1 PUSH2 0x3FD4 JUMP JUMPDEST PUSH1 0x40 MLOAD DUP1 SWAP2 SUB SWAP1 REVERT JUMPDEST PUSH1 0xD SLOAD DUP2 LT PUSH2 0x1721 JUMPI PUSH1 0x40 MLOAD PUSH32 0x8C379A000000000000000000000000000000000000000000000000000000000 DUP2 MSTORE PUSH1 0x4 ADD PUSH2 0x1718 SWAP1 PUSH2 0x403C JUMP JUMPDEST PUSH1 0x40 MLOAD DUP1 SWAP2 SUB SWAP1 REVERT JUMPDEST PUSH0 PUSH1 0xB PUSH0 DUP4 DUP2 MSTORE PUSH1 0x20 ADD SWAP1 DUP2 MSTORE PUSH1 0x20 ADD PUSH0 KECCAK256 SWAP1 POP DUP1 PUSH0 ADD PUSH1 0x14 SWAP1 SLOAD SWAP1 PUSH2 0x100 EXP SWAP1 DIV PUSH1 0xFF AND ISZERO PUSH2 0x1786 JUMPI PUSH1 0x40 MLOAD PUSH32 0x8C379A000000000000000000000000000000000000000000000000000000000 DUP2 MSTORE PUSH1 0x4 ADD PUSH2 0x177D SWAP1 PUSH2 0x40A4 JUMP JUMPDEST PUSH1 0x40 MLOAD DUP1 SWAP2 SUB SWAP1 REVERT JUMPDEST DUP1 PUSH1 0x2 ADD PUSH0 CALLER PUSH20 0xFFFFFFFFFFFFFFFFFFFFFFFFFFFFFFFFFFFFFFFF AND PUSH20 0xFFFFFFFFFFFFFFFFFFFFFFFFFFFFFFFFFFFFFFFF AND DUP2 MSTORE PUSH1 0x20 ADD SWAP1 DUP2 MSTORE PUSH1 0x20 ADD PUSH0 KECCAK256 PUSH0 SWAP1 SLOAD SWAP1 PUSH2 0x100 EXP SWAP1 DIV PUSH1 0xFF AND ISZERO PUSH2 0x1812 JUMPI PUSH1 0x40 MLOAD PUSH32 0x8C379A000000000000000000000000000000000000000000000000000000000 DUP2 MSTORE PUSH1 0x4 ADD PUSH2 0x1809 SWAP1 PUSH2 0x4132 JUMP JUMPDEST PUSH1 0x40 MLOAD DUP1 SWAP2 SUB SWAP1 REVERT JUMPDEST PUSH1 0x1 DUP2 PUSH1 0x2 ADD PUSH0 CALLER PUSH20 0xFFFFFFFFFFFFFFFFFFFFFFFFFFFFFFFFFFFFFFFF AND PUSH20 0xFFFFFFFFFFFFFFFFFFFFFFFFFFFFFFFFFFFFFFFF AND DUP2 MSTORE PUSH1 0x20 ADD SWAP1 DUP2 MSTORE PUSH1 0x20 ADD PUSH0 KECCAK256 PUSH0 PUSH2 0x100 EXP DUP2 SLOAD DUP2 PUSH1 0xFF MUL NOT AND SWAP1 DUP4 ISZERO ISZERO MUL OR SWAP1 SSTORE POP DUP1 PUSH1 0x1 ADD CALLER SWAP1 DUP1 PUSH1 0x1 DUP2 SLOAD ADD DUP1 DUP3 SSTORE DUP1 SWAP2 POP POP PUSH1 0x1 SWAP1 SUB SWAP1 PUSH0 MSTORE PUSH1 0x20 PUSH0 KECCAK256 ADD PUSH0 SWAP1 SWAP2 SWAP1 SWAP2 SWAP1 SWAP2 PUSH2 0x100 EXP DUP2 SLOAD DUP2 PUSH20 0xFFFFFFFFFFFFFFFFFFFFFFFFFFFFFFFFFFFFFFFF MUL NOT AND SWAP1 DUP4 PUSH20 0xFFFFFFFFFFFFFFFFFFFFFFFFFFFFFFFFFFFFFFFF AND MUL OR SWAP1 SSTORE POP PUSH0 DUP1 JUMPDEST DUP3 PUSH1 0x1 ADD DUP1 SLOAD SWAP1 POP DUP2 LT ISZERO PUSH2 0x1942 JUMPI PUSH0 DUP4 PUSH1 0x1 ADD DUP3 DUP2 SLOAD DUP2 LT PUSH2 0x18F4 JUMPI PUSH2 0x18F3 PUSH2 0x3F0A JUMP JUMPDEST JUMPDEST SWAP1 PUSH0 MSTORE PUSH1 0x20 PUSH0 KECCAK256 ADD PUSH0 SWAP1 SLOAD SWAP1 PUSH2 0x100 EXP SWAP1 DIV PUSH20 0xFFFFFFFFFFFFFFFFFFFFFFFFFFFFFFFFFFFFFFFF AND SWAP1 POP PUSH2 0x1927 DUP2 PUSH2 0x11FB JUMP JUMPDEST DUP4 PUSH2 0x1932 SWAP2 SWAP1 PUSH2 0x3E49 JUMP JUMPDEST SWAP3 POP POP DUP1 DUP1 PUSH1 0x1 ADD SWAP2 POP POP PUSH2 0x18CE JUMP JUMPDEST POP PUSH1 0x2 PUSH2 0x194D PUSH2 0x732 JUMP JUMPDEST PUSH2 0x1957 SWAP2 SWAP1 PUSH2 0x3AD4 JUMP JUMPDEST DUP2 GT ISZERO PUSH2 0x1984 JUMPI PUSH1 0x1 DUP3 PUSH0 ADD PUSH1 0x14 PUSH2 0x100 EXP DUP2 SLOAD DUP2 PUSH1 0xFF MUL NOT AND SWAP1 DUP4 ISZERO ISZERO MUL OR SWAP1 SSTORE POP PUSH2 0x1983 DUP4 PUSH2 0x290D JUMP JUMPDEST JUMPDEST PUSH32 0xF1003B73C437642C0460AEE9CD9628B0B8C447B66E6C7C905531B9C644214A11 DUP4 CALLER PUSH1 0x40 MLOAD PUSH2 0x19B5 SWAP3 SWAP2 SWAP1 PUSH2 0x3924 JUMP JUMPDEST PUSH1 0x40 MLOAD DUP1 SWAP2 SUB SWAP1 LOG1 POP POP POP JUMP JUMPDEST PUSH1 0x60 PUSH1 0x4 DUP1 SLOAD PUSH2 0x19D1 SWAP1 PUSH2 0x37FE JUMP JUMPDEST DUP1 PUSH1 0x1F ADD PUSH1 0x20 DUP1 SWAP2 DIV MUL PUSH1 0x20 ADD PUSH1 0x40 MLOAD SWAP1 DUP2 ADD PUSH1 0x40 MSTORE DUP1 SWAP3 SWAP2 SWAP1 DUP2 DUP2 MSTORE PUSH1 0x20 ADD DUP3 DUP1 SLOAD PUSH2 0x19FD SWAP1 PUSH2 0x37FE JUMP JUMPDEST DUP1 ISZERO PUSH2 0x1A48 JUMPI DUP1 PUSH1 0x1F LT PUSH2 0x1A1F JUMPI PUSH2 0x100 DUP1 DUP4 SLOAD DIV MUL DUP4 MSTORE SWAP2 PUSH1 0x20 ADD SWAP2 PUSH2 0x1A48 JUMP JUMPDEST DUP3 ADD SWAP2 SWAP1 PUSH0 MSTORE PUSH1 0x20 PUSH0 KECCAK256 SWAP1 JUMPDEST DUP2 SLOAD DUP2 MSTORE SWAP1 PUSH1 0x1 ADD SWAP1 PUSH1 0x20 ADD DUP1 DUP4 GT PUSH2 0x1A2B JUMPI DUP3 SWAP1 SUB PUSH1 0x1F AND DUP3 ADD SWAP2 JUMPDEST POP POP POP POP POP SWAP1 POP SWAP1 JUMP JUMPDEST PUSH0 DUP1 PUSH2 0x1A5C PUSH2 0x240D JUMP JUMPDEST SWAP1 POP PUSH2 0x1A69 DUP2 DUP6 DUP6 PUSH2 0x24B8 JUMP JUMPDEST PUSH1 0x1 SWAP2 POP POP SWAP3 SWAP2 POP POP JUMP JUMPDEST PUSH0 PUSH1 0xA PUSH0 CALLER PUSH20 0xFFFFFFFFFFFFFFFFFFFFFFFFFFFFFFFFFFFFFFFF AND PUSH20 0xFFFFFFFFFFFFFFFFFFFFFFFFFFFFFFFFFFFFFFFF AND DUP2 MSTORE PUSH1 0x20 ADD SWAP1 DUP2 MSTORE PUSH1 0x20 ADD PUSH0 KECCAK256 SWAP1 POP DUP1 PUSH1 0x3 ADD PUSH1 0x14 SWAP1 SLOAD SWAP1 PUSH2 0x100 EXP SWAP1 DIV PUSH1 0xFF AND PUSH2 0x1B05 JUMPI PUSH1 0x40 MLOAD PUSH32 0x8C379A000000000000000000000000000000000000000000000000000000000 DUP2 MSTORE PUSH1 0x4 ADD PUSH2 0x1AFC SWAP1 PUSH2 0x419A JUMP JUMPDEST PUSH1 0x40 MLOAD DUP1 SWAP2 SUB SWAP1 REVERT JUMPDEST PUSH2 0x1B14 ADDRESS CALLER DUP4 PUSH1 0x1 ADD SLOAD PUSH2 0x24B8 JUMP JUMPDEST PUSH0 DUP2 PUSH1 0x3 ADD PUSH1 0x14 PUSH2 0x100 EXP DUP2 SLOAD DUP2 PUSH1 0xFF MUL NOT AND SWAP1 DUP4 ISZERO ISZERO MUL OR SWAP1 SSTORE POP POP JUMP JUMPDEST PUSH1 0x7 DUP2 DUP2 SLOAD DUP2 LT PUSH2 0x1B42 JUMPI PUSH0 DUP1 REVERT JUMPDEST SWAP1 PUSH0 MSTORE PUSH1 0x20 PUSH0 KECCAK256 ADD PUSH0 SWAP2 POP SLOAD SWAP1 PUSH2 0x100 EXP SWAP1 DIV PUSH20 0xFFFFFFFFFFFFFFFFFFFFFFFFFFFFFFFFFFFFFFFF AND DUP2 JUMP JUMPDEST PUSH1 0x9 PUSH1 0x20 MSTORE DUP1 PUSH0 MSTORE PUSH1 0x40 PUSH0 KECCAK256 PUSH0 SWAP2 POP SWAP1 POP DUP1 PUSH0 ADD SLOAD SWAP1 DUP1 PUSH1 0x1 ADD SLOAD SWAP1 DUP1 PUSH1 0x2 ADD SLOAD SWAP1 DUP1 PUSH1 0x3 ADD SLOAD SWAP1 DUP1 PUSH1 0x4 ADD SLOAD SWAP1 POP DUP6 JUMP JUMPDEST PUSH2 0x1BA8 PUSH2 0x25A8 JUMP JUMPDEST PUSH0 PUSH1 0xA PUSH0 DUP4 PUSH20 0xFFFFFFFFFFFFFFFFFFFFFFFFFFFFFFFFFFFFFFFF AND PUSH20 0xFFFFFFFFFFFFFFFFFFFFFFFFFFFFFFFFFFFFFFFF AND DUP2 MSTORE PUSH1 0x20 ADD SWAP1 DUP2 MSTORE PUSH1 0x20 ADD PUSH0 KECCAK256 SWAP1 POP PUSH1 0x1 ISZERO ISZERO DUP2 PUSH1 0x3 ADD PUSH1 0x14 SWAP1 SLOAD SWAP1 PUSH2 0x100 EXP SWAP1 DIV PUSH1 0xFF AND ISZERO ISZERO EQ PUSH2 0x1C40 JUMPI PUSH1 0x40 MLOAD PUSH32 0x8C379A000000000000000000000000000000000000000000000000000000000 DUP2 MSTORE PUSH1 0x4 ADD PUSH2 0x1C37 SWAP1 PUSH2 0x3C32 JUMP JUMPDEST PUSH1 0x40 MLOAD DUP1 SWAP2 SUB SWAP1 REVERT JUMPDEST PUSH0 PUSH1 0x64 DUP3 PUSH1 0x2 ADD SLOAD DUP4 PUSH1 0x1 ADD SLOAD PUSH2 0x1C57 SWAP2 SWAP1 PUSH2 0x3A66 JUMP JUMPDEST PUSH2 0x1C61 SWAP2 SWAP1 PUSH2 0x3A66 JUMP JUMPDEST SWAP1 POP PUSH1 0x6 PUSH0 SWAP1 SLOAD SWAP1 PUSH2 0x100 EXP SWAP1 DIV PUSH20 0xFFFFFFFFFFFFFFFFFFFFFFFFFFFFFFFFFFFFFFFF AND PUSH20 0xFFFFFFFFFFFFFFFFFFFFFFFFFFFFFFFFFFFFFFFF AND PUSH4 0x23B872DD CALLER DUP5 PUSH0 ADD PUSH0 SWAP1 SLOAD SWAP1 PUSH2 0x100 EXP SWAP1 DIV PUSH20 0xFFFFFFFFFFFFFFFFFFFFFFFFFFFFFFFFFFFFFFFF AND DUP5 PUSH1 0x40 MLOAD DUP5 PUSH4 0xFFFFFFFF AND PUSH1 0xE0 SHL DUP2 MSTORE PUSH1 0x4 ADD PUSH2 0x1CE3 SWAP4 SWAP3 SWAP2 SWAP1 PUSH2 0x41B8 JUMP JUMPDEST PUSH1 0x20 PUSH1 0x40 MLOAD DUP1 DUP4 SUB DUP2 PUSH0 DUP8 GAS CALL ISZERO DUP1 ISZERO PUSH2 0x1CFF JUMPI RETURNDATASIZE PUSH0 DUP1 RETURNDATACOPY RETURNDATASIZE PUSH0 REVERT JUMPDEST POP POP POP POP PUSH1 0x40 MLOAD RETURNDATASIZE PUSH1 0x1F NOT PUSH1 0x1F DUP3 ADD AND DUP3 ADD DUP1 PUSH1 0x40 MSTORE POP DUP2 ADD SWAP1 PUSH2 0x1D23 SWAP2 SWAP1 PUSH2 0x3B55 JUMP JUMPDEST PUSH2 0x1D62 JUMPI PUSH1 0x40 MLOAD PUSH32 0x8C379A000000000000000000000000000000000000000000000000000000000 DUP2 MSTORE PUSH1 0x4 ADD PUSH2 0x1D59 SWAP1 PUSH2 0x4237 JUMP JUMPDEST PUSH1 0x40 MLOAD DUP1 SWAP2 SUB SWAP1 REVERT JUMPDEST PUSH2 0x1D70 CALLER DUP4 PUSH1 0x1 ADD SLOAD PUSH2 0x1A52 JUMP JUMPDEST POP CALLER DUP3 PUSH1 0x3 ADD PUSH0 PUSH2 0x100 EXP DUP2 SLOAD DUP2 PUSH20 0xFFFFFFFFFFFFFFFFFFFFFFFFFFFFFFFFFFFFFFFF MUL NOT AND SWAP1 DUP4 PUSH20 0xFFFFFFFFFFFFFFFFFFFFFFFFFFFFFFFFFFFFFFFF AND MUL OR SWAP1 SSTORE POP PUSH0 DUP3 PUSH1 0x3 ADD PUSH1 0x14 PUSH2 0x100 EXP DUP2 SLOAD DUP2 PUSH1 0xFF MUL NOT AND SWAP1 DUP4 ISZERO ISZERO MUL OR SWAP1 SSTORE POP PUSH1 0x7 CALLER SWAP1 DUP1 PUSH1 0x1 DUP2 SLOAD ADD DUP1 DUP3 SSTORE DUP1 SWAP2 POP POP PUSH1 0x1 SWAP1 SUB SWAP1 PUSH0 MSTORE PUSH1 0x20 PUSH0 KECCAK256 ADD PUSH0 SWAP1 SWAP2 SWAP1 SWAP2 SWAP1 SWAP2 PUSH2 0x100 EXP DUP2 SLOAD DUP2 PUSH20 0xFFFFFFFFFFFFFFFFFFFFFFFFFFFFFFFFFFFFFFFF MUL NOT AND SWAP1 DUP4 PUSH20 0xFFFFFFFFFFFFFFFFFFFFFFFFFFFFFFFFFFFFFFFF AND MUL OR SWAP1 SSTORE POP CALLER PUSH20 0xFFFFFFFFFFFFFFFFFFFFFFFFFFFFFFFFFFFFFFFF AND PUSH32 0xF6F789E22D2FD81565E9A5F1F694C6832EB01E2931E1617FA3CA2501A4BC7AC5 DUP4 PUSH1 0x1 ADD SLOAD PUSH1 0x40 MLOAD PUSH2 0x1E79 SWAP2 SWAP1 PUSH2 0x32FA JUMP JUMPDEST PUSH1 0x40 MLOAD DUP1 SWAP2 SUB SWAP1 LOG2 POP POP PUSH2 0x1E8B PUSH2 0x25F7 JUMP JUMPDEST POP JUMP JUMPDEST PUSH1 0x8 PUSH0 SWAP1 SLOAD SWAP1 PUSH2 0x100 EXP SWAP1 DIV PUSH20 0xFFFFFFFFFFFFFFFFFFFFFFFFFFFFFFFFFFFFFFFF AND PUSH20 0xFFFFFFFFFFFFFFFFFFFFFFFFFFFFFFFFFFFFFFFF AND CALLER PUSH20 0xFFFFFFFFFFFFFFFFFFFFFFFFFFFFFFFFFFFFFFFF AND EQ DUP1 PUSH2 0x1EF0 JUMPI POP PUSH0 PUSH2 0x1EEE CALLER PUSH2 0x11FB JUMP JUMPDEST GT JUMPDEST PUSH2 0x1F2F JUMPI PUSH1 0x40 MLOAD PUSH32 0x8C379A000000000000000000000000000000000000000000000000000000000 DUP2 MSTORE PUSH1 0x4 ADD PUSH2 0x1F26 SWAP1 PUSH2 0x3FD4 JUMP JUMPDEST PUSH1 0x40 MLOAD DUP1 SWAP2 SUB SWAP1 REVERT JUMPDEST PUSH1 0xD SLOAD DUP2 LT PUSH2 0x1F73 JUMPI PUSH1 0x40 MLOAD PUSH32 0x8C379A000000000000000000000000000000000000000000000000000000000 DUP2 MSTORE PUSH1 0x4 ADD PUSH2 0x1F6A SWAP1 PUSH2 0x403C JUMP JUMPDEST PUSH1 0x40 MLOAD DUP1 SWAP2 SUB SWAP1 REVERT JUMPDEST PUSH0 PUSH1 0xC PUSH0 DUP4 DUP2 MSTORE PUSH1 0x20 ADD SWAP1 DUP2 MSTORE PUSH1 0x20 ADD PUSH0 KECCAK256 SWAP1 POP DUP1 PUSH1 0x4 ADD PUSH0 SWAP1 SLOAD SWAP1 PUSH2 0x100 EXP SWAP1 DIV PUSH1 0xFF AND ISZERO PUSH2 0x1FD8 JUMPI PUSH1 0x40 MLOAD PUSH32 0x8C379A000000000000000000000000000000000000000000000000000000000 DUP2 MSTORE PUSH1 0x4 ADD PUSH2 0x1FCF SWAP1 PUSH2 0x40A4 JUMP JUMPDEST PUSH1 0x40 MLOAD DUP1 SWAP2 SUB SWAP1 REVERT JUMPDEST DUP1 PUSH1 0x6 ADD PUSH0 CALLER PUSH20 0xFFFFFFFFFFFFFFFFFFFFFFFFFFFFFFFFFFFFFFFF AND PUSH20 0xFFFFFFFFFFFFFFFFFFFFFFFFFFFFFFFFFFFFFFFF AND DUP2 MSTORE PUSH1 0x20 ADD SWAP1 DUP2 MSTORE PUSH1 0x20 ADD PUSH0 KECCAK256 PUSH0 SWAP1 SLOAD SWAP1 PUSH2 0x100 EXP SWAP1 DIV PUSH1 0xFF AND ISZERO PUSH2 0x2064 JUMPI PUSH1 0x40 MLOAD PUSH32 0x8C379A000000000000000000000000000000000000000000000000000000000 DUP2 MSTORE PUSH1 0x4 ADD PUSH2 0x205B SWAP1 PUSH2 0x4132 JUMP JUMPDEST PUSH1 0x40 MLOAD DUP1 SWAP2 SUB SWAP1 REVERT JUMPDEST PUSH1 0x1 DUP2 PUSH1 0x6 ADD PUSH0 CALLER PUSH20 0xFFFFFFFFFFFFFFFFFFFFFFFFFFFFFFFFFFFFFFFF AND PUSH20 0xFFFFFFFFFFFFFFFFFFFFFFFFFFFFFFFFFFFFFFFF AND DUP2 MSTORE PUSH1 0x20 ADD SWAP1 DUP2 MSTORE PUSH1 0x20 ADD PUSH0 KECCAK256 PUSH0 PUSH2 0x100 EXP DUP2 SLOAD DUP2 PUSH1 0xFF MUL NOT AND SWAP1 DUP4 ISZERO ISZERO MUL OR SWAP1 SSTORE POP DUP1 PUSH1 0x5 ADD CALLER SWAP1 DUP1 PUSH1 0x1 DUP2 SLOAD ADD DUP1 DUP3 SSTORE DUP1 SWAP2 POP POP PUSH1 0x1 SWAP1 SUB SWAP1 PUSH0 MSTORE PUSH1 0x20 PUSH0 KECCAK256 ADD PUSH0 SWAP1 SWAP2 SWAP1 SWAP2 SWAP1 SWAP2 PUSH2 0x100 EXP DUP2 SLOAD DUP2 PUSH20 0xFFFFFFFFFFFFFFFFFFFFFFFFFFFFFFFFFFFFFFFF MUL NOT AND SWAP1 DUP4 PUSH20 0xFFFFFFFFFFFFFFFFFFFFFFFFFFFFFFFFFFFFFFFF AND MUL OR SWAP1 SSTORE POP PUSH0 DUP1 JUMPDEST DUP3 PUSH1 0x5 ADD DUP1 SLOAD SWAP1 POP DUP2 LT ISZERO PUSH2 0x2194 JUMPI PUSH0 DUP4 PUSH1 0x5 ADD DUP3 DUP2 SLOAD DUP2 LT PUSH2 0x2146 JUMPI PUSH2 0x2145 PUSH2 0x3F0A JUMP JUMPDEST JUMPDEST SWAP1 PUSH0 MSTORE PUSH1 0x20 PUSH0 KECCAK256 ADD PUSH0 SWAP1 SLOAD SWAP1 PUSH2 0x100 EXP SWAP1 DIV PUSH20 0xFFFFFFFFFFFFFFFFFFFFFFFFFFFFFFFFFFFFFFFF AND SWAP1 POP PUSH2 0x2179 DUP2 PUSH2 0x11FB JUMP JUMPDEST DUP4 PUSH2 0x2184 SWAP2 SWAP1 PUSH2 0x3E49 JUMP JUMPDEST SWAP3 POP POP DUP1 DUP1 PUSH1 0x1 ADD SWAP2 POP POP PUSH2 0x2120 JUMP JUMPDEST POP PUSH1 0x2 PUSH2 0x219F PUSH2 0x732 JUMP JUMPDEST PUSH2 0x21A9 SWAP2 SWAP1 PUSH2 0x3AD4 JUMP JUMPDEST DUP2 GT ISZERO PUSH2 0x2207 JUMPI PUSH1 0x1 DUP3 PUSH1 0x4 ADD PUSH0 PUSH2 0x100 EXP DUP2 SLOAD DUP2 PUSH1 0xFF MUL NOT AND SWAP1 DUP4 ISZERO ISZERO MUL OR SWAP1 SSTORE POP PUSH2 0x2206 DUP3 PUSH0 ADD PUSH0 SWAP1 SLOAD SWAP1 PUSH2 0x100 EXP SWAP1 DIV PUSH20 0xFFFFFFFFFFFFFFFFFFFFFFFFFFFFFFFFFFFFFFFF AND DUP4 PUSH1 0x1 ADD SLOAD DUP5 PUSH1 0x2 ADD SLOAD DUP6 PUSH1 0x3 ADD SLOAD PUSH2 0x26FF JUMP JUMPDEST JUMPDEST PUSH32 0xF1003B73C437642C0460AEE9CD9628B0B8C447B66E6C7C905531B9C644214A11 DUP4 CALLER PUSH1 0x40 MLOAD PUSH2 0x2238 SWAP3 SWAP2 SWAP1 PUSH2 0x3924 JUMP JUMPDEST PUSH1 0x40 MLOAD DUP1 SWAP2 SUB SWAP1 LOG1 POP POP POP JUMP JUMPDEST PUSH0 PUSH1 0x1 PUSH0 DUP5 PUSH20 0xFFFFFFFFFFFFFFFFFFFFFFFFFFFFFFFFFFFFFFFF AND PUSH20 0xFFFFFFFFFFFFFFFFFFFFFFFFFFFFFFFFFFFFFFFF AND DUP2 MSTORE PUSH1 0x20 ADD SWAP1 DUP2 MSTORE PUSH1 0x20 ADD PUSH0 KECCAK256 PUSH0 DUP4 PUSH20 0xFFFFFFFFFFFFFFFFFFFFFFFFFFFFFFFFFFFFFFFF AND PUSH20 0xFFFFFFFFFFFFFFFFFFFFFFFFFFFFFFFFFFFFFFFF AND DUP2 MSTORE PUSH1 0x20 ADD SWAP1 DUP2 MSTORE PUSH1 0x20 ADD PUSH0 KECCAK256 SLOAD SWAP1 POP SWAP3 SWAP2 POP POP JUMP JUMPDEST PUSH1 0xC PUSH1 0x20 MSTORE DUP1 PUSH0 MSTORE PUSH1 0x40 PUSH0 KECCAK256 PUSH0 SWAP2 POP SWAP1 POP DUP1 PUSH0 ADD PUSH0 SWAP1 SLOAD SWAP1 PUSH2 0x100 EXP SWAP1 DIV PUSH20 0xFFFFFFFFFFFFFFFFFFFFFFFFFFFFFFFFFFFFFFFF AND SWAP1 DUP1 PUSH1 0x1 ADD SLOAD SWAP1 DUP1 PUSH1 0x2 ADD SLOAD SWAP1 DUP1 PUSH1 0x3 ADD SLOAD SWAP1 DUP1 PUSH1 0x4 ADD PUSH0 SWAP1 SLOAD SWAP1 PUSH2 0x100 EXP SWAP1 DIV PUSH1 0xFF AND SWAP1 POP DUP6 JUMP JUMPDEST PUSH0 DUP1 PUSH1 0x9 PUSH0 DUP5 PUSH20 0xFFFFFFFFFFFFFFFFFFFFFFFFFFFFFFFFFFFFFFFF AND PUSH20 0xFFFFFFFFFFFFFFFFFFFFFFFFFFFFFFFFFFFFFFFF AND DUP2 MSTORE PUSH1 0x20 ADD SWAP1 DUP2 MSTORE PUSH1 0x20 ADD PUSH0 KECCAK256 SWAP1 POP DUP1 PUSH1 0x1 ADD SLOAD DUP2 PUSH1 0x2 ADD SLOAD SUB PUSH2 0x237D JUMPI PUSH0 SWAP2 POP POP PUSH2 0x2408 JUMP JUMPDEST PUSH0 DUP1 DUP3 PUSH1 0x4 ADD SLOAD SWAP1 POP PUSH0 DUP4 PUSH1 0x3 ADD SLOAD SWAP1 POP PUSH0 DUP5 PUSH1 0x1 ADD SLOAD SWAP1 POP PUSH0 DUP6 PUSH0 ADD SLOAD SWAP1 POP DUP3 DUP2 PUSH2 0x23A9 SWAP2 SWAP1 PUSH2 0x3E49 JUMP JUMPDEST TIMESTAMP LT PUSH2 0x23FE JUMPI PUSH0 DUP5 PUSH2 0x2710 DUP6 DUP5 TIMESTAMP PUSH2 0x23C1 SWAP2 SWAP1 PUSH2 0x3E16 JUMP JUMPDEST PUSH2 0x23CB SWAP2 SWAP1 PUSH2 0x3E16 JUMP JUMPDEST PUSH2 0x23D5 SWAP2 SWAP1 PUSH2 0x3A66 JUMP JUMPDEST PUSH2 0x23DF SWAP2 SWAP1 PUSH2 0x3AD4 JUMP JUMPDEST SWAP1 POP PUSH2 0x2710 DUP2 DUP5 PUSH2 0x23F0 SWAP2 SWAP1 PUSH2 0x3A66 JUMP JUMPDEST PUSH2 0x23FA SWAP2 SWAP1 PUSH2 0x3AD4 JUMP JUMPDEST SWAP6 POP POP JUMPDEST DUP5 SWAP7 POP POP POP POP POP POP POP JUMPDEST SWAP2 SWAP1 POP JUMP JUMPDEST PUSH0 CALLER SWAP1 POP SWAP1 JUMP JUMPDEST PUSH2 0x2421 DUP4 DUP4 DUP4 PUSH1 0x1 PUSH2 0x2C44 JUMP JUMPDEST POP POP POP JUMP JUMPDEST PUSH0 PUSH2 0x2431 DUP5 DUP5 PUSH2 0x2245 JUMP JUMPDEST SWAP1 POP PUSH32 0xFFFFFFFFFFFFFFFFFFFFFFFFFFFFFFFFFFFFFFFFFFFFFFFFFFFFFFFFFFFFFFFF DUP2 EQ PUSH2 0x24B2 JUMPI DUP2 DUP2 LT ISZERO PUSH2 0x24A3 JUMPI DUP3 DUP2 DUP4 PUSH1 0x40 MLOAD PUSH32 0xFB8F41B200000000000000000000000000000000000000000000000000000000 DUP2 MSTORE PUSH1 0x4 ADD PUSH2 0x249A SWAP4 SWAP3 SWAP2 SWAP1 PUSH2 0x4255 JUMP JUMPDEST PUSH1 0x40 MLOAD DUP1 SWAP2 SUB SWAP1 REVERT JUMPDEST PUSH2 0x24B1 DUP5 DUP5 DUP5 DUP5 SUB PUSH0 PUSH2 0x2C44 JUMP JUMPDEST JUMPDEST POP POP POP POP JUMP JUMPDEST PUSH0 PUSH20 0xFFFFFFFFFFFFFFFFFFFFFFFFFFFFFFFFFFFFFFFF AND DUP4 PUSH20 0xFFFFFFFFFFFFFFFFFFFFFFFFFFFFFFFFFFFFFFFF AND SUB PUSH2 0x2528 JUMPI PUSH0 PUSH1 0x40 MLOAD PUSH32 0x96C6FD1E00000000000000000000000000000000000000000000000000000000 DUP2 MSTORE PUSH1 0x4 ADD PUSH2 0x251F SWAP2 SWAP1 PUSH2 0x3400 JUMP JUMPDEST PUSH1 0x40 MLOAD DUP1 SWAP2 SUB SWAP1 REVERT JUMPDEST PUSH0 PUSH20 0xFFFFFFFFFFFFFFFFFFFFFFFFFFFFFFFFFFFFFFFF AND DUP3 PUSH20 0xFFFFFFFFFFFFFFFFFFFFFFFFFFFFFFFFFFFFFFFF AND SUB PUSH2 0x2598 JUMPI PUSH0 PUSH1 0x40 MLOAD PUSH32 0xEC442F0500000000000000000000000000000000000000000000000000000000 DUP2 MSTORE PUSH1 0x4 ADD PUSH2 0x258F SWAP2 SWAP1 PUSH2 0x3400 JUMP JUMPDEST PUSH1 0x40 MLOAD DUP1 SWAP2 SUB SWAP1 REVERT JUMPDEST PUSH2 0x25A3 DUP4 DUP4 DUP4 PUSH2 0x2E13 JUMP JUMPDEST POP POP POP JUMP JUMPDEST PUSH1 0x2 PUSH1 0x5 SLOAD SUB PUSH2 0x25ED JUMPI PUSH1 0x40 MLOAD PUSH32 0x8C379A000000000000000000000000000000000000000000000000000000000 DUP2 MSTORE PUSH1 0x4 ADD PUSH2 0x25E4 SWAP1 PUSH2 0x42D4 JUMP JUMPDEST PUSH1 0x40 MLOAD DUP1 SWAP2 SUB SWAP1 REVERT JUMPDEST PUSH1 0x2 PUSH1 0x5 DUP2 SWAP1 SSTORE POP JUMP JUMPDEST PUSH1 0x1 PUSH1 0x5 DUP2 SWAP1 SSTORE POP JUMP JUMPDEST PUSH0 PUSH20 0xFFFFFFFFFFFFFFFFFFFFFFFFFFFFFFFFFFFFFFFF AND DUP3 PUSH20 0xFFFFFFFFFFFFFFFFFFFFFFFFFFFFFFFFFFFFFFFF AND SUB PUSH2 0x2671 JUMPI PUSH0 PUSH1 0x40 MLOAD PUSH32 0x96C6FD1E00000000000000000000000000000000000000000000000000000000 DUP2 MSTORE PUSH1 0x4 ADD PUSH2 0x2668 SWAP2 SWAP1 PUSH2 0x3400 JUMP JUMPDEST PUSH1 0x40 MLOAD DUP1 SWAP2 SUB SWAP1 REVERT JUMPDEST PUSH2 0x267C DUP3 PUSH0 DUP4 PUSH2 0x2E13 JUMP JUMPDEST POP POP JUMP JUMPDEST PUSH0 PUSH20 0xFFFFFFFFFFFFFFFFFFFFFFFFFFFFFFFFFFFFFFFF AND DUP3 PUSH20 0xFFFFFFFFFFFFFFFFFFFFFFFFFFFFFFFFFFFFFFFF AND SUB PUSH2 0x26F0 JUMPI PUSH0 PUSH1 0x40 MLOAD PUSH32 0xEC442F0500000000000000000000000000000000000000000000000000000000 DUP2 MSTORE PUSH1 0x4 ADD PUSH2 0x26E7 SWAP2 SWAP1 PUSH2 0x3400 JUMP JUMPDEST PUSH1 0x40 MLOAD DUP1 SWAP2 SUB SWAP1 REVERT JUMPDEST PUSH2 0x26FB PUSH0 DUP4 DUP4 PUSH2 0x2E13 JUMP JUMPDEST POP POP JUMP JUMPDEST PUSH0 PUSH20 0xFFFFFFFFFFFFFFFFFFFFFFFFFFFFFFFFFFFFFFFF AND DUP5 PUSH20 0xFFFFFFFFFFFFFFFFFFFFFFFFFFFFFFFFFFFFFFFF AND SUB PUSH2 0x276D JUMPI PUSH1 0x40 MLOAD PUSH32 0x8C379A000000000000000000000000000000000000000000000000000000000 DUP2 MSTORE PUSH1 0x4 ADD PUSH2 0x2764 SWAP1 PUSH2 0x3906 JUMP JUMPDEST PUSH1 0x40 MLOAD DUP1 SWAP2 SUB SWAP1 REVERT JUMPDEST PUSH0 DUP4 GT PUSH2 0x27AF JUMPI PUSH1 0x40 MLOAD PUSH32 0x8C379A000000000000000000000000000000000000000000000000000000000 DUP2 MSTORE PUSH1 0x4 ADD PUSH2 0x27A6 SWAP1 PUSH2 0x433C JUMP JUMPDEST PUSH1 0x40 MLOAD DUP1 SWAP2 SUB SWAP1 REVERT JUMPDEST DUP1 DUP3 GT ISZERO PUSH2 0x27F2 JUMPI PUSH1 0x40 MLOAD PUSH32 0x8C379A000000000000000000000000000000000000000000000000000000000 DUP2 MSTORE PUSH1 0x4 ADD PUSH2 0x27E9 SWAP1 PUSH2 0x43CA JUMP JUMPDEST PUSH1 0x40 MLOAD DUP1 SWAP2 SUB SWAP1 REVERT JUMPDEST PUSH1 0x7 DUP5 SWAP1 DUP1 PUSH1 0x1 DUP2 SLOAD ADD DUP1 DUP3 SSTORE DUP1 SWAP2 POP POP PUSH1 0x1 SWAP1 SUB SWAP1 PUSH0 MSTORE PUSH1 0x20 PUSH0 KECCAK256 ADD PUSH0 SWAP1 SWAP2 SWAP1 SWAP2 SWAP1 SWAP2 PUSH2 0x100 EXP DUP2 SLOAD DUP2 PUSH20 0xFFFFFFFFFFFFFFFFFFFFFFFFFFFFFFFFFFFFFFFF MUL NOT AND SWAP1 DUP4 PUSH20 0xFFFFFFFFFFFFFFFFFFFFFFFFFFFFFFFFFFFFFFFF AND MUL OR SWAP1 SSTORE POP PUSH1 0x40 MLOAD DUP1 PUSH1 0xA0 ADD PUSH1 0x40 MSTORE DUP1 TIMESTAMP DUP2 MSTORE PUSH1 0x20 ADD DUP5 DUP2 MSTORE PUSH1 0x20 ADD PUSH0 DUP2 MSTORE PUSH1 0x20 ADD DUP4 DUP2 MSTORE PUSH1 0x20 ADD DUP3 DUP2 MSTORE POP PUSH1 0x9 PUSH0 DUP7 PUSH20 0xFFFFFFFFFFFFFFFFFFFFFFFFFFFFFFFFFFFFFFFF AND PUSH20 0xFFFFFFFFFFFFFFFFFFFFFFFFFFFFFFFFFFFFFFFF AND DUP2 MSTORE PUSH1 0x20 ADD SWAP1 DUP2 MSTORE PUSH1 0x20 ADD PUSH0 KECCAK256 PUSH0 DUP3 ADD MLOAD DUP2 PUSH0 ADD SSTORE PUSH1 0x20 DUP3 ADD MLOAD DUP2 PUSH1 0x1 ADD SSTORE PUSH1 0x40 DUP3 ADD MLOAD DUP2 PUSH1 0x2 ADD SSTORE PUSH1 0x60 DUP3 ADD MLOAD DUP2 PUSH1 0x3 ADD SSTORE PUSH1 0x80 DUP3 ADD MLOAD DUP2 PUSH1 0x4 ADD SSTORE SWAP1 POP POP PUSH0 DUP3 EQ DUP1 ISZERO PUSH2 0x28F7 JUMPI POP PUSH0 DUP2 EQ JUMPDEST ISZERO PUSH2 0x2907 JUMPI PUSH2 0x2906 DUP5 DUP5 PUSH2 0x2680 JUMP JUMPDEST JUMPDEST POP POP POP POP JUMP JUMPDEST PUSH0 PUSH1 0xB PUSH0 DUP4 DUP2 MSTORE PUSH1 0x20 ADD SWAP1 DUP2 MSTORE PUSH1 0x20 ADD PUSH0 KECCAK256 SWAP1 POP PUSH0 PUSH1 0x9 PUSH0 DUP4 PUSH0 ADD PUSH0 SWAP1 SLOAD SWAP1 PUSH2 0x100 EXP SWAP1 DIV PUSH20 0xFFFFFFFFFFFFFFFFFFFFFFFFFFFFFFFFFFFFFFFF AND PUSH20 0xFFFFFFFFFFFFFFFFFFFFFFFFFFFFFFFFFFFFFFFF AND PUSH20 0xFFFFFFFFFFFFFFFFFFFFFFFFFFFFFFFFFFFFFFFF AND DUP2 MSTORE PUSH1 0x20 ADD SWAP1 DUP2 MSTORE PUSH1 0x20 ADD PUSH0 KECCAK256 SWAP1 POP PUSH0 DUP2 PUSH1 0x2 ADD SLOAD EQ PUSH2 0x29C9 JUMPI PUSH1 0x40 MLOAD PUSH32 0x8C379A000000000000000000000000000000000000000000000000000000000 DUP2 MSTORE PUSH1 0x4 ADD PUSH2 0x29C0 SWAP1 PUSH2 0x4458 JUMP JUMPDEST PUSH1 0x40 MLOAD DUP1 SWAP2 SUB SWAP1 REVERT JUMPDEST PUSH2 0x2A1F DUP3 PUSH0 ADD PUSH0 SWAP1 SLOAD SWAP1 PUSH2 0x100 EXP SWAP1 DIV PUSH20 0xFFFFFFFFFFFFFFFFFFFFFFFFFFFFFFFFFFFFFFFF AND PUSH2 0x2A1A DUP5 PUSH0 ADD PUSH0 SWAP1 SLOAD SWAP1 PUSH2 0x100 EXP SWAP1 DIV PUSH20 0xFFFFFFFFFFFFFFFFFFFFFFFFFFFFFFFFFFFFFFFF AND PUSH2 0x11FB JUMP JUMPDEST PUSH2 0x2601 JUMP JUMPDEST PUSH1 0x9 PUSH0 DUP4 PUSH0 ADD PUSH0 SWAP1 SLOAD SWAP1 PUSH2 0x100 EXP SWAP1 DIV PUSH20 0xFFFFFFFFFFFFFFFFFFFFFFFFFFFFFFFFFFFFFFFF AND PUSH20 0xFFFFFFFFFFFFFFFFFFFFFFFFFFFFFFFFFFFFFFFF AND PUSH20 0xFFFFFFFFFFFFFFFFFFFFFFFFFFFFFFFFFFFFFFFF AND DUP2 MSTORE PUSH1 0x20 ADD SWAP1 DUP2 MSTORE PUSH1 0x20 ADD PUSH0 KECCAK256 PUSH0 DUP1 DUP3 ADD PUSH0 SWAP1 SSTORE PUSH1 0x1 DUP3 ADD PUSH0 SWAP1 SSTORE PUSH1 0x2 DUP3 ADD PUSH0 SWAP1 SSTORE PUSH1 0x3 DUP3 ADD PUSH0 SWAP1 SSTORE PUSH1 0x4 DUP3 ADD PUSH0 SWAP1 SSTORE POP POP PUSH0 JUMPDEST PUSH1 0x7 DUP1 SLOAD SWAP1 POP DUP2 LT ISZERO PUSH2 0x2C3E JUMPI DUP3 PUSH0 ADD PUSH0 SWAP1 SLOAD SWAP1 PUSH2 0x100 EXP SWAP1 DIV PUSH20 0xFFFFFFFFFFFFFFFFFFFFFFFFFFFFFFFFFFFFFFFF AND PUSH20 0xFFFFFFFFFFFFFFFFFFFFFFFFFFFFFFFFFFFFFFFF AND PUSH1 0x7 DUP3 DUP2 SLOAD DUP2 LT PUSH2 0x2AFF JUMPI PUSH2 0x2AFE PUSH2 0x3F0A JUMP JUMPDEST JUMPDEST SWAP1 PUSH0 MSTORE PUSH1 0x20 PUSH0 KECCAK256 ADD PUSH0 SWAP1 SLOAD SWAP1 PUSH2 0x100 EXP SWAP1 DIV PUSH20 0xFFFFFFFFFFFFFFFFFFFFFFFFFFFFFFFFFFFFFFFF AND PUSH20 0xFFFFFFFFFFFFFFFFFFFFFFFFFFFFFFFFFFFFFFFF AND SUB PUSH2 0x2C31 JUMPI PUSH1 0x7 PUSH1 0x1 PUSH1 0x7 DUP1 SLOAD SWAP1 POP PUSH2 0x2B56 SWAP2 SWAP1 PUSH2 0x3E16 JUMP JUMPDEST DUP2 SLOAD DUP2 LT PUSH2 0x2B67 JUMPI PUSH2 0x2B66 PUSH2 0x3F0A JUMP JUMPDEST JUMPDEST SWAP1 PUSH0 MSTORE PUSH1 0x20 PUSH0 KECCAK256 ADD PUSH0 SWAP1 SLOAD SWAP1 PUSH2 0x100 EXP SWAP1 DIV PUSH20 0xFFFFFFFFFFFFFFFFFFFFFFFFFFFFFFFFFFFFFFFF AND PUSH1 0x7 DUP3 DUP2 SLOAD DUP2 LT PUSH2 0x2BA3 JUMPI PUSH2 0x2BA2 PUSH2 0x3F0A JUMP JUMPDEST JUMPDEST SWAP1 PUSH0 MSTORE PUSH1 0x20 PUSH0 KECCAK256 ADD PUSH0 PUSH2 0x100 EXP DUP2 SLOAD DUP2 PUSH20 0xFFFFFFFFFFFFFFFFFFFFFFFFFFFFFFFFFFFFFFFF MUL NOT AND SWAP1 DUP4 PUSH20 0xFFFFFFFFFFFFFFFFFFFFFFFFFFFFFFFFFFFFFFFF AND MUL OR SWAP1 SSTORE POP PUSH1 0x7 DUP1 SLOAD DUP1 PUSH2 0x2BFA JUMPI PUSH2 0x2BF9 PUSH2 0x4476 JUMP JUMPDEST JUMPDEST PUSH1 0x1 SWAP1 SUB DUP2 DUP2 SWAP1 PUSH0 MSTORE PUSH1 0x20 PUSH0 KECCAK256 ADD PUSH0 PUSH2 0x100 EXP DUP2 SLOAD SWAP1 PUSH20 0xFFFFFFFFFFFFFFFFFFFFFFFFFFFFFFFFFFFFFFFF MUL NOT AND SWAP1 SSTORE SWAP1 SSTORE PUSH2 0x2C3E JUMP JUMPDEST DUP1 DUP1 PUSH1 0x1 ADD SWAP2 POP POP PUSH2 0x2AA5 JUMP JUMPDEST POP POP POP POP JUMP JUMPDEST PUSH0 PUSH20 0xFFFFFFFFFFFFFFFFFFFFFFFFFFFFFFFFFFFFFFFF AND DUP5 PUSH20 0xFFFFFFFFFFFFFFFFFFFFFFFFFFFFFFFFFFFFFFFF AND SUB PUSH2 0x2CB4 JUMPI PUSH0 PUSH1 0x40 MLOAD PUSH32 0xE602DF0500000000000000000000000000000000000000000000000000000000 DUP2 MSTORE PUSH1 0x4 ADD PUSH2 0x2CAB SWAP2 SWAP1 PUSH2 0x3400 JUMP JUMPDEST PUSH1 0x40 MLOAD DUP1 SWAP2 SUB SWAP1 REVERT JUMPDEST PUSH0 PUSH20 0xFFFFFFFFFFFFFFFFFFFFFFFFFFFFFFFFFFFFFFFF AND DUP4 PUSH20 0xFFFFFFFFFFFFFFFFFFFFFFFFFFFFFFFFFFFFFFFF AND SUB PUSH2 0x2D24 JUMPI PUSH0 PUSH1 0x40 MLOAD PUSH32 0x94280D6200000000000000000000000000000000000000000000000000000000 DUP2 MSTORE PUSH1 0x4 ADD PUSH2 0x2D1B SWAP2 SWAP1 PUSH2 0x3400 JUMP JUMPDEST PUSH1 0x40 MLOAD DUP1 SWAP2 SUB SWAP1 REVERT JUMPDEST DUP2 PUSH1 0x1 PUSH0 DUP7 PUSH20 0xFFFFFFFFFFFFFFFFFFFFFFFFFFFFFFFFFFFFFFFF AND PUSH20 0xFFFFFFFFFFFFFFFFFFFFFFFFFFFFFFFFFFFFFFFF AND DUP2 MSTORE PUSH1 0x20 ADD SWAP1 DUP2 MSTORE PUSH1 0x20 ADD PUSH0 KECCAK256 PUSH0 DUP6 PUSH20 0xFFFFFFFFFFFFFFFFFFFFFFFFFFFFFFFFFFFFFFFF AND PUSH20 0xFFFFFFFFFFFFFFFFFFFFFFFFFFFFFFFFFFFFFFFF AND DUP2 MSTORE PUSH1 0x20 ADD SWAP1 DUP2 MSTORE PUSH1 0x20 ADD PUSH0 KECCAK256 DUP2 SWAP1 SSTORE POP DUP1 ISZERO PUSH2 0x2E0D JUMPI DUP3 PUSH20 0xFFFFFFFFFFFFFFFFFFFFFFFFFFFFFFFFFFFFFFFF AND DUP5 PUSH20 0xFFFFFFFFFFFFFFFFFFFFFFFFFFFFFFFFFFFFFFFF AND PUSH32 0x8C5BE1E5EBEC7D5BD14F71427D1E84F3DD0314C0F7B2291E5B200AC8C7C3B925 DUP5 PUSH1 0x40 MLOAD PUSH2 0x2E04 SWAP2 SWAP1 PUSH2 0x32FA JUMP JUMPDEST PUSH1 0x40 MLOAD DUP1 SWAP2 SUB SWAP1 LOG3 JUMPDEST POP POP POP POP JUMP JUMPDEST PUSH0 PUSH20 0xFFFFFFFFFFFFFFFFFFFFFFFFFFFFFFFFFFFFFFFF AND DUP4 PUSH20 0xFFFFFFFFFFFFFFFFFFFFFFFFFFFFFFFFFFFFFFFF AND SUB PUSH2 0x2E63 JUMPI DUP1 PUSH1 0x2 PUSH0 DUP3 DUP3 SLOAD PUSH2 0x2E57 SWAP2 SWAP1 PUSH2 0x3E49 JUMP JUMPDEST SWAP3 POP POP DUP2 SWAP1 SSTORE POP PUSH2 0x2F31 JUMP JUMPDEST PUSH0 DUP1 PUSH0 DUP6 PUSH20 0xFFFFFFFFFFFFFFFFFFFFFFFFFFFFFFFFFFFFFFFF AND PUSH20 0xFFFFFFFFFFFFFFFFFFFFFFFFFFFFFFFFFFFFFFFF AND DUP2 MSTORE PUSH1 0x20 ADD SWAP1 DUP2 MSTORE PUSH1 0x20 ADD PUSH0 KECCAK256 SLOAD SWAP1 POP DUP2 DUP2 LT ISZERO PUSH2 0x2EEC JUMPI DUP4 DUP2 DUP4 PUSH1 0x40 MLOAD PUSH32 0xE450D38C00000000000000000000000000000000000000000000000000000000 DUP2 MSTORE PUSH1 0x4 ADD PUSH2 0x2EE3 SWAP4 SWAP3 SWAP2 SWAP1 PUSH2 0x4255 JUMP JUMPDEST PUSH1 0x40 MLOAD DUP1 SWAP2 SUB SWAP1 REVERT JUMPDEST DUP2 DUP2 SUB PUSH0 DUP1 DUP7 PUSH20 0xFFFFFFFFFFFFFFFFFFFFFFFFFFFFFFFFFFFFFFFF AND PUSH20 0xFFFFFFFFFFFFFFFFFFFFFFFFFFFFFFFFFFFFFFFF AND DUP2 MSTORE PUSH1 0x20 ADD SWAP1 DUP2 MSTORE PUSH1 0x20 ADD PUSH0 KECCAK256 DUP2 SWAP1 SSTORE POP POP JUMPDEST PUSH0 PUSH20 0xFFFFFFFFFFFFFFFFFFFFFFFFFFFFFFFFFFFFFFFF AND DUP3 PUSH20 0xFFFFFFFFFFFFFFFFFFFFFFFFFFFFFFFFFFFFFFFF AND SUB PUSH2 0x2F78 JUMPI DUP1 PUSH1 0x2 PUSH0 DUP3 DUP3 SLOAD SUB SWAP3 POP POP DUP2 SWAP1 SSTORE POP PUSH2 0x2FC2 JUMP JUMPDEST DUP1 PUSH0 DUP1 DUP5 PUSH20 0xFFFFFFFFFFFFFFFFFFFFFFFFFFFFFFFFFFFFFFFF AND PUSH20 0xFFFFFFFFFFFFFFFFFFFFFFFFFFFFFFFFFFFFFFFF AND DUP2 MSTORE PUSH1 0x20 ADD SWAP1 DUP2 MSTORE PUSH1 0x20 ADD PUSH0 KECCAK256 PUSH0 DUP3 DUP3 SLOAD ADD SWAP3 POP POP DUP2 SWAP1 SSTORE POP JUMPDEST DUP2 PUSH20 0xFFFFFFFFFFFFFFFFFFFFFFFFFFFFFFFFFFFFFFFF AND DUP4 PUSH20 0xFFFFFFFFFFFFFFFFFFFFFFFFFFFFFFFFFFFFFFFF AND PUSH32 0xDDF252AD1BE2C89B69C2B068FC378DAA952BA7F163C4A11628F55A4DF523B3EF DUP4 PUSH1 0x40 MLOAD PUSH2 0x301F SWAP2 SWAP1 PUSH2 0x32FA JUMP JUMPDEST PUSH1 0x40 MLOAD DUP1 SWAP2 SUB SWAP1 LOG3 POP POP POP JUMP JUMPDEST PUSH1 0x40 MLOAD DUP1 PUSH1 0xA0 ADD PUSH1 0x40 MSTORE DUP1 PUSH0 PUSH20 0xFFFFFFFFFFFFFFFFFFFFFFFFFFFFFFFFFFFFFFFF AND DUP2 MSTORE PUSH1 0x20 ADD PUSH0 DUP2 MSTORE PUSH1 0x20 ADD PUSH0 DUP2 MSTORE PUSH1 0x20 ADD PUSH0 PUSH20 0xFFFFFFFFFFFFFFFFFFFFFFFFFFFFFFFFFFFFFFFF AND DUP2 MSTORE PUSH1 0x20 ADD PUSH0 ISZERO ISZERO DUP2 MSTORE POP SWAP1 JUMP JUMPDEST PUSH0 DUP2 MLOAD SWAP1 POP SWAP2 SWAP1 POP JUMP JUMPDEST PUSH0 DUP3 DUP3 MSTORE PUSH1 0x20 DUP3 ADD SWAP1 POP SWAP3 SWAP2 POP POP JUMP JUMPDEST DUP3 DUP2 DUP4 MCOPY PUSH0 DUP4 DUP4 ADD MSTORE POP POP POP JUMP JUMPDEST PUSH0 PUSH1 0x1F NOT PUSH1 0x1F DUP4 ADD AND SWAP1 POP SWAP2 SWAP1 POP JUMP JUMPDEST PUSH0 PUSH2 0x30C6 DUP3 PUSH2 0x3084 JUMP JUMPDEST PUSH2 0x30D0 DUP2 DUP6 PUSH2 0x308E JUMP JUMPDEST SWAP4 POP PUSH2 0x30E0 DUP2 DUP6 PUSH1 0x20 DUP7 ADD PUSH2 0x309E JUMP JUMPDEST PUSH2 0x30E9 DUP2 PUSH2 0x30AC JUMP JUMPDEST DUP5 ADD SWAP2 POP POP SWAP3 SWAP2 POP POP JUMP JUMPDEST PUSH0 PUSH1 0x20 DUP3 ADD SWAP1 POP DUP2 DUP2 SUB PUSH0 DUP4 ADD MSTORE PUSH2 0x310C DUP2 DUP5 PUSH2 0x30BC JUMP JUMPDEST SWAP1 POP SWAP3 SWAP2 POP POP JUMP JUMPDEST PUSH0 DUP1 REVERT JUMPDEST PUSH0 PUSH20 0xFFFFFFFFFFFFFFFFFFFFFFFFFFFFFFFFFFFFFFFF DUP3 AND SWAP1 POP SWAP2 SWAP1 POP JUMP JUMPDEST PUSH0 PUSH2 0x3141 DUP3 PUSH2 0x3118 JUMP JUMPDEST SWAP1 POP SWAP2 SWAP1 POP JUMP JUMPDEST PUSH2 0x3151 DUP2 PUSH2 0x3137 JUMP JUMPDEST DUP2 EQ PUSH2 0x315B JUMPI PUSH0 DUP1 REVERT JUMPDEST POP JUMP JUMPDEST PUSH0 DUP2 CALLDATALOAD SWAP1 POP PUSH2 0x316C DUP2 PUSH2 0x3148 JUMP JUMPDEST SWAP3 SWAP2 POP POP JUMP JUMPDEST PUSH0 DUP2 SWAP1 POP SWAP2 SWAP1 POP JUMP JUMPDEST PUSH2 0x3184 DUP2 PUSH2 0x3172 JUMP JUMPDEST DUP2 EQ PUSH2 0x318E JUMPI PUSH0 DUP1 REVERT JUMPDEST POP JUMP JUMPDEST PUSH0 DUP2 CALLDATALOAD SWAP1 POP PUSH2 0x319F DUP2 PUSH2 0x317B JUMP JUMPDEST SWAP3 SWAP2 POP POP JUMP JUMPDEST PUSH0 DUP1 PUSH1 0x40 DUP4 DUP6 SUB SLT ISZERO PUSH2 0x31BB JUMPI PUSH2 0x31BA PUSH2 0x3114 JUMP JUMPDEST JUMPDEST PUSH0 PUSH2 0x31C8 DUP6 DUP3 DUP7 ADD PUSH2 0x315E JUMP JUMPDEST SWAP3 POP POP PUSH1 0x20 PUSH2 0x31D9 DUP6 DUP3 DUP7 ADD PUSH2 0x3191 JUMP JUMPDEST SWAP2 POP POP SWAP3 POP SWAP3 SWAP1 POP JUMP JUMPDEST PUSH0 DUP2 ISZERO ISZERO SWAP1 POP SWAP2 SWAP1 POP JUMP JUMPDEST PUSH2 0x31F7 DUP2 PUSH2 0x31E3 JUMP JUMPDEST DUP3 MSTORE POP POP JUMP JUMPDEST PUSH0 PUSH1 0x20 DUP3 ADD SWAP1 POP PUSH2 0x3210 PUSH0 DUP4 ADD DUP5 PUSH2 0x31EE JUMP JUMPDEST SWAP3 SWAP2 POP POP JUMP JUMPDEST PUSH0 PUSH1 0x20 DUP3 DUP5 SUB SLT ISZERO PUSH2 0x322B JUMPI PUSH2 0x322A PUSH2 0x3114 JUMP JUMPDEST JUMPDEST PUSH0 PUSH2 0x3238 DUP5 DUP3 DUP6 ADD PUSH2 0x3191 JUMP JUMPDEST SWAP2 POP POP SWAP3 SWAP2 POP POP JUMP JUMPDEST PUSH2 0x324A DUP2 PUSH2 0x3137 JUMP JUMPDEST DUP3 MSTORE POP POP JUMP JUMPDEST PUSH0 PUSH1 0x40 DUP3 ADD SWAP1 POP PUSH2 0x3263 PUSH0 DUP4 ADD DUP6 PUSH2 0x3241 JUMP JUMPDEST PUSH2 0x3270 PUSH1 0x20 DUP4 ADD DUP5 PUSH2 0x31EE JUMP JUMPDEST SWAP4 SWAP3 POP POP POP JUMP JUMPDEST PUSH0 DUP2 SWAP1 POP SWAP2 SWAP1 POP JUMP JUMPDEST PUSH0 PUSH2 0x329A PUSH2 0x3295 PUSH2 0x3290 DUP5 PUSH2 0x3118 JUMP JUMPDEST PUSH2 0x3277 JUMP JUMPDEST PUSH2 0x3118 JUMP JUMPDEST SWAP1 POP SWAP2 SWAP1 POP JUMP JUMPDEST PUSH0 PUSH2 0x32AB DUP3 PUSH2 0x3280 JUMP JUMPDEST SWAP1 POP SWAP2 SWAP1 POP JUMP JUMPDEST PUSH0 PUSH2 0x32BC DUP3 PUSH2 0x32A1 JUMP JUMPDEST SWAP1 POP SWAP2 SWAP1 POP JUMP JUMPDEST PUSH2 0x32CC DUP2 PUSH2 0x32B2 JUMP JUMPDEST DUP3 MSTORE POP POP JUMP JUMPDEST PUSH0 PUSH1 0x20 DUP3 ADD SWAP1 POP PUSH2 0x32E5 PUSH0 DUP4 ADD DUP5 PUSH2 0x32C3 JUMP JUMPDEST SWAP3 SWAP2 POP POP JUMP JUMPDEST PUSH2 0x32F4 DUP2 PUSH2 0x3172 JUMP JUMPDEST DUP3 MSTORE POP POP JUMP JUMPDEST PUSH0 PUSH1 0x20 DUP3 ADD SWAP1 POP PUSH2 0x330D PUSH0 DUP4 ADD DUP5 PUSH2 0x32EB JUMP JUMPDEST SWAP3 SWAP2 POP POP JUMP JUMPDEST PUSH0 PUSH1 0x20 DUP3 DUP5 SUB SLT ISZERO PUSH2 0x3328 JUMPI PUSH2 0x3327 PUSH2 0x3114 JUMP JUMPDEST JUMPDEST PUSH0 PUSH2 0x3335 DUP5 DUP3 DUP6 ADD PUSH2 0x315E JUMP JUMPDEST SWAP2 POP POP SWAP3 SWAP2 POP POP JUMP JUMPDEST PUSH0 DUP1 PUSH0 PUSH1 0x60 DUP5 DUP7 SUB SLT ISZERO PUSH2 0x3355 JUMPI PUSH2 0x3354 PUSH2 0x3114 JUMP JUMPDEST JUMPDEST PUSH0 PUSH2 0x3362 DUP7 DUP3 DUP8 ADD PUSH2 0x315E JUMP JUMPDEST SWAP4 POP POP PUSH1 0x20 PUSH2 0x3373 DUP7 DUP3 DUP8 ADD PUSH2 0x315E JUMP JUMPDEST SWAP3 POP POP PUSH1 0x40 PUSH2 0x3384 DUP7 DUP3 DUP8 ADD PUSH2 0x3191 JUMP JUMPDEST SWAP2 POP POP SWAP3 POP SWAP3 POP SWAP3 JUMP JUMPDEST PUSH0 PUSH1 0xFF DUP3 AND SWAP1 POP SWAP2 SWAP1 POP JUMP JUMPDEST PUSH2 0x33A3 DUP2 PUSH2 0x338E JUMP JUMPDEST DUP3 MSTORE POP POP JUMP JUMPDEST PUSH0 PUSH1 0x20 DUP3 ADD SWAP1 POP PUSH2 0x33BC PUSH0 DUP4 ADD DUP5 PUSH2 0x339A JUMP JUMPDEST SWAP3 SWAP2 POP POP JUMP JUMPDEST PUSH0 DUP1 PUSH1 0x40 DUP4 DUP6 SUB SLT ISZERO PUSH2 0x33D8 JUMPI PUSH2 0x33D7 PUSH2 0x3114 JUMP JUMPDEST JUMPDEST PUSH0 PUSH2 0x33E5 DUP6 DUP3 DUP7 ADD PUSH2 0x3191 JUMP JUMPDEST SWAP3 POP POP PUSH1 0x20 PUSH2 0x33F6 DUP6 DUP3 DUP7 ADD PUSH2 0x3191 JUMP JUMPDEST SWAP2 POP POP SWAP3 POP SWAP3 SWAP1 POP JUMP JUMPDEST PUSH0 PUSH1 0x20 DUP3 ADD SWAP1 POP PUSH2 0x3413 PUSH0 DUP4 ADD DUP5 PUSH2 0x3241 JUMP JUMPDEST SWAP3 SWAP2 POP POP JUMP JUMPDEST PUSH0 DUP1 PUSH0 DUP1 PUSH1 0x80 DUP6 DUP8 SUB SLT ISZERO PUSH2 0x3431 JUMPI PUSH2 0x3430 PUSH2 0x3114 JUMP JUMPDEST JUMPDEST PUSH0 PUSH2 0x343E DUP8 DUP3 DUP9 ADD PUSH2 0x315E JUMP JUMPDEST SWAP5 POP POP PUSH1 0x20 PUSH2 0x344F DUP8 DUP3 DUP9 ADD PUSH2 0x3191 JUMP JUMPDEST SWAP4 POP POP PUSH1 0x40 PUSH2 0x3460 DUP8 DUP3 DUP9 ADD PUSH2 0x3191 JUMP JUMPDEST SWAP3 POP POP PUSH1 0x60 PUSH2 0x3471 DUP8 DUP3 DUP9 ADD PUSH2 0x3191 JUMP JUMPDEST SWAP2 POP POP SWAP3 SWAP6 SWAP2 SWAP5 POP SWAP3 POP JUMP JUMPDEST PUSH0 PUSH1 0xA0 DUP3 ADD SWAP1 POP PUSH2 0x3490 PUSH0 DUP4 ADD DUP9 PUSH2 0x3241 JUMP JUMPDEST PUSH2 0x349D PUSH1 0x20 DUP4 ADD DUP8 PUSH2 0x32EB JUMP JUMPDEST PUSH2 0x34AA PUSH1 0x40 DUP4 ADD DUP7 PUSH2 0x32EB JUMP JUMPDEST PUSH2 0x34B7 PUSH1 0x60 DUP4 ADD DUP6 PUSH2 0x3241 JUMP JUMPDEST PUSH2 0x34C4 PUSH1 0x80 DUP4 ADD DUP5 PUSH2 0x31EE JUMP JUMPDEST SWAP7 SWAP6 POP POP POP POP POP POP JUMP JUMPDEST PUSH0 DUP2 MLOAD SWAP1 POP SWAP2 SWAP1 POP JUMP JUMPDEST PUSH0 DUP3 DUP3 MSTORE PUSH1 0x20 DUP3 ADD SWAP1 POP SWAP3 SWAP2 POP POP JUMP JUMPDEST PUSH0 DUP2 SWAP1 POP PUSH1 0x20 DUP3 ADD SWAP1 POP SWAP2 SWAP1 POP JUMP JUMPDEST PUSH2 0x3500 DUP2 PUSH2 0x3137 JUMP JUMPDEST DUP3 MSTORE POP POP JUMP JUMPDEST PUSH0 PUSH2 0x3511 DUP4 DUP4 PUSH2 0x34F7 JUMP JUMPDEST PUSH1 0x20 DUP4 ADD SWAP1 POP SWAP3 SWAP2 POP POP JUMP JUMPDEST PUSH0 PUSH1 0x20 DUP3 ADD SWAP1 POP SWAP2 SWAP1 POP JUMP JUMPDEST PUSH0 PUSH2 0x3533 DUP3 PUSH2 0x34CE JUMP JUMPDEST PUSH2 0x353D DUP2 DUP6 PUSH2 0x34D8 JUMP JUMPDEST SWAP4 POP PUSH2 0x3548 DUP4 PUSH2 0x34E8 JUMP JUMPDEST DUP1 PUSH0 JUMPDEST DUP4 DUP2 LT ISZERO PUSH2 0x3578 JUMPI DUP2 MLOAD PUSH2 0x355F DUP9 DUP3 PUSH2 0x3506 JUMP JUMPDEST SWAP8 POP PUSH2 0x356A DUP4 PUSH2 0x351D JUMP JUMPDEST SWAP3 POP POP PUSH1 0x1 DUP2 ADD SWAP1 POP PUSH2 0x354B JUMP JUMPDEST POP DUP6 SWAP4 POP POP POP POP SWAP3 SWAP2 POP POP JUMP JUMPDEST PUSH0 PUSH1 0x20 DUP3 ADD SWAP1 POP DUP2 DUP2 SUB PUSH0 DUP4 ADD MSTORE PUSH2 0x359D DUP2 DUP5 PUSH2 0x3529 JUMP JUMPDEST SWAP1 POP SWAP3 SWAP2 POP POP JUMP JUMPDEST PUSH0 DUP2 MLOAD SWAP1 POP SWAP2 SWAP1 POP JUMP JUMPDEST PUSH0 DUP3 DUP3 MSTORE PUSH1 0x20 DUP3 ADD SWAP1 POP SWAP3 SWAP2 POP POP JUMP JUMPDEST PUSH0 DUP2 SWAP1 POP PUSH1 0x20 DUP3 ADD SWAP1 POP SWAP2 SWAP1 POP JUMP JUMPDEST PUSH2 0x35D7 DUP2 PUSH2 0x3172 JUMP JUMPDEST DUP3 MSTORE POP POP JUMP JUMPDEST PUSH2 0x35E6 DUP2 PUSH2 0x31E3 JUMP JUMPDEST DUP3 MSTORE POP POP JUMP JUMPDEST PUSH1 0xA0 DUP3 ADD PUSH0 DUP3 ADD MLOAD PUSH2 0x3600 PUSH0 DUP6 ADD DUP3 PUSH2 0x34F7 JUMP JUMPDEST POP PUSH1 0x20 DUP3 ADD MLOAD PUSH2 0x3613 PUSH1 0x20 DUP6 ADD DUP3 PUSH2 0x35CE JUMP JUMPDEST POP PUSH1 0x40 DUP3 ADD MLOAD PUSH2 0x3626 PUSH1 0x40 DUP6 ADD DUP3 PUSH2 0x35CE JUMP JUMPDEST POP PUSH1 0x60 DUP3 ADD MLOAD PUSH2 0x3639 PUSH1 0x60 DUP6 ADD DUP3 PUSH2 0x34F7 JUMP JUMPDEST POP PUSH1 0x80 DUP3 ADD MLOAD PUSH2 0x364C PUSH1 0x80 DUP6 ADD DUP3 PUSH2 0x35DD JUMP JUMPDEST POP POP POP POP JUMP JUMPDEST PUSH0 PUSH2 0x365D DUP4 DUP4 PUSH2 0x35EC JUMP JUMPDEST PUSH1 0xA0 DUP4 ADD SWAP1 POP SWAP3 SWAP2 POP POP JUMP JUMPDEST PUSH0 PUSH1 0x20 DUP3 ADD SWAP1 POP SWAP2 SWAP1 POP JUMP JUMPDEST PUSH0 PUSH2 0x367F DUP3 PUSH2 0x35A5 JUMP JUMPDEST PUSH2 0x3689 DUP2 DUP6 PUSH2 0x35AF JUMP JUMPDEST SWAP4 POP PUSH2 0x3694 DUP4 PUSH2 0x35BF JUMP JUMPDEST DUP1 PUSH0 JUMPDEST DUP4 DUP2 LT ISZERO PUSH2 0x36C4 JUMPI DUP2 MLOAD PUSH2 0x36AB DUP9 DUP3 PUSH2 0x3652 JUMP JUMPDEST SWAP8 POP PUSH2 0x36B6 DUP4 PUSH2 0x3669 JUMP JUMPDEST SWAP3 POP POP PUSH1 0x1 DUP2 ADD SWAP1 POP PUSH2 0x3697 JUMP JUMPDEST POP DUP6 SWAP4 POP POP POP POP SWAP3 SWAP2 POP POP JUMP JUMPDEST PUSH0 PUSH1 0x20 DUP3 ADD SWAP1 POP DUP2 DUP2 SUB PUSH0 DUP4 ADD MSTORE PUSH2 0x36E9 DUP2 DUP5 PUSH2 0x3675 JUMP JUMPDEST SWAP1 POP SWAP3 SWAP2 POP POP JUMP JUMPDEST PUSH0 PUSH1 0xA0 DUP3 ADD SWAP1 POP PUSH2 0x3704 PUSH0 DUP4 ADD DUP9 PUSH2 0x32EB JUMP JUMPDEST PUSH2 0x3711 PUSH1 0x20 DUP4 ADD DUP8 PUSH2 0x32EB JUMP JUMPDEST PUSH2 0x371E PUSH1 0x40 DUP4 ADD DUP7 PUSH2 0x32EB JUMP JUMPDEST PUSH2 0x372B PUSH1 0x60 DUP4 ADD DUP6 PUSH2 0x32EB JUMP JUMPDEST PUSH2 0x3738 PUSH1 0x80 DUP4 ADD DUP5 PUSH2 0x32EB JUMP JUMPDEST SWAP7 SWAP6 POP POP POP POP POP POP JUMP JUMPDEST PUSH0 DUP1 PUSH1 0x40 DUP4 DUP6 SUB SLT ISZERO PUSH2 0x3758 JUMPI PUSH2 0x3757 PUSH2 0x3114 JUMP JUMPDEST JUMPDEST PUSH0 PUSH2 0x3765 DUP6 DUP3 DUP7 ADD PUSH2 0x315E JUMP JUMPDEST SWAP3 POP POP PUSH1 0x20 PUSH2 0x3776 DUP6 DUP3 DUP7 ADD PUSH2 0x315E JUMP JUMPDEST SWAP2 POP POP SWAP3 POP SWAP3 SWAP1 POP JUMP JUMPDEST PUSH0 PUSH1 0xA0 DUP3 ADD SWAP1 POP PUSH2 0x3793 PUSH0 DUP4 ADD DUP9 PUSH2 0x3241 JUMP JUMPDEST PUSH2 0x37A0 PUSH1 0x20 DUP4 ADD DUP8 PUSH2 0x32EB JUMP JUMPDEST PUSH2 0x37AD PUSH1 0x40 DUP4 ADD DUP7 PUSH2 0x32EB JUMP JUMPDEST PUSH2 0x37BA PUSH1 0x60 DUP4 ADD DUP6 PUSH2 0x32EB JUMP JUMPDEST PUSH2 0x37C7 PUSH1 0x80 DUP4 ADD DUP5 PUSH2 0x31EE JUMP JUMPDEST SWAP7 SWAP6 POP POP POP POP POP POP JUMP JUMPDEST PUSH32 0x4E487B7100000000000000000000000000000000000000000000000000000000 PUSH0 MSTORE PUSH1 0x22 PUSH1 0x4 MSTORE PUSH1 0x24 PUSH0 REVERT JUMPDEST PUSH0 PUSH1 0x2 DUP3 DIV SWAP1 POP PUSH1 0x1 DUP3 AND DUP1 PUSH2 0x3815 JUMPI PUSH1 0x7F DUP3 AND SWAP2 POP JUMPDEST PUSH1 0x20 DUP3 LT DUP2 SUB PUSH2 0x3828 JUMPI PUSH2 0x3827 PUSH2 0x37D1 JUMP JUMPDEST JUMPDEST POP SWAP2 SWAP1 POP JUMP JUMPDEST PUSH32 0x4F6E6C7920706172746E657273206F722074686520666F756E6465722063616E PUSH0 DUP3 ADD MSTORE PUSH32 0x206372656174652070726F706F73616C73000000000000000000000000000000 PUSH1 0x20 DUP3 ADD MSTORE POP JUMP JUMPDEST PUSH0 PUSH2 0x3888 PUSH1 0x31 DUP4 PUSH2 0x308E JUMP JUMPDEST SWAP2 POP PUSH2 0x3893 DUP3 PUSH2 0x382E JUMP JUMPDEST PUSH1 0x40 DUP3 ADD SWAP1 POP SWAP2 SWAP1 POP JUMP JUMPDEST PUSH0 PUSH1 0x20 DUP3 ADD SWAP1 POP DUP2 DUP2 SUB PUSH0 DUP4 ADD MSTORE PUSH2 0x38B5 DUP2 PUSH2 0x387C JUMP JUMPDEST SWAP1 POP SWAP2 SWAP1 POP JUMP JUMPDEST PUSH32 0x496E76616C696420706172746E65722061646472657373000000000000000000 PUSH0 DUP3 ADD MSTORE POP JUMP JUMPDEST PUSH0 PUSH2 0x38F0 PUSH1 0x17 DUP4 PUSH2 0x308E JUMP JUMPDEST SWAP2 POP PUSH2 0x38FB DUP3 PUSH2 0x38BC JUMP JUMPDEST PUSH1 0x20 DUP3 ADD SWAP1 POP SWAP2 SWAP1 POP JUMP JUMPDEST PUSH0 PUSH1 0x20 DUP3 ADD SWAP1 POP DUP2 DUP2 SUB PUSH0 DUP4 ADD MSTORE PUSH2 0x391D DUP2 PUSH2 0x38E4 JUMP JUMPDEST SWAP1 POP SWAP2 SWAP1 POP JUMP JUMPDEST PUSH0 PUSH1 0x40 DUP3 ADD SWAP1 POP PUSH2 0x3937 PUSH0 DUP4 ADD DUP6 PUSH2 0x32EB JUMP JUMPDEST PUSH2 0x3944 PUSH1 0x20 DUP4 ADD DUP5 PUSH2 0x3241 JUMP JUMPDEST SWAP4 SWAP3 POP POP POP JUMP JUMPDEST PUSH32 0x4E487B7100000000000000000000000000000000000000000000000000000000 PUSH0 MSTORE PUSH1 0x11 PUSH1 0x4 MSTORE PUSH1 0x24 PUSH0 REVERT JUMPDEST PUSH0 PUSH2 0x3982 DUP3 PUSH2 0x3172 JUMP JUMPDEST SWAP2 POP PUSH32 0xFFFFFFFFFFFFFFFFFFFFFFFFFFFFFFFFFFFFFFFFFFFFFFFFFFFFFFFFFFFFFFFF DUP3 SUB PUSH2 0x39B4 JUMPI PUSH2 0x39B3 PUSH2 0x394B JUMP JUMPDEST JUMPDEST PUSH1 0x1 DUP3 ADD SWAP1 POP SWAP2 SWAP1 POP JUMP JUMPDEST PUSH32 0x596F752068617665206E6F20746F6B656E730000000000000000000000000000 PUSH0 DUP3 ADD MSTORE POP JUMP JUMPDEST PUSH0 PUSH2 0x39F3 PUSH1 0x12 DUP4 PUSH2 0x308E JUMP JUMPDEST SWAP2 POP PUSH2 0x39FE DUP3 PUSH2 0x39BF JUMP JUMPDEST PUSH1 0x20 DUP3 ADD SWAP1 POP SWAP2 SWAP1 POP JUMP JUMPDEST PUSH0 PUSH1 0x20 DUP3 ADD SWAP1 POP DUP2 DUP2 SUB PUSH0 DUP4 ADD MSTORE PUSH2 0x3A20 DUP2 PUSH2 0x39E7 JUMP JUMPDEST SWAP1 POP SWAP2 SWAP1 POP JUMP JUMPDEST PUSH0 DUP2 MLOAD SWAP1 POP PUSH2 0x3A35 DUP2 PUSH2 0x317B JUMP JUMPDEST SWAP3 SWAP2 POP POP JUMP JUMPDEST PUSH0 PUSH1 0x20 DUP3 DUP5 SUB SLT ISZERO PUSH2 0x3A50 JUMPI PUSH2 0x3A4F PUSH2 0x3114 JUMP JUMPDEST JUMPDEST PUSH0 PUSH2 0x3A5D DUP5 DUP3 DUP6 ADD PUSH2 0x3A27 JUMP JUMPDEST SWAP2 POP POP SWAP3 SWAP2 POP POP JUMP JUMPDEST PUSH0 PUSH2 0x3A70 DUP3 PUSH2 0x3172 JUMP JUMPDEST SWAP2 POP PUSH2 0x3A7B DUP4 PUSH2 0x3172 JUMP JUMPDEST SWAP3 POP DUP3 DUP3 MUL PUSH2 0x3A89 DUP2 PUSH2 0x3172 JUMP JUMPDEST SWAP2 POP DUP3 DUP3 DIV DUP5 EQ DUP4 ISZERO OR PUSH2 0x3AA0 JUMPI PUSH2 0x3A9F PUSH2 0x394B JUMP JUMPDEST JUMPDEST POP SWAP3 SWAP2 POP POP JUMP JUMPDEST PUSH32 0x4E487B7100000000000000000000000000000000000000000000000000000000 PUSH0 MSTORE PUSH1 0x12 PUSH1 0x4 MSTORE PUSH1 0x24 PUSH0 REVERT JUMPDEST PUSH0 PUSH2 0x3ADE DUP3 PUSH2 0x3172 JUMP JUMPDEST SWAP2 POP PUSH2 0x3AE9 DUP4 PUSH2 0x3172 JUMP JUMPDEST SWAP3 POP DUP3 PUSH2 0x3AF9 JUMPI PUSH2 0x3AF8 PUSH2 0x3AA7 JUMP JUMPDEST JUMPDEST DUP3 DUP3 DIV SWAP1 POP SWAP3 SWAP2 POP POP JUMP JUMPDEST PUSH0 PUSH1 0x40 DUP3 ADD SWAP1 POP PUSH2 0x3B17 PUSH0 DUP4 ADD DUP6 PUSH2 0x3241 JUMP JUMPDEST PUSH2 0x3B24 PUSH1 0x20 DUP4 ADD DUP5 PUSH2 0x32EB JUMP JUMPDEST SWAP4 SWAP3 POP POP POP JUMP JUMPDEST PUSH2 0x3B34 DUP2 PUSH2 0x31E3 JUMP JUMPDEST DUP2 EQ PUSH2 0x3B3E JUMPI PUSH0 DUP1 REVERT JUMPDEST POP JUMP JUMPDEST PUSH0 DUP2 MLOAD SWAP1 POP PUSH2 0x3B4F DUP2 PUSH2 0x3B2B JUMP JUMPDEST SWAP3 SWAP2 POP POP JUMP JUMPDEST PUSH0 PUSH1 0x20 DUP3 DUP5 SUB SLT ISZERO PUSH2 0x3B6A JUMPI PUSH2 0x3B69 PUSH2 0x3114 JUMP JUMPDEST JUMPDEST PUSH0 PUSH2 0x3B77 DUP5 DUP3 DUP6 ADD PUSH2 0x3B41 JUMP JUMPDEST SWAP2 POP POP SWAP3 SWAP2 POP POP JUMP JUMPDEST PUSH32 0x55534454207472616E73666572206661696C6564000000000000000000000000 PUSH0 DUP3 ADD MSTORE POP JUMP JUMPDEST PUSH0 PUSH2 0x3BB4 PUSH1 0x14 DUP4 PUSH2 0x308E JUMP JUMPDEST SWAP2 POP PUSH2 0x3BBF DUP3 PUSH2 0x3B80 JUMP JUMPDEST PUSH1 0x20 DUP3 ADD SWAP1 POP SWAP2 SWAP1 POP JUMP JUMPDEST PUSH0 PUSH1 0x20 DUP3 ADD SWAP1 POP DUP2 DUP2 SUB PUSH0 DUP4 ADD MSTORE PUSH2 0x3BE1 DUP2 PUSH2 0x3BA8 JUMP JUMPDEST SWAP1 POP SWAP2 SWAP1 POP JUMP JUMPDEST PUSH32 0x496E76616C696420746F6B656E20616D6F756E74000000000000000000000000 PUSH0 DUP3 ADD MSTORE POP JUMP JUMPDEST PUSH0 PUSH2 0x3C1C PUSH1 0x14 DUP4 PUSH2 0x308E JUMP JUMPDEST SWAP2 POP PUSH2 0x3C27 DUP3 PUSH2 0x3BE8 JUMP JUMPDEST PUSH1 0x20 DUP3 ADD SWAP1 POP SWAP2 SWAP1 POP JUMP JUMPDEST PUSH0 PUSH1 0x20 DUP3 ADD SWAP1 POP DUP2 DUP2 SUB PUSH0 DUP4 ADD MSTORE PUSH2 0x3C49 DUP2 PUSH2 0x3C10 JUMP JUMPDEST SWAP1 POP SWAP2 SWAP1 POP JUMP JUMPDEST PUSH32 0x496E76616C696420707269636500000000000000000000000000000000000000 PUSH0 DUP3 ADD MSTORE POP JUMP JUMPDEST PUSH0 PUSH2 0x3C84 PUSH1 0xD DUP4 PUSH2 0x308E JUMP JUMPDEST SWAP2 POP PUSH2 0x3C8F DUP3 PUSH2 0x3C50 JUMP JUMPDEST PUSH1 0x20 DUP3 ADD SWAP1 POP SWAP2 SWAP1 POP JUMP JUMPDEST PUSH0 PUSH1 0x20 DUP3 ADD SWAP1 POP DUP2 DUP2 SUB PUSH0 DUP4 ADD MSTORE PUSH2 0x3CB1 DUP2 PUSH2 0x3C78 JUMP JUMPDEST SWAP1 POP SWAP2 SWAP1 POP JUMP JUMPDEST PUSH32 0x496E73756666696369656E742062616C616E6365000000000000000000000000 PUSH0 DUP3 ADD MSTORE POP JUMP JUMPDEST PUSH0 PUSH2 0x3CEC PUSH1 0x14 DUP4 PUSH2 0x308E JUMP JUMPDEST SWAP2 POP PUSH2 0x3CF7 DUP3 PUSH2 0x3CB8 JUMP JUMPDEST PUSH1 0x20 DUP3 ADD SWAP1 POP SWAP2 SWAP1 POP JUMP JUMPDEST PUSH0 PUSH1 0x20 DUP3 ADD SWAP1 POP DUP2 DUP2 SUB PUSH0 DUP4 ADD MSTORE PUSH2 0x3D19 DUP2 PUSH2 0x3CE0 JUMP JUMPDEST SWAP1 POP SWAP2 SWAP1 POP JUMP JUMPDEST PUSH32 0x596F7520617265206E6F74206120706172746E65720000000000000000000000 PUSH0 DUP3 ADD MSTORE POP JUMP JUMPDEST PUSH0 PUSH2 0x3D54 PUSH1 0x15 DUP4 PUSH2 0x308E JUMP JUMPDEST SWAP2 POP PUSH2 0x3D5F DUP3 PUSH2 0x3D20 JUMP JUMPDEST PUSH1 0x20 DUP3 ADD SWAP1 POP SWAP2 SWAP1 POP JUMP JUMPDEST PUSH0 PUSH1 0x20 DUP3 ADD SWAP1 POP DUP2 DUP2 SUB PUSH0 DUP4 ADD MSTORE PUSH2 0x3D81 DUP2 PUSH2 0x3D48 JUMP JUMPDEST SWAP1 POP SWAP2 SWAP1 POP JUMP JUMPDEST PUSH32 0x596F75206861766520616C726561647920636C61696D656420616C6C20796F75 PUSH0 DUP3 ADD MSTORE PUSH32 0x7220746F6B656E73000000000000000000000000000000000000000000000000 PUSH1 0x20 DUP3 ADD MSTORE POP JUMP JUMPDEST PUSH0 PUSH2 0x3DE2 PUSH1 0x28 DUP4 PUSH2 0x308E JUMP JUMPDEST SWAP2 POP PUSH2 0x3DED DUP3 PUSH2 0x3D88 JUMP JUMPDEST PUSH1 0x40 DUP3 ADD SWAP1 POP SWAP2 SWAP1 POP JUMP JUMPDEST PUSH0 PUSH1 0x20 DUP3 ADD SWAP1 POP DUP2 DUP2 SUB PUSH0 DUP4 ADD MSTORE PUSH2 0x3E0F DUP2 PUSH2 0x3DD6 JUMP JUMPDEST SWAP1 POP SWAP2 SWAP1 POP JUMP JUMPDEST PUSH0 PUSH2 0x3E20 DUP3 PUSH2 0x3172 JUMP JUMPDEST SWAP2 POP PUSH2 0x3E2B DUP4 PUSH2 0x3172 JUMP JUMPDEST SWAP3 POP DUP3 DUP3 SUB SWAP1 POP DUP2 DUP2 GT ISZERO PUSH2 0x3E43 JUMPI PUSH2 0x3E42 PUSH2 0x394B JUMP JUMPDEST JUMPDEST SWAP3 SWAP2 POP POP JUMP JUMPDEST PUSH0 PUSH2 0x3E53 DUP3 PUSH2 0x3172 JUMP JUMPDEST SWAP2 POP PUSH2 0x3E5E DUP4 PUSH2 0x3172 JUMP JUMPDEST SWAP3 POP DUP3 DUP3 ADD SWAP1 POP DUP1 DUP3 GT ISZERO PUSH2 0x3E76 JUMPI PUSH2 0x3E75 PUSH2 0x394B JUMP JUMPDEST JUMPDEST SWAP3 SWAP2 POP POP JUMP JUMPDEST PUSH32 0x4F6E6C792074686520666F756E6465722063616E206164642074686520666972 PUSH0 DUP3 ADD MSTORE PUSH32 0x737420706172746E65722E000000000000000000000000000000000000000000 PUSH1 0x20 DUP3 ADD MSTORE POP JUMP JUMPDEST PUSH0 PUSH2 0x3ED6 PUSH1 0x2B DUP4 PUSH2 0x308E JUMP JUMPDEST SWAP2 POP PUSH2 0x3EE1 DUP3 PUSH2 0x3E7C JUMP JUMPDEST PUSH1 0x40 DUP3 ADD SWAP1 POP SWAP2 SWAP1 POP JUMP JUMPDEST PUSH0 PUSH1 0x20 DUP3 ADD SWAP1 POP DUP2 DUP2 SUB PUSH0 DUP4 ADD MSTORE PUSH2 0x3F03 DUP2 PUSH2 0x3ECA JUMP JUMPDEST SWAP1 POP SWAP2 SWAP1 POP JUMP JUMPDEST PUSH32 0x4E487B7100000000000000000000000000000000000000000000000000000000 PUSH0 MSTORE PUSH1 0x32 PUSH1 0x4 MSTORE PUSH1 0x24 PUSH0 REVERT JUMPDEST PUSH32 0x4E487B7100000000000000000000000000000000000000000000000000000000 PUSH0 MSTORE PUSH1 0x41 PUSH1 0x4 MSTORE PUSH1 0x24 PUSH0 REVERT JUMPDEST PUSH32 0x4F6E6C7920706172746E657273206F722074686520666F756E6465722063616E PUSH0 DUP3 ADD MSTORE PUSH32 0x20766F7465000000000000000000000000000000000000000000000000000000 PUSH1 0x20 DUP3 ADD MSTORE POP JUMP JUMPDEST PUSH0 PUSH2 0x3FBE PUSH1 0x25 DUP4 PUSH2 0x308E JUMP JUMPDEST SWAP2 POP PUSH2 0x3FC9 DUP3 PUSH2 0x3F64 JUMP JUMPDEST PUSH1 0x40 DUP3 ADD SWAP1 POP SWAP2 SWAP1 POP JUMP JUMPDEST PUSH0 PUSH1 0x20 DUP3 ADD SWAP1 POP DUP2 DUP2 SUB PUSH0 DUP4 ADD MSTORE PUSH2 0x3FEB DUP2 PUSH2 0x3FB2 JUMP JUMPDEST SWAP1 POP SWAP2 SWAP1 POP JUMP JUMPDEST PUSH32 0x50726F706F73616C20494420646F6573206E6F74206578697374000000000000 PUSH0 DUP3 ADD MSTORE POP JUMP JUMPDEST PUSH0 PUSH2 0x4026 PUSH1 0x1A DUP4 PUSH2 0x308E JUMP JUMPDEST SWAP2 POP PUSH2 0x4031 DUP3 PUSH2 0x3FF2 JUMP JUMPDEST PUSH1 0x20 DUP3 ADD SWAP1 POP SWAP2 SWAP1 POP JUMP JUMPDEST PUSH0 PUSH1 0x20 DUP3 ADD SWAP1 POP DUP2 DUP2 SUB PUSH0 DUP4 ADD MSTORE PUSH2 0x4053 DUP2 PUSH2 0x401A JUMP JUMPDEST SWAP1 POP SWAP2 SWAP1 POP JUMP JUMPDEST PUSH32 0x50726F706F73616C20616C726561647920657865637574656400000000000000 PUSH0 DUP3 ADD MSTORE POP JUMP JUMPDEST PUSH0 PUSH2 0x408E PUSH1 0x19 DUP4 PUSH2 0x308E JUMP JUMPDEST SWAP2 POP PUSH2 0x4099 DUP3 PUSH2 0x405A JUMP JUMPDEST PUSH1 0x20 DUP3 ADD SWAP1 POP SWAP2 SWAP1 POP JUMP JUMPDEST PUSH0 PUSH1 0x20 DUP3 ADD SWAP1 POP DUP2 DUP2 SUB PUSH0 DUP4 ADD MSTORE PUSH2 0x40BB DUP2 PUSH2 0x4082 JUMP JUMPDEST SWAP1 POP SWAP2 SWAP1 POP JUMP JUMPDEST PUSH32 0x596F75206861766520616C726561647920766F746564206F6E20746869732070 PUSH0 DUP3 ADD MSTORE PUSH32 0x726F706F73616C00000000000000000000000000000000000000000000000000 PUSH1 0x20 DUP3 ADD MSTORE POP JUMP JUMPDEST PUSH0 PUSH2 0x411C PUSH1 0x27 DUP4 PUSH2 0x308E JUMP JUMPDEST SWAP2 POP PUSH2 0x4127 DUP3 PUSH2 0x40C2 JUMP JUMPDEST PUSH1 0x40 DUP3 ADD SWAP1 POP SWAP2 SWAP1 POP JUMP JUMPDEST PUSH0 PUSH1 0x20 DUP3 ADD SWAP1 POP DUP2 DUP2 SUB PUSH0 DUP4 ADD MSTORE PUSH2 0x4149 DUP2 PUSH2 0x4110 JUMP JUMPDEST SWAP1 POP SWAP2 SWAP1 POP JUMP JUMPDEST PUSH32 0x4E6F206163746976652073656C6C206F66666572000000000000000000000000 PUSH0 DUP3 ADD MSTORE POP JUMP JUMPDEST PUSH0 PUSH2 0x4184 PUSH1 0x14 DUP4 PUSH2 0x308E JUMP JUMPDEST SWAP2 POP PUSH2 0x418F DUP3 PUSH2 0x4150 JUMP JUMPDEST PUSH1 0x20 DUP3 ADD SWAP1 POP SWAP2 SWAP1 POP JUMP JUMPDEST PUSH0 PUSH1 0x20 DUP3 ADD SWAP1 POP DUP2 DUP2 SUB PUSH0 DUP4 ADD MSTORE PUSH2 0x41B1 DUP2 PUSH2 0x4178 JUMP JUMPDEST SWAP1 POP SWAP2 SWAP1 POP JUMP JUMPDEST PUSH0 PUSH1 0x60 DUP3 ADD SWAP1 POP PUSH2 0x41CB PUSH0 DUP4 ADD DUP7 PUSH2 0x3241 JUMP JUMPDEST PUSH2 0x41D8 PUSH1 0x20 DUP4 ADD DUP6 PUSH2 0x3241 JUMP JUMPDEST PUSH2 0x41E5 PUSH1 0x40 DUP4 ADD DUP5 PUSH2 0x32EB JUMP JUMPDEST SWAP5 SWAP4 POP POP POP POP JUMP JUMPDEST PUSH32 0x55534443207472616E73666572206661696C6564000000000000000000000000 PUSH0 DUP3 ADD MSTORE POP JUMP JUMPDEST PUSH0 PUSH2 0x4221 PUSH1 0x14 DUP4 PUSH2 0x308E JUMP JUMPDEST SWAP2 POP PUSH2 0x422C DUP3 PUSH2 0x41ED JUMP JUMPDEST PUSH1 0x20 DUP3 ADD SWAP1 POP SWAP2 SWAP1 POP JUMP JUMPDEST PUSH0 PUSH1 0x20 DUP3 ADD SWAP1 POP DUP2 DUP2 SUB PUSH0 DUP4 ADD MSTORE PUSH2 0x424E DUP2 PUSH2 0x4215 JUMP JUMPDEST SWAP1 POP SWAP2 SWAP1 POP JUMP JUMPDEST PUSH0 PUSH1 0x60 DUP3 ADD SWAP1 POP PUSH2 0x4268 PUSH0 DUP4 ADD DUP7 PUSH2 0x3241 JUMP JUMPDEST PUSH2 0x4275 PUSH1 0x20 DUP4 ADD DUP6 PUSH2 0x32EB JUMP JUMPDEST PUSH2 0x4282 PUSH1 0x40 DUP4 ADD DUP5 PUSH2 0x32EB JUMP JUMPDEST SWAP5 SWAP4 POP POP POP POP JUMP JUMPDEST PUSH32 0x5265656E7472616E637947756172643A207265656E7472616E742063616C6C00 PUSH0 DUP3 ADD MSTORE POP JUMP JUMPDEST PUSH0 PUSH2 0x42BE PUSH1 0x1F DUP4 PUSH2 0x308E JUMP JUMPDEST SWAP2 POP PUSH2 0x42C9 DUP3 PUSH2 0x428A JUMP JUMPDEST PUSH1 0x20 DUP3 ADD SWAP1 POP SWAP2 SWAP1 POP JUMP JUMPDEST PUSH0 PUSH1 0x20 DUP3 ADD SWAP1 POP DUP2 DUP2 SUB PUSH0 DUP4 ADD MSTORE PUSH2 0x42EB DUP2 PUSH2 0x42B2 JUMP JUMPDEST SWAP1 POP SWAP2 SWAP1 POP JUMP JUMPDEST PUSH32 0x496E76616C696420746F6B656E7320616D6F756E740000000000000000000000 PUSH0 DUP3 ADD MSTORE POP JUMP JUMPDEST PUSH0 PUSH2 0x4326 PUSH1 0x15 DUP4 PUSH2 0x308E JUMP JUMPDEST SWAP2 POP PUSH2 0x4331 DUP3 PUSH2 0x42F2 JUMP JUMPDEST PUSH1 0x20 DUP3 ADD SWAP1 POP SWAP2 SWAP1 POP JUMP JUMPDEST PUSH0 PUSH1 0x20 DUP3 ADD SWAP1 POP DUP2 DUP2 SUB PUSH0 DUP4 ADD MSTORE PUSH2 0x4353 DUP2 PUSH2 0x431A JUMP JUMPDEST SWAP1 POP SWAP2 SWAP1 POP JUMP JUMPDEST PUSH32 0x436C69666620706572696F64206D757374206265206C657373207468616E206F PUSH0 DUP3 ADD MSTORE PUSH32 0x7220657175616C20746F2076657374696E6720706572696F6400000000000000 PUSH1 0x20 DUP3 ADD MSTORE POP JUMP JUMPDEST PUSH0 PUSH2 0x43B4 PUSH1 0x39 DUP4 PUSH2 0x308E JUMP JUMPDEST SWAP2 POP PUSH2 0x43BF DUP3 PUSH2 0x435A JUMP JUMPDEST PUSH1 0x40 DUP3 ADD SWAP1 POP SWAP2 SWAP1 POP JUMP JUMPDEST PUSH0 PUSH1 0x20 DUP3 ADD SWAP1 POP DUP2 DUP2 SUB PUSH0 DUP4 ADD MSTORE PUSH2 0x43E1 DUP2 PUSH2 0x43A8 JUMP JUMPDEST SWAP1 POP SWAP2 SWAP1 POP JUMP JUMPDEST PUSH32 0x506172746E65722068617320616C726561647920636C61696D656420746F6B65 PUSH0 DUP3 ADD MSTORE PUSH32 0x6E73000000000000000000000000000000000000000000000000000000000000 PUSH1 0x20 DUP3 ADD MSTORE POP JUMP JUMPDEST PUSH0 PUSH2 0x4442 PUSH1 0x22 DUP4 PUSH2 0x308E JUMP JUMPDEST SWAP2 POP PUSH2 0x444D DUP3 PUSH2 0x43E8 JUMP JUMPDEST PUSH1 0x40 DUP3 ADD SWAP1 POP SWAP2 SWAP1 POP JUMP JUMPDEST PUSH0 PUSH1 0x20 DUP3 ADD SWAP1 POP DUP2 DUP2 SUB PUSH0 DUP4 ADD MSTORE PUSH2 0x446F DUP2 PUSH2 0x4436 JUMP JUMPDEST SWAP1 POP SWAP2 SWAP1 POP JUMP JUMPDEST PUSH32 0x4E487B7100000000000000000000000000000000000000000000000000000000 PUSH0 MSTORE PUSH1 0x31 PUSH1 0x4 MSTORE PUSH1 0x24 PUSH0 REVERT INVALID LOG2 PUSH5 0x6970667358 0x22 SLT KECCAK256 DUP7 0xCD 0xB6 0xEC BLOBHASH 0x2C 0x21 0xCC PC BLOCKHASH 0xDE BALANCE SWAP5 CHAINID 0x1E INVALID 0xEE 0xD7 SLOAD 0xCD 0xCA DUP4 0xAB NOT 0xB3 DUP15 SWAP3 DUP9 MSIZE 0xED 0xA7 SWAP13 PUSH5 0x736F6C6343 STOP ADDMOD NOT STOP CALLER "
		},
		"gasEstimates": {
			"creation": {
				"codeDepositCost": "3525000",
				"executionCost": "infinite",
				"totalCost": "infinite"
			},
			"external": {
				"addProposals(uint256)": "infinite",
				"allowance(address,address)": "infinite",
				"approve(address,uint256)": "infinite",
				"balanceOf(address)": "2897",
				"burn(uint256)": "infinite",
				"burnFrom(address,uint256)": "infinite",
				"buyEquity(address)": "infinite",
				"calculateClaimableTokens(address)": "infinite",
				"cancelSellEquity()": "infinite",
				"claimEquity()": "infinite",
				"createAddProposal(address,uint256,uint256,uint256)": "infinite",
				"createDismissProposal(address)": "infinite",
				"decimals()": "406",
				"dismissProposals(uint256)": "5243",
				"founder()": "2575",
				"getAllSellEquityDetails()": "infinite",
				"getPartners()": "infinite",
				"name()": "infinite",
				"nextProposalId()": "2471",
				"partners(uint256)": "5011",
				"partnersDetails(address)": "infinite",
				"sellEquity(uint256,uint256)": "infinite",
				"sellEquityDetails(address)": "infinite",
				"symbol()": "infinite",
				"totalSupply()": "2500",
				"transfer(address,uint256)": "infinite",
				"transferFrom(address,address,uint256)": "infinite",
				"usdcToken()": "infinite",
				"voteAddProposal(uint256)": "infinite",
				"voteDismissProposal(uint256)": "infinite",
				"withdrawUSDT()": "infinite"
			},
			"internal": {
				"addPartnerInternal(address,uint256,uint256,uint256)": "infinite",
				"dismissPartner(uint256)": "infinite"
			}
		},
		"methodIdentifiers": {
			"addProposals(uint256)": "e6db189f",
			"allowance(address,address)": "dd62ed3e",
			"approve(address,uint256)": "095ea7b3",
			"balanceOf(address)": "70a08231",
			"burn(uint256)": "42966c68",
			"burnFrom(address,uint256)": "79cc6790",
			"buyEquity(address)": "ce79ef03",
			"calculateClaimableTokens(address)": "fa3d888e",
			"cancelSellEquity()": "b09cc751",
			"claimEquity()": "649ab831",
			"createAddProposal(address,uint256,uint256,uint256)": "696a6c16",
			"createDismissProposal(address)": "1efad766",
			"decimals()": "313ce567",
			"dismissProposals(uint256)": "10ce5c3f",
			"founder()": "4d853ee5",
			"getAllSellEquityDetails()": "786e49b9",
			"getPartners()": "73e29b0d",
			"name()": "06fdde03",
			"nextProposalId()": "2ab09d14",
			"partners(uint256)": "c3b49d04",
			"partnersDetails(address)": "caba8eb0",
			"sellEquity(uint256,uint256)": "38fea726",
			"sellEquityDetails(address)": "6a846ce6",
			"symbol()": "95d89b41",
			"totalSupply()": "18160ddd",
			"transfer(address,uint256)": "a9059cbb",
			"transferFrom(address,address,uint256)": "23b872dd",
			"usdcToken()": "11eac855",
			"voteAddProposal(uint256)": "cf222c73",
			"voteDismissProposal(uint256)": "7f06ecc9",
			"withdrawUSDT()": "362e496b"
		}
	},
	"abi": [
		{
			"inputs": [
				{
					"internalType": "string",
					"name": "_name",
					"type": "string"
				},
				{
					"internalType": "string",
					"name": "_symbol",
					"type": "string"
				}
			],
			"stateMutability": "nonpayable",
			"type": "constructor"
		},
		{
			"inputs": [
				{
					"internalType": "address",
					"name": "spender",
					"type": "address"
				},
				{
					"internalType": "uint256",
					"name": "allowance",
					"type": "uint256"
				},
				{
					"internalType": "uint256",
					"name": "needed",
					"type": "uint256"
				}
			],
			"name": "ERC20InsufficientAllowance",
			"type": "error"
		},
		{
			"inputs": [
				{
					"internalType": "address",
					"name": "sender",
					"type": "address"
				},
				{
					"internalType": "uint256",
					"name": "balance",
					"type": "uint256"
				},
				{
					"internalType": "uint256",
					"name": "needed",
					"type": "uint256"
				}
			],
			"name": "ERC20InsufficientBalance",
			"type": "error"
		},
		{
			"inputs": [
				{
					"internalType": "address",
					"name": "approver",
					"type": "address"
				}
			],
			"name": "ERC20InvalidApprover",
			"type": "error"
		},
		{
			"inputs": [
				{
					"internalType": "address",
					"name": "receiver",
					"type": "address"
				}
			],
			"name": "ERC20InvalidReceiver",
			"type": "error"
		},
		{
			"inputs": [
				{
					"internalType": "address",
					"name": "sender",
					"type": "address"
				}
			],
			"name": "ERC20InvalidSender",
			"type": "error"
		},
		{
			"inputs": [
				{
					"internalType": "address",
					"name": "spender",
					"type": "address"
				}
			],
			"name": "ERC20InvalidSpender",
			"type": "error"
		},
		{
			"anonymous": false,
			"inputs": [
				{
					"indexed": false,
					"internalType": "uint256",
					"name": "proposalId",
					"type": "uint256"
				},
				{
					"indexed": false,
					"internalType": "address",
					"name": "proposalTarget",
					"type": "address"
				}
			],
			"name": "AddProposalCreated",
			"type": "event"
		},
		{
			"anonymous": false,
			"inputs": [
				{
					"indexed": true,
					"internalType": "address",
					"name": "owner",
					"type": "address"
				},
				{
					"indexed": true,
					"internalType": "address",
					"name": "spender",
					"type": "address"
				},
				{
					"indexed": false,
					"internalType": "uint256",
					"name": "value",
					"type": "uint256"
				}
			],
			"name": "Approval",
			"type": "event"
		},
		{
			"anonymous": false,
			"inputs": [
				{
					"indexed": false,
					"internalType": "uint256",
					"name": "proposalId",
					"type": "uint256"
				},
				{
					"indexed": false,
					"internalType": "address",
					"name": "proposalTarget",
					"type": "address"
				}
			],
			"name": "DismissProposalCreated",
			"type": "event"
		},
		{
			"anonymous": false,
			"inputs": [
				{
					"indexed": true,
					"internalType": "address",
					"name": "buyer",
					"type": "address"
				},
				{
					"indexed": false,
					"internalType": "uint256",
					"name": "tokensAmount",
					"type": "uint256"
				}
			],
			"name": "EquityPurchased",
			"type": "event"
		},
		{
			"anonymous": false,
			"inputs": [
				{
					"indexed": true,
					"internalType": "address",
					"name": "from",
					"type": "address"
				},
				{
					"indexed": true,
					"internalType": "address",
					"name": "to",
					"type": "address"
				},
				{
					"indexed": false,
					"internalType": "uint256",
					"name": "value",
					"type": "uint256"
				}
			],
			"name": "Transfer",
			"type": "event"
		},
		{
			"anonymous": false,
			"inputs": [
				{
					"indexed": false,
					"internalType": "uint256",
					"name": "proposalId",
					"type": "uint256"
				},
				{
					"indexed": false,
					"internalType": "address",
					"name": "voter",
					"type": "address"
				}
			],
			"name": "VoteCast",
			"type": "event"
		},
		{
			"inputs": [
				{
					"internalType": "uint256",
					"name": "",
					"type": "uint256"
				}
			],
			"name": "addProposals",
			"outputs": [
				{
					"internalType": "address",
					"name": "proposalTarget",
					"type": "address"
				},
				{
					"internalType": "uint256",
					"name": "tokensAmount",
					"type": "uint256"
				},
				{
					"internalType": "uint256",
					"name": "cliffPeriod",
					"type": "uint256"
				},
				{
					"internalType": "uint256",
					"name": "vestingPeriod",
					"type": "uint256"
				},
				{
					"internalType": "bool",
					"name": "executed",
					"type": "bool"
				}
			],
			"stateMutability": "view",
			"type": "function"
		},
		{
			"inputs": [
				{
					"internalType": "address",
					"name": "owner",
					"type": "address"
				},
				{
					"internalType": "address",
					"name": "spender",
					"type": "address"
				}
			],
			"name": "allowance",
			"outputs": [
				{
					"internalType": "uint256",
					"name": "",
					"type": "uint256"
				}
			],
			"stateMutability": "view",
			"type": "function"
		},
		{
			"inputs": [
				{
					"internalType": "address",
					"name": "spender",
					"type": "address"
				},
				{
					"internalType": "uint256",
					"name": "value",
					"type": "uint256"
				}
			],
			"name": "approve",
			"outputs": [
				{
					"internalType": "bool",
					"name": "",
					"type": "bool"
				}
			],
			"stateMutability": "nonpayable",
			"type": "function"
		},
		{
			"inputs": [
				{
					"internalType": "address",
					"name": "account",
					"type": "address"
				}
			],
			"name": "balanceOf",
			"outputs": [
				{
					"internalType": "uint256",
					"name": "",
					"type": "uint256"
				}
			],
			"stateMutability": "view",
			"type": "function"
		},
		{
			"inputs": [
				{
					"internalType": "uint256",
					"name": "value",
					"type": "uint256"
				}
			],
			"name": "burn",
			"outputs": [],
			"stateMutability": "nonpayable",
			"type": "function"
		},
		{
			"inputs": [
				{
					"internalType": "address",
					"name": "account",
					"type": "address"
				},
				{
					"internalType": "uint256",
					"name": "value",
					"type": "uint256"
				}
			],
			"name": "burnFrom",
			"outputs": [],
			"stateMutability": "nonpayable",
			"type": "function"
		},
		{
			"inputs": [
				{
					"internalType": "address",
					"name": "_seller",
					"type": "address"
				}
			],
			"name": "buyEquity",
			"outputs": [],
			"stateMutability": "nonpayable",
			"type": "function"
		},
		{
			"inputs": [
				{
					"internalType": "address",
					"name": "_partner",
					"type": "address"
				}
			],
			"name": "calculateClaimableTokens",
			"outputs": [
				{
					"internalType": "uint256",
					"name": "",
					"type": "uint256"
				}
			],
			"stateMutability": "view",
			"type": "function"
		},
		{
			"inputs": [],
			"name": "cancelSellEquity",
			"outputs": [],
			"stateMutability": "nonpayable",
			"type": "function"
		},
		{
			"inputs": [],
			"name": "claimEquity",
			"outputs": [],
			"stateMutability": "nonpayable",
			"type": "function"
		},
		{
			"inputs": [
				{
					"internalType": "address",
					"name": "_partner",
					"type": "address"
				},
				{
					"internalType": "uint256",
					"name": "_tokensAmount",
					"type": "uint256"
				},
				{
					"internalType": "uint256",
					"name": "_cliffPeriod",
					"type": "uint256"
				},
				{
					"internalType": "uint256",
					"name": "_vestingPeriod",
					"type": "uint256"
				}
			],
			"name": "createAddProposal",
			"outputs": [],
			"stateMutability": "nonpayable",
			"type": "function"
		},
		{
			"inputs": [
				{
					"internalType": "address",
					"name": "_partner",
					"type": "address"
				}
			],
			"name": "createDismissProposal",
			"outputs": [],
			"stateMutability": "nonpayable",
			"type": "function"
		},
		{
			"inputs": [],
			"name": "decimals",
			"outputs": [
				{
					"internalType": "uint8",
					"name": "",
					"type": "uint8"
				}
			],
			"stateMutability": "view",
			"type": "function"
		},
		{
			"inputs": [
				{
					"internalType": "uint256",
					"name": "",
					"type": "uint256"
				}
			],
			"name": "dismissProposals",
			"outputs": [
				{
					"internalType": "address",
					"name": "proposalTarget",
					"type": "address"
				},
				{
					"internalType": "bool",
					"name": "executed",
					"type": "bool"
				}
			],
			"stateMutability": "view",
			"type": "function"
		},
		{
			"inputs": [],
			"name": "founder",
			"outputs": [
				{
					"internalType": "address",
					"name": "",
					"type": "address"
				}
			],
			"stateMutability": "view",
			"type": "function"
		},
		{
			"inputs": [],
			"name": "getAllSellEquityDetails",
			"outputs": [
				{
					"components": [
						{
							"internalType": "address",
							"name": "seller",
							"type": "address"
						},
						{
							"internalType": "uint256",
							"name": "tokensAmount",
							"type": "uint256"
						},
						{
							"internalType": "uint256",
							"name": "price",
							"type": "uint256"
						},
						{
							"internalType": "address",
							"name": "buyer",
							"type": "address"
						},
						{
							"internalType": "bool",
							"name": "active",
							"type": "bool"
						}
					],
					"internalType": "struct EquityToken.SellEquityDetails[]",
					"name": "",
					"type": "tuple[]"
				}
			],
			"stateMutability": "view",
			"type": "function"
		},
		{
			"inputs": [],
			"name": "getPartners",
			"outputs": [
				{
					"internalType": "address[]",
					"name": "",
					"type": "address[]"
				}
			],
			"stateMutability": "view",
			"type": "function"
		},
		{
			"inputs": [],
			"name": "name",
			"outputs": [
				{
					"internalType": "string",
					"name": "",
					"type": "string"
				}
			],
			"stateMutability": "view",
			"type": "function"
		},
		{
			"inputs": [],
			"name": "nextProposalId",
			"outputs": [
				{
					"internalType": "uint256",
					"name": "",
					"type": "uint256"
				}
			],
			"stateMutability": "view",
			"type": "function"
		},
		{
			"inputs": [
				{
					"internalType": "uint256",
					"name": "",
					"type": "uint256"
				}
			],
			"name": "partners",
			"outputs": [
				{
					"internalType": "address",
					"name": "",
					"type": "address"
				}
			],
			"stateMutability": "view",
			"type": "function"
		},
		{
			"inputs": [
				{
					"internalType": "address",
					"name": "",
					"type": "address"
				}
			],
			"name": "partnersDetails",
			"outputs": [
				{
					"internalType": "uint256",
					"name": "partnershipStartDate",
					"type": "uint256"
				},
				{
					"internalType": "uint256",
					"name": "totalTokensAmount",
					"type": "uint256"
				},
				{
					"internalType": "uint256",
					"name": "claimedTokensAmount",
					"type": "uint256"
				},
				{
					"internalType": "uint256",
					"name": "cliffPeriod",
					"type": "uint256"
				},
				{
					"internalType": "uint256",
					"name": "vestingPeriod",
					"type": "uint256"
				}
			],
			"stateMutability": "view",
			"type": "function"
		},
		{
			"inputs": [
				{
					"internalType": "uint256",
					"name": "_tokensAmount",
					"type": "uint256"
				},
				{
					"internalType": "uint256",
					"name": "_price",
					"type": "uint256"
				}
			],
			"name": "sellEquity",
			"outputs": [],
			"stateMutability": "nonpayable",
			"type": "function"
		},
		{
			"inputs": [
				{
					"internalType": "address",
					"name": "",
					"type": "address"
				}
			],
			"name": "sellEquityDetails",
			"outputs": [
				{
					"internalType": "address",
					"name": "seller",
					"type": "address"
				},
				{
					"internalType": "uint256",
					"name": "tokensAmount",
					"type": "uint256"
				},
				{
					"internalType": "uint256",
					"name": "price",
					"type": "uint256"
				},
				{
					"internalType": "address",
					"name": "buyer",
					"type": "address"
				},
				{
					"internalType": "bool",
					"name": "active",
					"type": "bool"
				}
			],
			"stateMutability": "view",
			"type": "function"
		},
		{
			"inputs": [],
			"name": "symbol",
			"outputs": [
				{
					"internalType": "string",
					"name": "",
					"type": "string"
				}
			],
			"stateMutability": "view",
			"type": "function"
		},
		{
			"inputs": [],
			"name": "totalSupply",
			"outputs": [
				{
					"internalType": "uint256",
					"name": "",
					"type": "uint256"
				}
			],
			"stateMutability": "view",
			"type": "function"
		},
		{
			"inputs": [
				{
					"internalType": "address",
					"name": "to",
					"type": "address"
				},
				{
					"internalType": "uint256",
					"name": "value",
					"type": "uint256"
				}
			],
			"name": "transfer",
			"outputs": [
				{
					"internalType": "bool",
					"name": "",
					"type": "bool"
				}
			],
			"stateMutability": "nonpayable",
			"type": "function"
		},
		{
			"inputs": [
				{
					"internalType": "address",
					"name": "from",
					"type": "address"
				},
				{
					"internalType": "address",
					"name": "to",
					"type": "address"
				},
				{
					"internalType": "uint256",
					"name": "value",
					"type": "uint256"
				}
			],
			"name": "transferFrom",
			"outputs": [
				{
					"internalType": "bool",
					"name": "",
					"type": "bool"
				}
			],
			"stateMutability": "nonpayable",
			"type": "function"
		},
		{
			"inputs": [],
			"name": "usdcToken",
			"outputs": [
				{
					"internalType": "contract IERC20",
					"name": "",
					"type": "address"
				}
			],
			"stateMutability": "view",
			"type": "function"
		},
		{
			"inputs": [
				{
					"internalType": "uint256",
					"name": "_id",
					"type": "uint256"
				}
			],
			"name": "voteAddProposal",
			"outputs": [],
			"stateMutability": "nonpayable",
			"type": "function"
		},
		{
			"inputs": [
				{
					"internalType": "uint256",
					"name": "_id",
					"type": "uint256"
				}
			],
			"name": "voteDismissProposal",
			"outputs": [],
			"stateMutability": "nonpayable",
			"type": "function"
		},
		{
			"inputs": [],
			"name": "withdrawUSDT",
			"outputs": [],
			"stateMutability": "nonpayable",
			"type": "function"
		}
	]
}